:100000000C9462000C947D000C947D000C947D0097
:100010000C941C060C9428050C94EF050C94950583
:100020000C94C2050C94FB040C9468050C9400011C
:100030000C947D000C9498070C94A2070C947D00FE
:100040000C947D000C947D000C947D000C947D003C
:100050000C947D006802D601550101E10135016D66
:1000600001043100632025642C0061203037322EDA
:1000700035373539452C0061203034332E33323258
:10008000336E2C00732025642C00672025642C001F
:10009000662025642C00622025642C0071202564D4
:1000A0002C00772025642C000000010008002000AF
:1000B0004000800000010004000001000800400032
:1000C0000001000411241FBECFE5D8E0DEBFCDBF84
:1000D00010E0A0E6B0E0E8ECFEE102C005900D9271
:1000E000A039B107D9F712E0A0E9B0E001C01D9234
:1000F000A93AB107E1F70C9408020C9400001092A1
:100100006C011092A5001092A4001092BA000895FC
:100110000F931F939C018B019091BA008FE0989FE1
:10012000C0011124B90181549F4F0E94D4088091CD
:10013000BA00E82FFF27EE0FFF1FEA55FF4F11838C
:1001400000838F5F8093BA001F910F910895909361
:10015000A3008093A20008951F93CF93DF9310E034
:100160008091BA00181748F5A12FBB27FD0184E044
:10017000EE0FFF1F8A95E1F7EA1BFB0BE154FF4FDF
:100180008081C82FDD2780915B01C81BD109209792
:1001900079F4AA0FBB1FAA55BF4FED91FC91F093C4
:1001A000A500E093A4000995D093A500C093A400F6
:1001B0001F5F8091BA001817B8F2DF91CF911F919D
:1001C000089590916C018D3049F0E92FFF27E55A91
:1001D000FE4F80839F5F90936C010895E92FFF2766
:1001E000E55AFE4F10820E94AC0010926C010895F7
:1001F0008DE591E008950E94F8000E94AC070895F3
:100200000E94EB0C82B78F5382BF0E94870E0E9420
:10021000370D0F931F93CF93DF938C01EB018881F0
:10022000882331F08991F801099588818823D1F7D5
:10023000DF91CF911F910F9108950F931F93CF934B
:10024000DF938C01EB01FB018491882349F0FE01CF
:1002500021968491F8010995FE0184918823B9F7CC
:10026000DF91CF911F910F910895CF93DF93CDB779
:10027000DEB726970FB6F894DEBF0FBECDBF82E67D
:1002800090E09F938F930E94AF086091A1027091BC
:10029000A2028DE090E00E945F086091A10270913F
:1002A000A2028AE090E00E945F080F900F906AEF30
:1002B00070E0CE0101960E94590E88E790E09F936E
:1002C0008F9384E690E09F938F930E94AF080F90E6
:1002D0000F900F900F908AE690E09F938F930E946B
:1002E000AF080F900F9087E790E09F938F930E9445
:1002F000AF086AEF70E0CE0101960E94590E0F9090
:100300000F9083E090E09F938F9384E890E09F9319
:100310008F930E94AF080F900F900F900F9085E081
:1003200090E09F938F938AE890E09F938F930E9431
:10033000AF080F900F900F900F9080E590E09F9383
:100340008F9380E990E09F938F930E94AF080F9066
:100350000F900F900F9083E290E09F938F9386E928
:1003600090E09F938F930E94AF080F900F900F9093
:100370000F9087E190E09F938F938CE990E09F939B
:100380008F930E94AF080F900F900F900F9086E40C
:1003900090E09F938F9382EA90E09F938F930E94C7
:1003A000AF080F900F900F900F9069CFCF93DF930E
:1003B000CDB7DEB726970FB6F894DEBF0FBECDBF20
:1003C00015C00D30110579F46091A1027091A2025F
:1003D000C8010E945F086091A1027091A2028AE0A8
:1003E00090E00E945F08802F0E94E10080919F02B0
:1003F0009091A0020E9422088C018FEF0F3F1807F6
:1004000001F765E070E0CE0101960E94590EEECF33
:10041000CFE5D8E0DEBFCDBF80E090E00E94700D58
:1004200080E885BF81EC82BF84E083BF81E089BF23
:1004300081E290E00E945B0740E050E063E877E0F3
:1004400087E797E00E94D9070E947F0087E797E03F
:100450000E94A7006DE772E082E690E00E948800AB
:1004600066EA72E084E690E00E9488006FEC72E039
:1004700086E690E00E94880068EF72E088E690E0EF
:100480000E94880061E273E08AE690E00E948800A2
:100490000E94490640E050E065E170E0CA010E9418
:1004A000910641E050E065E170E0CA010E949106CA
:1004B00042E050E065E170E0CA010E94910643E02D
:1004C00050E065E170E0CA010E94910644E050E00E
:1004D00065E170E0CA010E9491068FE184BB84E56A
:1004E00090E00E947C0D8BE590E00E947C0D0E94C4
:1004F000370D80E090E00C94630F0E94FB00909316
:1005000061008093600080916000992787FD90953D
:10051000BC0180E090E00E94BC068CE690E09F93D6
:100520008F930E949A086091A1027091A2028DE0BF
:1005300090E00E945F086091A1027091A2028AE09F
:1005400090E00E945F080F900F9008950E94FB00BA
:100550009093BE008093BD008091BD00992787FDD8
:100560009095BC0181E090E00E94BC068CE690E092
:100570009F938F930E949A086091A1027091A202AA
:100580008DE090E00E945F086091A1027091A2024C
:100590008AE090E00E945F080F900F9008950E94FB
:1005A000FB0090936B0180936A0180916A01992707
:1005B00087FD9095BC0182E090E00E94BC068CE62D
:1005C00090E09F938F930E949A086091A10270918E
:1005D000A2028DE090E00E945F086091A1027091FC
:1005E000A2028AE090E00E945F080F900F900895A9
:1005F0000E94FB009093A1008093A0008091A00036
:10060000992787FD9095BC0183E090E00E94BC068D
:100610008CE690E09F938F930E949A086091A102CC
:100620007091A2028DE090E00E945F086091A102AB
:100630007091A2028AE090E00E945F080F900F90F4
:1006400008950E94FB009093BC008093BB008091B2
:10065000BB00992787FD9095BC0184E090E00E9443
:10066000BC068091BB009091BC009F938F938FE656
:1006700090E09F938F930E949A086091A1027091DD
:10068000A2028DE090E00E945F086091A10270914B
:10069000A2028AE090E00E945F080F900F900F90F6
:1006A0000F900895039665E070E00E94120FCB0151
:1006B000AA27BB2724E0880F991FAA1FBB1F2A95D2
:1006C000D1F7009711F00197FCCF0895883040F4DE
:1006D000E82FFF27EE0FFF1FE057FF4F1182108218
:1006E000089593B7987F982B93BF0895109269024D
:1006F00010926A0210926B0210926C02089582E0CE
:100700000E94710312BE89B7816089BF0E9476037F
:1007100008959EB5987F982B9EBD089583E00E9412
:1007200089031DBC1CBC89B7846089BF089595B539
:10073000987F982B95BD08951092710210927202C5
:100740001092730210927402089584E00E9497033D
:1007500014BC89B7806489BF0E949C030895CF931D
:10076000C0E08C2F0E946603CF5FC830D0F30E9498
:100770007F030E948E030E94A5037894CF91089571
:1007800083B7E82FFF27E770F070EE0FFF1FE854E4
:10079000FF4F8591949108958EB5E82FFF27E7705C
:1007A000F070EE0FFF1FE854FF4F8591949108956C
:1007B00085B5E82FFF27E770F070EE0FFF1FE855B3
:1007C000FF4F859194910895883040F4E82FFF27DA
:1007D000EE0FFF1FE057FF4F718360830895DF9294
:1007E000EF92FF920F931F93CF93DF93EC01D2B65A
:1007F00010926D0210926E0210926F0210927002AF
:100800000E94C0039C014427552760E074E284EFF6
:1008100090E00E94480F293B8DE8380786E04807A2
:1008200080E05807C0F487E2C131D807A0F4CE01B8
:10083000AA27BB27BC01CD010E94F30EDC01CB012E
:10084000BC01CD0128EE33E040E050E00E94260FCD
:10085000FA01E90111C07E0100271127CA01B9017F
:1008600028EE33E040E050E00E94260FC801B701B7
:100870000E94F30EFC01EB0180916D0290916E02DB
:10088000A0916F02B09170022227382F492F5A2F62
:1008900082B79927AA27BB27282B392B4A2B5B2BFA
:1008A000CD0DD11DE11DF11D2C173D074E075F0732
:1008B00058F580916D0290916E02A0916F02B091F7
:1008C000700285B78F7885BF85B7806885BF8895AA
:1008D00085B78F7785BF80916D0290916E02A09150
:1008E0006F02B0917002BA2FA92F982F882722B7D4
:1008F000332744275527822B932BA42BB52B8C17FA
:100900009D07AE07BF07A8F2DF91CF911F910F910E
:10091000FF90EF90DF9008958091690290916A02B4
:10092000A0916B02B0916C02BC01CD010895809141
:10093000710290917202A0917302B0917402BC0195
:10094000CD010895893031F48FB582608FBD8FB5A8
:100950008E7F0AC08A3019F48FB5826002C08FB5CD
:100960008D7F8FBD8FB581608FBD1BBC1ABC19BC3C
:1009700018BC08959C018FB58E7F8FBD8FB58260A6
:100980008FBD8EB588608EBD8EB580618EBD37BD42
:1009900026BD1BBC1ABC19BC18BC08958FB58F7737
:1009A0008FBD8FB58F7B8FBD08958FB58F7D8FBD28
:1009B0008FB58F7E8FBD08958FB58D7F8FBD8FB51D
:1009C0008E7F8FBD0E94CE040E94D50408958FB5FE
:1009D00080688FBD8FB58F7B8FBD08958FB5806286
:1009E0008FBD8FB58F7E8FBD08959BBD8ABD089545
:1009F00099BD88BD08951F920F920FB60F921124D2
:100A00002F933F934F935F936F937F938F939F9316
:100A1000AF93BF93EF93FF938091920090919300D7
:100A2000892B29F0E0919200F09193000995FF91B4
:100A3000EF91BF91AF919F918F917F916F915F9156
:100A40004F913F912F910F900FBE0F901F901895CF
:100A50001F920F920FB60F9211242F933F934F9333
:100A60005F936F937F938F939F93AF93BF93EF9316
:100A7000FF938091710290917202A0917302B091E4
:100A800074020196A11DB11D8093710290937202B0
:100A9000A0937302B093740280919A0090919B008E
:100AA000892B29F0E0919A00F0919B000995FF9124
:100AB000EF91BF91AF919F918F917F916F915F91D6
:100AC0004F913F912F910F900FBE0F901F9018954F
:100AD0001F920F920FB60F9211242F933F934F93B3
:100AE0005F936F937F938F939F93AF93BF93EF9396
:100AF000FF9380919E0090919F00892B29F0E091B7
:100B00009E00F0919F000995FF91EF91BF91AF91E9
:100B10009F918F917F916F915F914F913F912F9115
:100B20000F900FBE0F901F9018951F920F920FB647
:100B30000F9211242F933F934F935F936F937F9363
:100B40008F939F93AF93BF93EF93FF938091940004
:100B500090919500892B29F0E0919400F0919500F7
:100B60000995FF91EF91BF91AF919F918F917F91E7
:100B70006F915F914F913F912F910F900FBE0F900A
:100B80001F9018951F920F920FB60F9211242F935A
:100B90003F934F935F936F937F938F939F93AF9305
:100BA000BF93EF93FF938091960090919700892BCC
:100BB00029F0E0919600F09197000995FF91EF914F
:100BC000BF91AF919F918F917F916F915F914F9165
:100BD0003F912F910F900FBE0F901F9018951F926D
:100BE0000F920FB60F9211242F933F934F935F9361
:100BF0006F937F938F939F93AF93BF93EF93FF93E5
:100C00008091980090919900892B29F0E0919800AB
:100C1000F09199000995FF91EF91BF91AF919F914C
:100C20008F917F916F915F914F913F912F910F9095
:100C30000FBE0F901F9018951F920F920FB60F9234
:100C400011242F933F934F935F936F937F938F93D1
:100C50009F93AF93BF93EF93FF9380919C009091EC
:100C60009D00892B29F0E0919C00F0919D00099551
:100C7000FF91EF91BF91AF919F918F917F916F9174
:100C80005F914F913F912F910F900FBE0F901F904A
:100C9000189589B78F7E89BF84E00E9489036CEE26
:100CA00076E082E00E94E403A2E2B0E055E161E078
:100CB00070E0E6E7F2E020E030E044E0B383A283B6
:100CC0005083CB01022E02C0880F991F0A94E2F7CD
:100CD000818341502F5F3F4F349647FFEFCF1092F3
:100CE0008B0210928A028AED94E090938D02809399
:100CF0008C022AB58BB59927982F8827820F911DD2
:100D000086529B4F292F33272BBD8ABD89B780611F
:100D100089BF089589B78F7E89BF82E00E946603EC
:100D20000895242FE82FFF27EE0FFF1FEE0FFF1F60
:100D3000EA58FD4F608333272770307081E090E0E0
:100D400002C0880F991F2A95E2F7818308956232C5
:100D5000710510F462E270E06B38710510F06AE81A
:100D600070E0E82FFF27EE0FFF1FEE0FFF1FEA587E
:100D7000FD4F738362830895282F88E6689FC00122
:100D800011246FEF70E00E94120FCB018296BC011C
:100D9000822F0E94A7060895E82FFF27EE0FFF1F5E
:100DA000EE0FFF1FEA58FD4F8281938108950E9444
:100DB000CC062FEF30E0829FA001839F500D929FC1
:100DC000500D1124CA018E5D914268E670E00E94C8
:100DD000120FCB0199270895CF93DF93E09175020D
:100DE000E53080F4FF27EE0FFF1FEE0FFF1FEA58DC
:100DF000FD4F8081A82FBB2791819095ED0188A19F
:100E0000892388A3809175028F5F80937502853056
:100E100019F1863010F01092750280917502E82F5A
:100E2000FF27EE0FFF1FEE0FFF1FEA58FD4F8081D7
:100E3000A82FBB27ED0188A19181892B88A38091E0
:100E40007502E82FFF27EE0FFF1FEE0FFF1FEA5876
:100E5000FD4F428153810AC040918C0250918D0216
:100E600080918A0290918B02481B590B2AB58BB551
:100E70009927982F8827820F911D840F951F292F5E
:100E800033272BBD8ABD80918A0290918B02840FFB
:100E9000951F90938B0280938A0220918C0230914F
:100EA0008D028217930720F010928B0210928A0213
:100EB000DF91CF91089589B9892F992780BD82E06C
:100EC0008BB988EB8AB986E880BD0895CF93C82F87
:100ED0008EE892E00E94480E019729F4CCB9559A09
:100EE00080E090E002C08FEF9FEFCF9108951F93B5
:100EF000182F8EE892E00E94D70D1CB9559A80E019
:100F000090E01F91089580E992E00E94480E0197B9
:100F100021F48CB1579A992708958FEF9FEF089588
:100F200080E992E00E94D70D8CB1579A99270895D5
:100F30000E94EB0C5798789480E992E00E94EE0DA5
:100F40000E94370D0E94EB0C559878948EE892E041
:100F50000E94EE0D0E94370DFC0188279927E89426
:100F600021912223F1F02032D9F32930C9F32A301C
:100F7000B9F32C30A9F32D3099F3263789F32B32AE
:100F800019F02D3221F468942191222351F020335D
:100F900044F02A3334F420530E949208820F911DAA
:100FA000F3CF8115910521F01EF48095909501965F
:100FB00008950F931F93CF93DF938C01EB0100975C
:100FC000A1F16CE070E081E090E00E94980BFC01E0
:100FD000892B21F1209751F0D387C28721E0238309
:100FE00080919F029091A002892BD1F001151105EB
:100FF000A9F011870087038102600383A091A102F9
:10100000B091A202AB2B51F4F093A202E093A102A3
:10101000C091A302D091A402CD2B51F0CF010DC0FD
:10102000F093A002E0939F02E1CF672B51F605C039
:10103000F093A402E093A302F1CFDF91CF911F912F
:101040000F910895CF93DF93EC012B81822F992785
:1010500080FF30C086FD16C082FF1DC0E881F98187
:101060003191432F552747FD5095F983E88341156A
:101070005105F1F0AE81BF811196BF83AE83842FFD
:1010800099271AC02F7B2B838E819F8101969F8386
:101090008E838A81F5CFEA85FB850995AC018FEFB8
:1010A0004F3F580739F72B8120612B83CA0104C0B9
:1010B00020622B838FEF9FEFDF91CF9108950F93E5
:1010C0001F93CF93DF938C01EB018B81992781FFD5
:1010D00022C082FF14C02E813F818C819D81281700
:1010E00039073CF4E881F9810193F983E8832E8183
:1010F0003F812F5F3F4F3F832E83C8010EC0E8859D
:10110000F985802F0995892B31F4AE81BF81119625
:10111000BF83AE83F2CF8FEF9FEFDF91CF911F910F
:101120000F9108957AE0979F902D879F802D910DC4
:1011300011240895CF93DF93CDB7DEB7E5E0F0E05B
:10114000EC0FFD1F81919191AF01BC018091A10233
:101150009091A2020E94DB08DF91CF910895CF9376
:10116000DF93CDB7DEB745E050E04C0F5D1FFA01CD
:1011700021913191AF01A091A102B091A202FD0194
:10118000838188608383B9018091A1029091A2023A
:101190000E94DB08E091A102F091A2022381277F47
:1011A0002383DF91CF910895FB01DC0101900D9223
:1011B0000020E1F708952F923F924F925F926F9235
:1011C0007F928F929F92AF92BF92CF92DF92EF92D7
:1011D000FF920F931F93CF93DF93CDB7DEB7629744
:1011E0000FB6F894DEBF0FBECDBFEE24FF248701FB
:1011F0001C017E876D872A01CC24DD24FC01D78267
:10120000C682838181FD68C28FEF9FEF78C28D8592
:101210009E8501969E878D87C0FE4BC28F85805329
:101220008A30D0F49F85903339F4662029F4C3FCCA
:1012300003C0E0E0F1E08DC08AE0689E602C1124DC
:10124000FF856F0E20ED620E67FE02C05FE7652E20
:10125000C3FC42C2762C40C2C3FE04C0662011F417
:1012600041E0642EEF858E2F992787FD9095883673
:1012700091058CF5853691050CF06EC0833591058E
:1012800009F493C084359105CCF48B32910509F4AF
:1012900049C08C3291054CF48032910509F446C066
:1012A0008332910509F44AC0FEC18D32910509F4DB
:1012B00040C08E32910509F444C0F5C183369105D2
:1012C00009F450C0843691050CF08AC08835910528
:1012D00009F4BCC0E8C18037910509F4B1C0813779
:1012E000910584F48C36910591F18D3691052CF49D
:1012F0008936910509F474C0D6C18F36910509F479
:101300009CC0D1C18537910509F4A2C086379105EB
:1013100024F48337910571F1C6C18837910509F42A
:1013200095C0C1C180E190E0C82AD92AE0E2F0E08E
:1013300010C080E890E0C82AD92ACEC1E0E4F0E0ED
:1013400008C088E090E0C82AD92A6624C5C1E4E034
:10135000F0E0CE2ADF2AC0C13FE3E32E7A94F3E621
:10136000FF873CC1F20182E090E0480E591EE08008
:101370007A9434C1F20182E090E0480E591EA081B7
:10138000B1817D01C3FE09C0862D992787FD909507
:10139000BC01CD010E94D50C1FC0FD0101900020B1
:1013A000E9F73197EA1BE88B18C0F20182E090E080
:1013B000480E591E0190F081E02D7F01C3FE09C047
:1013C000862D992787FD9095BC01CF010E94E00CE6
:1013D00003C0CF010E94CC0C888B9889791AFEC07B
:1013E000C2FE0AC0F20184E090E0480E591E20813E
:1013F0003181428153810CC0F20182E090E0480EBD
:10140000591E808191819C01442737FD4095542FBE
:1014100079018A0157FF0CC0E2E0F0E0CE2ADF2A12
:1014200010950095F094E094E11CF11C011D111D34
:101430008FEB9FEFC822D92227C098E0988B08C075
:10144000E0E4F0E0CE2ADF2AF8E7FF8720E1288BEE
:10145000C2FE0AC0F20184E090E0480E591E2081CD
:101460003181428153810AC0F20182E090E0480E4E
:10147000591E808191819C014427552779018A0159
:10148000EFECFFEFCE22DF22CE0101969A8B898B03
:101490009889892E9924AA24BB24C801B701A501E3
:1014A00094010E94260FDC01CB01E989FA8980832F
:1014B0008A3024F0FF858F0F815201C0805DE98959
:1014C000FA898193FA8BE98BC801B701A5019401D0
:1014D0000E94260F79018A01211531054105510528
:1014E000E1F6E98881E090E08C0F9D1FE81AC601C3
:1014F00082739070892B09F07A94C6FE0DC0872DF7
:10150000992787FD9095E889E03121F42EEF722E1E
:10151000780E02C0782E7A94C3FE0FC0262D332792
:1015200027FD30958E2D9927821793072CF087EF92
:101530009FEFC822D92201C06E18C3FE02C07618E0
:1015400001C07E18C60180789170892B51F4872DD7
:101550007A94181634F4B10180E290E00E945F089A
:10156000F6CFC1FE04C0B1018DE290E00BC0C4FE15
:1015700004C0B1018BE290E005C0C5FE05C0B10119
:1015800080E290E00E945F08C6FE10C0B10180E3D7
:1015900090E00E945F089889903141F4B101EF8595
:1015A0008E2F992787FD90950E945F08D0FE0AC074
:1015B000872D7A94181634F4B10180E390E00E94EC
:1015C0005F08F6CFC3FE0AC0862D6A94181634F45D
:1015D000B10180E390E00E945F08F6CF90E8B92E59
:1015E000BC2051F4872D7A94181634F4B10180E2AE
:1015F00090E00E945F08F6CFFF85F33641F48E2D10
:10160000B101992787FD90950E945F0840C02F8502
:101610002337B1F488898150888B8F3FC1F1F7015E
:1016200080810894E11CF11CB101992787FD9095F8
:101630000E945F0898899150988B9F3F81F727C03F
:10164000EF85E33579F4F889F150F88BFF3FF9F035
:10165000F7018491B10199270E945F080894E11C69
:10166000F11CF1CF6E010894C11CD11C89899A89A3
:101670008C159D0561F0E989FA898291FA8BE98BD5
:10168000B101992787FD90950E945F08EFCFBB209D
:1016900069F0872D7A9418164CF4B10180E290E03D
:1016A0000E945F08F6CFB1010E945F08CC24DD24C0
:1016B00013C09F85953241F481E0C82ED12C662459
:1016C000762CEAE0E88B08C0B101FF858F2F9927BF
:1016D00087FD90950E945F08F101838183FF04C01C
:1016E000ED85FE85F49103C0ED85FE85F081FF87D1
:1016F0002F85222309F08BCDF10186819781629697
:101700000FB6F894DEBF0FBECDBFDF91CF911F9112
:101710000F91FF90EF90DF90CF90BF90AF909F9090
:101720008F907F906F905F904F903F902F90089593
:101730000F931F93CF93DF93869F8001879F100D98
:10174000969F100D1124C8010E94B40BEC01009764
:1017500029F0A80160E070E00E94C50CCE01DF9185
:10176000CF911F910F910895CF93DF939C01029722
:1017700010F422E030E040E050E06091A702709168
:10178000A802FB01DA016115710569F1808191817F
:101790008217930709F452C02817390738F4411506
:1017A000510519F08417950708F4AC01DF01028098
:1017B000F381E02D309751F741155105A1F0DA0181
:1017C000A21BB30B149708F443C0DB010AC06D9150
:1017D0007C9111976417750709F450C0FD01A2812F
:1017E000B3811097A1F7E091A502F091A60230977E
:1017F00041F4E0918B00F0918C00F093A602E0930D
:10180000A5024091890050918A004115510529F1A6
:101810004E1B5F0B42175307E8F0C90102964817A9
:101820005907C0F0EF01C20FD31F2296D093A60232
:10183000C093A50221933193CF0142C01097B1F01C
:1018400082819381ED019B838A83CF01029638C008
:101850009A01BBCF80E090E033C04DB75EB7A09156
:101860008D00B0918E004A1B5B0BD2CF2281338159
:101870003093A8022093A702CF01E8CF24173507A1
:1018800061F0EA01C21BD30BFD01EC0FFD1F219398
:1018900031932297CD93DC93CFCF309741F0ED0178
:1018A0004A815B8153834283CD01029609C0FD01C9
:1018B000828193819093A8028093A702CD01F5CFF6
:1018C000DF91CF910895CF93DF93009709F45AC029
:1018D000DC011297ED011B821A828091A702909180
:1018E000A8020097D9F1FC0140E050E0EA17FB079D
:1018F00048F4AF010280F381E02D3097A1F0EA17A0
:10190000FB07B8F3ED01FB83EA832D913C9111971E
:10191000E901CA0FDB1FCE0102968E179F0719F14E
:1019200041155105D9F0EA01BB83AA83CA01029689
:1019300028813981820F931F8A179B0719F56D91B2
:101940007C911197260F371F2E5F3F4F39832883D5
:10195000FD01428153815B834A8314C0B093A80286
:10196000A093A7020FC06A817B81260F371F2E5FCD
:101970003F4F11963C932E9322813381FD01338397
:101980002283CECFDF91CF910895DC0101C06D930A
:1019900041505040E0F70895FC0105900020E9F720
:1019A000809590958E0F9F1F0895FC0161507040A7
:1019B00001900110D8F7809590958E0F9F1F089584
:1019C000FC016150704005900110D8F7809590950A
:1019D0008E0F9F1F0895DF93CF93BF93AF939F9375
:1019E000D2E0C4E99FB7AE81AF5FAE8360F0AA8159
:1019F000BB81BA2B41F4CDB7DEB7FE81EF812996CA
:101A0000CDBFDEBF09948F937F936F935F934F9306
:101A10003F932F931F930F93FF92EF92DF92CF92FA
:101A2000BF92AF929F928F927F926F925F924F92EE
:101A30003F922F921F920F929F93CDB7DEB79B8D4F
:101A400039A148A1E8A3F9A370F0F2E0E4E9D38159
:101A5000C281BEB7ADB7BD83AC8324812DBF2581C4
:101A60002EBFCA2FDB2F1124E32FF42F0994EF91FF
:101A7000EF91E4E9F2E0F89406810A95068354F4C4
:101A8000D181C081D383C283209639F1BD81AC81DD
:101A9000ADBFBEBF0F900FBE0F901F902F903F9015
:101AA0004F905F906F907F908F909F90AF90BF907E
:101AB000CF90DF90EF90FF900F911F912F913F916A
:101AC0004F915F916F917F918F919F91AF91BF9156
:101AD000CF91DF91EF91FF91189578948895FDCF84
:101AE000FF91EF918050904011F48DB79EB7809395
:101AF000980290939902099401D023C0E82FF92FFE
:101B00001DD0A02D1BD0B02D19D00C9217D00E9245
:101B100040E040E051E24E935A95E9F711970ED01C
:101B2000802D0CD0902D0AD0E82FF92FA483B583F7
:101B30000382A0E6A283418340830895C89531962D
:101B40000895F89448DF7894E82FF92F22812F7DAB
:101B5000228326FF03C02F7B228301D08ACFE82F68
:101B6000F92F3FEF22812073E1F4CF93DF9343817C
:101B7000C4E9D2E02FB7F8943395EC2FFD2FC08144
:101B8000D181209619F05B814517B0F7918380834E
:101B9000F92FE82FD183C083DF91CF91832F2FBFFF
:101BA0000895832F2064228308958E5F9F4FE82F2E
:101BB000F92FF894208131812150304019F420838D
:101BC0003183189508DFE4E9F2E0738162813CD04B
:101BD000E82FF92F2BD04DCF8E5F9F4F0CD09091D7
:101BE0009A029395892B09F00895F894F4DE78947D
:101BF00040CF8E5F9F4FE82FF92F81E090E02FB705
:101C0000F894718160818617970728F0808391830B
:101C10008FEF2FBF08958FE586179707C8F723D05A
:101C20002FBF862F972F9BCFE22FF32F208131815B
:101C300020503040C9F771836083F72FE62F31833E
:101C400020830895F32FE22F2081318162177307DB
:101C500051F020503040B1F708956081718160509B
:101C6000704009F408954C2F5D2FC62FD72F79812E
:101C7000688171836083E62FF72F66276883698305
:101C80007D2F6C2FC42FD52F989408958E5F9F4F72
:101C9000F92FE82F81E090E0F89420813181281B12
:101CA000390B21F008F08E5F815018952183308325
:101CB000189501D07ACF6050704009F48DCFF89418
:101CC0008ADE789468D0ECE9F2E0F89420919E02E4
:101CD0002A9520939E027894CE2FDF2FE881F981F8
:101CE000309659F024813581621B730BA8F7620F7F
:101CF000731F261B370B2483358399838883D92F41
:101D0000C82FF983E8836C837D833CD0B2CEF894EE
:101D100020919E02215020939E02789408F008950D
:101D2000CF93DF93AF93BF93D0919D02C0919C025C
:101D3000209621F1FD81EC813197FD83EC83EF2B1F
:101D4000E9F4A881B981B0939D02A0939C02F98324
:101D5000E8838A819B818250904031F48E819F81FB
:101D60007D2F6C2F2ED003C08C2F9D2F42DF10961D
:101D700029F0CA2FDB2FFD81EC81E1CFBF91AF911C
:101D8000DF91CF91F89420919E02239520939E029B
:101D9000789431F60895E82FF92F329602C0F92F82
:101DA000E82FF894408151814150504011F04F5F2D
:101DB0005F4F518340831895F8940DDE789401D0DD
:101DC00058CEF92FE82F32DF14CFE82FF92FF894EF
:101DD00044DF789421F4E9DE82509040F6CFDBDFD7
:101DE000862F972F0895629FD001739FF001829FE5
:101DF000E00DF11D649FE00DF11D929FF00D839F9A
:101E0000F00D749FF00D659FF00D9927729FB00D36
:101E1000E11DF91F639FB00DE11DF91FBD01CF0149
:101E200011240895AA1BBB1B51E107C0AA1FBB1FA9
:101E3000A617B70710F0A61BB70B881F991F5A9556
:101E4000A9F780959095BC01CD010895A1E21A2EC5
:101E5000AA1BBB1BFD010DC0AA1FBB1FEE1FFF1F4E
:101E6000A217B307E407F50720F0A21BB30BE40B9E
:101E7000F50B661F771F881F991F1A9469F76095E5
:101E80007095809590959B01AC01BD01CF0108959F
:101E900097FB092E05260ED057FD04D0D7DF0AD0B8
:101EA000001C38F450954095309521953F4F4F4F89
:101EB0005F4F0895F6F790958095709561957F4FE7
:081EC0008F4F9F4F0895FFCFE3
:101EC80032006C00720074007000690065300043D5
:101ED800616D6572612054696C7420536572766F08
:101EE800205365743A202564000000A902200000F0
:00000001FF
