:100000000C9462000C947D000C947D000C947D0097
:100010000C949D050C94A9040C9470050C94160581
:100020000C9443050C947C040C94E9040C94F500A6
:100030000C947D000C947B070C9485070C947D0038
:100040000C947D000C947D000C947D000C947D003C
:100050000C947D006802AD01550101E10126016D9E
:100060000104772025642C00712025642C00622077
:1000700025642C00662025642C00672025642C0054
:10008000732025642C0061203034332E3332323318
:100090006E2C0061203037322E35373539452C0033
:1000A000632025642C0031000000010008002000BE
:1000B0004000800000010004000001000800400032
:1000C0000001000411241FBECFE5D8E0DEBFCDBF84
:1000D00010E0A0E6B0E0E6ECFEE102C005900D9273
:1000E000A039B107D9F712E0A0E9B0E001C01D9234
:1000F000A93AB107E1F70C94B0020C9400001092F9
:100100006C011092A5001092A4001092BA000895FC
:100110000F931F93AC018B018091BA002FE0829F57
:10012000C0011124BA0181549F4F0E94BC078091E5
:10013000BA00E82FFF27EE0FFF1FEA55FF4F11838C
:1001400000838F5F8093BA001F910F910895909361
:10015000A3008093A2000895CF93DF93C0E0D0E086
:1001600022C0AE2FBB278FE090E0A89FF001A99F8F
:10017000F00DB89FF00D1124E154FF4F9081809154
:100180005B01981779F4AA0FBB1FAA55BF4FED91D9
:10019000FC91F093A500E093A40009951092A500AE
:1001A0001092A4002196EC2F8091BA00C817C8F2D3
:1001B000DF91CF91089590916C018D3049F0E92F36
:1001C000FF27E55AFE4F80839F5F90936C0108954F
:1001D000E92FFF27E55AFE4F10820E94AC001092D3
:1001E0006C0108958DE591E008950E94EA0C82B7B4
:1001F0008F5382BF0E94860E0E94360D0F931F936D
:10020000CF93DF938C01EB0103C02196F801099590
:1002100088818823D1F7DF91CF911F910F910895A5
:100220000F931F93CF93DF938C01EB0105C02196B1
:10023000F9018491F80109959E01FE0184918823BA
:10024000B1F7DF91CF911F910F910895CF93DF9375
:10025000CDB7DEB726970FB6F894DEBF0FBECDBF81
:1002600086EA90E09F938F930E94A7086091A10275
:100270007091A2028DE090E00E9458086091A10266
:100280007091A2028AE090E00E9458086AEF70E044
:10029000CE0101960E94580E88E790E09F938F93BD
:1002A00080EA90E09F938F930E94A70883E990E0F3
:1002B0009F938F930E94A70886E890E09F938F9367
:1002C0000E94A7086AEF70E0CE0101960E94580EC6
:1002D00083E090E09F938F9380E890E09F938F93CB
:1002E0000E94A70885E090E09F938F938AE790E0B3
:1002F0009F938F930E94A70880E590E09F938F9330
:1003000084E790E09F938F930E94A70883E290E098
:100310009F938F938EE690E09F938F930E94A70800
:1003200087E190E09F938F9388E690E09F938F936F
:100330000E94A70886E490E09F938F9382E690E066
:100340009F938F930E94A7088DB79EB782960FB692
:10035000F8949EBF0FBE8DBF83CFCF93DF93CDB7F1
:10036000DEB726970FB6F894DEBF0FBECDBF16C01E
:100370000D30110581F46091A1027091A2028DE00F
:1003800090E00E9458086091A1027091A2028AE058
:1003900090E00E945808802F0E94DB0080919F020D
:1003A0009091A0020E9415088C018FEF0F3F180753
:1003B000F9F665E070E0CE0101960E94580EEECF8E
:1003C0008DE591E00E948F0708950E94E0019093CF
:1003D000BC008093BB00992787FD9095BC0184E009
:1003E00090E00E941E078091BB009091BC009F93FB
:1003F0008F9382E690E09F938F930E94850860918F
:10040000A1027091A2028DE090E00E9458086091D4
:10041000A1027091A2028AE090E00E9458080F9019
:100420000F900F900F9008950E94E0019093A1000B
:100430008093A000992787FD9095BC0183E090E010
:100440000E941E078CE790E09F938F930E9485087F
:100450006091A1027091A2028DE090E00E94580884
:100460006091A1027091A2028AE090E00E94580877
:100470000F900F9008950E94E00190936B0180937C
:100480006A01992787FD9095BC0182E090E00E9467
:100490001E078CE790E09F938F930E9485086091E0
:1004A000A1027091A2028DE090E00E945808609134
:1004B000A1027091A2028AE090E00E9458080F9079
:1004C0000F9008950E94E0019093BE008093BD00BC
:1004D000992787FD9095BC0181E090E00E941E075E
:1004E0008CE790E09F938F930E9485086091A10212
:1004F0007091A2028DE090E00E9458086091A102E4
:100500007091A2028AE090E00E9458080F900F902C
:1005100008950E94E0019093610080936000992704
:1005200087FD9095BC0180E090E00E941E078CE75B
:1005300090E09F938F930E9485086091A102709133
:10054000A2028DE090E00E9458086091A102709193
:10055000A2028AE090E00E9458080F900F90089540
:10056000CFE5D8E0DEBFCDBF80E090E00E946F0D08
:1005700080E885BF81EC82BF84E083BF81E089BFD2
:1005800081E290E00E943E070AE517E040E050E07B
:1005900066E677E0C8010E94CB0710926C011092CA
:1005A000A5001092A4001092BA001093A30000932B
:1005B000A20069E872E08FE790E00E94880062E69E
:1005C00072E081E890E00E9488006BE372E083E8CB
:1005D00090E00E94880064E172E085E890E00E946B
:1005E000880065EE71E087E890E00E9488000E9434
:1005F0001C0640E050E065E170E080E090E00E9481
:10060000630641E050E065E170E081E090E00E9427
:10061000630642E050E065E170E082E090E00E9415
:10062000630643E050E065E170E083E090E00E9403
:10063000630644E050E065E170E084E090E00E94F1
:1006400063068FE184BB84E590E00E947B0D8BE51F
:1006500090E00E947B0D0E94360D80E090E00C94AB
:10066000620F039665E070E00E94110F88279927BA
:1006700024E0660F771F881F991F2A95D1F720E085
:1006800030E002C02F5F3F4F26173707D8F3089599
:10069000883040F4E82FFF27EE0FFF1FE057FF4F91
:1006A00011821082089593B7987F982B93BF089575
:1006B0001092690210926A0210926B0210926C0200
:1006C00008959EB5987F982B9EBD089595B5987F07
:1006D000982B95BD0895109271021092720210929B
:1006E0007302109274020895E3B7FF27E770F07069
:1006F000EE0FFF1FE854FF4F859194910895EEB5DA
:10070000FF27E770F070EE0FFF1FE854FF4F859151
:1007100094910895E5B5FF27E770F070EE0FFF1F85
:10072000E855FF4F859194910895883040F4E82F63
:10073000FF27EE0FFF1FE057FF4F7183608308957F
:10074000DF92EF92FF920F931F937C01D2B610922B
:100750006D0210926E0210926F02109270020E944F
:1007600074039C014427552760E074E284EF90E015
:100770000E94470F293B8DE8380786E0480780E054
:10078000580798F481E1E81687E2F80670F4B7019B
:10079000882799270E94F20E28EE33E040E050E0CF
:1007A0000E94250F79018A0123C000271127CA0161
:1007B000B90128EE33E040E050E00E94250FC80167
:1007C000B7010E94F20E7B018C0112C080916D0274
:1007D00090916E02A0916F02B091700285B78F78F0
:1007E00085BF85B7806885BF889585B78F7785BFBA
:1007F00080916D0290916E02A0916F02B091700293
:1008000022B7BA2FA92F982F882733274427552797
:10081000822B932BA42BB52BA80197012D0D311DF5
:10082000411D511D82179307A407B50778F21F9148
:100830000F91FF90EF90DF900895609169027091A1
:100840006A0280916B0290916C020895609171022E
:1008500070917202809173029091740208958930B0
:1008600031F48FB582608FBD8FB58E7F0AC08A301C
:1008700019F48FB5826002C08FB58D7F8FBD8FB5A3
:1008800081608FBD1BBC1ABC19BC18BC08952FB564
:100890002E7F2FBD2FB522602FBD2EB528602EBD17
:1008A0002EB520612EBD97BD86BD1BBC1ABC19BCE0
:1008B00018BC08958FB58F778FBD8FB58F7B8FBD97
:1008C00008958FB58F7D8FBD8FB58F7E8FBD0895B5
:1008D0008FB580688FBD8FB58F7B8FBD08958FB525
:1008E00080628FBD8FB58F7E8FBD08959BBD8ABD01
:1008F000089599BD88BD08951F920F920FB60F926B
:1009000011242F933F934F935F936F937F938F9314
:100910009F93AF93BF93EF93FF9380919200909139
:100920009300892B29F0E0919200F09193000995B2
:10093000FF91EF91BF91AF919F918F917F916F91B7
:100940005F914F913F912F910F900FBE0F901F908D
:1009500018951F920F920FB60F9211242F933F9369
:100960004F935F936F937F938F939F93AF93BF93B7
:10097000EF93FF938091710290917202A0917302A4
:10098000B09174020196A11DB11D809371029093E4
:100990007202A0937302B093740280919A009091B6
:1009A0009B00892B29F0E0919A00F0919B0009951A
:1009B000FF91EF91BF91AF919F918F917F916F9137
:1009C0005F914F913F912F910F900FBE0F901F900D
:1009D00018951F920F920FB60F9211242F933F93E9
:1009E0004F935F936F937F938F939F93AF93BF9337
:1009F000EF93FF9380919E0090919F00892B29F0A7
:100A0000E0919E00F0919F000995FF91EF91BF91B9
:100A1000AF919F918F917F916F915F914F913F9196
:100A20002F910F900FBE0F901F9018951F920F924D
:100A30000FB60F9211242F933F934F935F936F93B1
:100A40007F938F939F93AF93BF93EF93FF93809187
:100A5000940090919500892B29F0E0919400F091F9
:100A600095000995FF91EF91BF91AF919F918F9163
:100A70007F916F915F914F913F912F910F900FBE9A
:100A80000F901F9018951F920F920FB60F9211247E
:100A90002F933F934F935F936F937F938F939F9386
:100AA000AF93BF93EF93FF9380919600909197003F
:100AB000892B29F0E0919600F09197000995FF911C
:100AC000EF91BF91AF919F918F917F916F915F91C6
:100AD0004F913F912F910F900FBE0F901F9018953F
:100AE0001F920F920FB60F9211242F933F934F93A3
:100AF0005F936F937F938F939F93AF93BF93EF9386
:100B0000FF938091980090919900892B29F0E091B2
:100B10009800F09199000995FF91EF91BF91AF91E5
:100B20009F918F917F916F915F914F913F912F9105
:100B30000F900FBE0F901F9018951F920F920FB637
:100B40000F9211242F933F934F935F936F937F9353
:100B50008F939F93AF93BF93EF93FF9380919C00EC
:100B600090919D00892B29F0E0919C00F0919D00CF
:100B70000995FF91EF91BF91AF919F918F917F91D7
:100B80006F915F914F913F912F910F900FBE0F90FA
:100B90001F90189583B7887F826083BF12BE89B784
:100BA000816089BF1092690210926A0210926B02F2
:100BB00010926C0208958EB5887F83608EBD1DBC37
:100BC0001CBC89B7846089BF089585B5887F84601F
:100BD00085BD14BC89B7806489BF109271021092E0
:100BE00072021092730210927402089580E090E0F5
:100BF000E0E9F0E01182108232960196883091058A
:100C0000C9F70E94CA050E94DB050E94E505789499
:100C100008958FB58D7F8FBD8FB58E7F8FBD8FB5BA
:100C20008F778FBD8FB58F7B8FBD8FB58F7D8FBD3C
:100C30008FB58F7E8FBD089589B78F7E89BF84E081
:100C40000E94610366E976E082E00E94950320E05D
:100C500030E0E6E7F2E062E270E0A5E141E050E07A
:100C600073836283A083CA01022E02C0880F991F7A
:100C70000A94E2F781832F5F3F4F34962530310588
:100C800079F710928B0210928A028AED94E0909389
:100C90008D0280938C022AB58BB59927982F8827CF
:100CA000820F911D86529B4F292F33272BBD8ABD62
:100CB00089B7806189BF089589B78F7E89BF82E037
:100CC0000E9448030895E82FFF27EE0FFF1FEE0F45
:100CD000FF1FEA58FD4F6083477081E090E002C03B
:100CE000880F991F4A95E2F7818308956232710552
:100CF00010F462E270E0E82FFF27EE0FFF1FEE0F07
:100D0000FF1FEA58FD4F6B38710510F06AE870E07C
:100D1000738362830895E82FFF27EE0FFF1FEE0F06
:100D2000FF1FEA58FD4F828193810895CF93DF938F
:100D3000E0917502E53078F4FF27EE0FFF1FEE0F0C
:100D4000FF1FEA58FD4FA081BB27ED0198A18181CB
:100D50008095982398A3809175028F5F8093750288
:100D6000853001F1863010F010927502E091750225
:100D7000FF27EE0FFF1FEE0FFF1FEA58FD4FA08168
:100D8000BB27ED0188A19181892B88A3E091750291
:100D9000FF27EE0FFF1FEE0FFF1FEA58FD4F4281A6
:100DA00053810AC040918C0250918D0280918A0239
:100DB00090918B02481B590B2AB58BB59927982F18
:100DC0008827820F911D840F951F292F33272BBD54
:100DD0008ABD80918A0290918B02840F951F909317
:100DE0008B0280938A0220918C0230918D028217AF
:100DF000930720F010928B0210928A02DF91CF911C
:100E00000895E82FFF27EE0FFF1FEE0FFF1FEA5890
:100E1000FD4F228133818FEF90E0AC01249FC00110
:100E2000259F900D349F900D11248E5D914268E6B0
:100E300070E00E94110FCB0199270895282F88E6B2
:100E4000689FC00111246FEF70E00E94110F6E5D6A
:100E50007F4F6232710510F462E270E0E22FFF27EB
:100E6000EE0FFF1FEE0FFF1FEA58FD4F6B387105A5
:100E700010F06AE870E073836283089589B9892F5E
:100E8000992780BD82E08BB988EB8AB986E880BD5E
:100E900008951F93182F8EE892E00E94470E019745
:100EA00019F08FEF9FEF04C01CB9559A80E090E0D5
:100EB0001F9108951F93182F8EE892E00E94D60D7F
:100EC0001CB9559A80E090E01F91089580E992E066
:100ED0000E94470E019719F08FEF9FEF08958CB194
:100EE000579A9927089580E992E00E94D60D8CB117
:100EF000579A992708950E94EA0C5798789480E9A8
:100F000092E00E94ED0D0E94360D0E94EA0C559869
:100F100078948EE892E00E94ED0D0E94360DFC015F
:100F200088279927E89421912223F1F02032D9F3E0
:100F30002930C9F32A30B9F32C30A9F32D3099F3B5
:100F4000263789F32B3219F02D3221F46894219140
:100F5000222351F0203344F02A3334F420530E94EA
:100F6000C307820F911DF3CF8115910521F01EF467
:100F70008095909501960895FB01DC0101900D92FA
:100F80000020E1F708957AE0979F902D879F802DAC
:100F9000910D112408950F931F93CF93DF938C012C
:100FA000EB01892B11F4672BC1F16EE070E081E059
:100FB00090E00E94AC0BFC01892B79F180E88383DF
:100FC000209771F0D387C28781E8838380919F0245
:100FD0009091A002892B21F4F093A002E0939F024C
:100FE00001151105E1F011870087838182608383F9
:100FF0008091A1029091A202892B89F4F093A20220
:10100000E093A1028091A3029091A402892B39F46C
:10101000F093A402E093A30202C0E0E0F0E0CF016D
:10102000DF91CF911F910F910895CF93DF93EC0142
:101030002B81822F992780FF19C086FF0AC02F7B42
:101040002B838E819F8101969F838E838A8199272E
:101050002CC082FF12C0E881F9818081482F55277A
:1010600047FD5095882329F420622B838FEF9FEF53
:101070001CC03196F983E88311C0EA85FB85CE0157
:101080000995AC0197FF0AC08B814F5F5F4F11F448
:1010900090E101C090E2892B8B83E8CF8E819F8104
:1010A00001969F838E83842F9927DF91CF91089596
:1010B0000F931F93CF93DF938C01EB018B819927C3
:1010C00081FF1BC082FF0DC02E813F818C819D81DD
:1010D0002817390764F4E881F9810193F983E883DB
:1010E00006C0E885F985802F0995892B31F48E811A
:1010F0009F8101969F838E8302C00FEF1FEFC8016F
:10110000DF91CF911F910F910895CF93DF93CDB7CA
:10111000DEB722970FB6F894DEBF0FBECDBFE7E073
:10112000F0E0EC0FFD1F61917191FA83E983AF014B
:101130008091A1029091A2020E94D80822960FB637
:10114000F894DEBF0FBECDBFDF91CF910895CF934E
:10115000DF93CDB7DEB722970FB6F894DEBF0FBE90
:10116000CDBFE7E0F0E0EC0FFD1F61917191FA83D4
:10117000E983E091A102F091A202838188608383D8
:1011800049815A818091A1029091A2020E94D808BF
:10119000E091A102F091A2022381277F238322966E
:1011A0000FB6F894DEBF0FBECDBFDF91CF9108958B
:1011B0002F923F924F925F926F927F928F929F9267
:1011C000AF92BF92CF92DF92EF92FF920F931F9355
:1011D000CF93DF93CDB7DEB762970FB6F894DEBF3B
:1011E0000FBECDBF8824992454012C017A8B698BC2
:1011F0003A01FC0117821682838181FD6EC28FEF56
:101200009FEF91C229893A892F5F3F4F3A8B298BF3
:10121000C0FE66C2832D80538A30E0F430E333167B
:1012200041F48D85882329F4C3FC03C0E0E0F1E09C
:101230007BC08AE0FD85F802C0011124380E232D01
:1012400020532D8727FF02C03FE73D87C3FC5AC2CA
:101250002D8458C2C601B3E096958795BA95E1F7FB
:1012600081709070282F882329F08D85882311F4B0
:1012700091E09D87832D992787FD9095E7E6E315FB
:1012800064F1F5E63F160CF065C033E5331609F45A
:101290008FC03315B4F0EBE23E1609F43FC0E315FE
:1012A00044F0F0E23F16F1F123E2321609F012C2E7
:1012B00041C03DE23316D9F1EEE23E1609F00AC212
:1012C0003EC0F3E63F1609F44BC0F3150CF48AC098
:1012D00028E5321609F0FEC1B5C030E7331609F42F
:1012E000ABC033155CF0ECE63E1679F1FFE63F1635
:1012F00091F029E6321609F0EDC174C035E73316D6
:1013000009F4A2C0E8E73E1609F49CC0F3E73F16D3
:1013100009F0E0C12DC028E0288B96C080E190E064
:10132000C82AD92AE0E2F0E0CE2ADF2AEBC120E881
:1013300030E00DC080E490E0C82AD92AE3C1E8E09B
:10134000F0E0CE2ADF2A1D86DDC124E030E0C22A8B
:10135000D32AD8C1AFE38A2E2A94F3E63F2E44C1A4
:10136000F30180802A9422E030E0620E731E3CC1BB
:1013700083010E5F1F4FF301A081B1814D01222334
:1013800051F0FD856F2F772767FD7095CD010E9485
:10139000DF0C888B07C0FD0101900020E9F7319731
:1013A000EA1BE88B2889221A3801E3E73E2E1CC18C
:1013B00083010E5F1F4FF301808191814C01222335
:1013C00041F0FD856F2F772767FD70950E94CA0C4D
:1013D00002C00E94C10C888B2889221A380173E54B
:1013E000372E02C1C2FE08C0F30180819181A28123
:1013F000B38124E030E009C0F30180819181AA2704
:1014000097FDA095BA2F22E030E0620E731E4C01CA
:101410005D01B7FF0CC082E090E0C82AD92AB094E1
:10142000A09490948094811C911CA11CB11CEFEBA2
:10143000FFEFCE22DF2221C020E430E0C22AD32AEF
:1014400068E7362E30E1388BC2FE08C0F301808198
:101450009181A281B38124E030E007C0F301808153
:101460009181AA27BB2722E030E0620E731E4C0157
:101470005D018FEC9FEFC822D92285017401FE0126
:101480003196FF87EE87F8898F2E9924AA24BB24F2
:10149000C801B701A50194010E94250F6A301CF014
:1014A000630D615201C0605DEE85FF856193FF872A
:1014B000EE87C801B701A50194010E94250F7901AB
:1014C0008A01211531054105510511F78824992418
:1014D0005401CE0101964E85481B842EC6018273AD
:1014E0009070892B09F02A94C6FE07C0F889F03164
:1014F00011F482E001C081E0281AC3FE12C08D857C
:10150000282F332727FD3095842F9927821793079B
:101510002CF0E7EFFFEFCE22DF2203C0FD85F41BA6
:10152000FD87C60153E0969587955A95E1F781703E
:101530009070082F882319F02D85221A01C0241AD3
:10154000C60180789170892B69F4822D06C0B201A2
:1015500080E290E00E945808812F182F1150181631
:10156000B4F3212EC1FE04C0B2018DE290E00BC0A5
:10157000C4FE04C0B2018BE290E005C0C5FE05C008
:10158000B20180E290E00E945808C6FE0FC0B2018E
:1015900080E390E00E9458083889303139F4B20174
:1015A000832D992787FD90950E945808D0FE0DC085
:1015B000822D06C0B20180E390E00E945808812F7E
:1015C000182F11501816B4F3212E002369F02D8521
:1015D00006C0B20180E390E00E945808212F122F2C
:1015E00011501216B4F31D87C601880F892F881F6A
:1015F000990B919521E0C22ED12CC822D92280FDD1
:101600000DC0822D06C0B20180E290E00E94580811
:10161000812F182F11501816B4F3212E83E6381697
:1016200041F4B201882D992787FD90950E945808B2
:1016300041C093E7391691F48401FF240AC0F801F0
:1016400081918F01B201992787FD90950E945808DA
:10165000FA9488898195F81691F716C023E5321619
:1016600019F00E851F851FC08401FF2409C0F801F1
:101670008491B20199270E9458080F5F1F4FFA9476
:1016800088898195F81699F7F889FF0DF150F88B44
:10169000480110C0F80182918F01B201992787FD9E
:1016A00090950E945808CE0101960817190791F7E6
:1016B0001F870E87CD2889F0822D06C0B20180E2F7
:1016C00090E00E945808812F182F11501816B4F37B
:1016D000212E03C0B2010E945808CC24DD2412C080
:1016E000F5E23F1641F481E0C82ED12C1D8622245C
:1016F0002AE0288B07C0B201832D992787FD90959A
:101700000E945808F201838183FF04C0E989FA89A5
:10171000349003C0E989FA893080332009F072CD12
:10172000F2018681978162960FB6F894DEBF0FBEF4
:10173000CDBFDF91CF911F910F91FF90EF90DF9080
:10174000CF90BF90AF909F908F907F906F905F9061
:101750004F903F902F9008950F931F93CF93DF9357
:10176000869F8001879F100D969F100D1124C80140
:101770000E94C80BEC01009729F0A80160E070E01E
:101780000E94D50CCE01DF91CF911F910F9108954A
:10179000CF93DF93AC01029710F442E050E0A091A8
:1017A000A702B091A802FD0120E030E0C0E0D0E047
:1017B00020C0808191818417950769F4828193818B
:1017C000209719F09B838A8304C09093A80280938A
:1017D000A702CF0132C04817590738F42115310547
:1017E00019F08217930708F49C01EF010280F3813E
:1017F000E02D3097F1F62115310589F1C901841BDF
:10180000950B049708F4A901E0E0F0E026C08D9163
:101810009C91119782179307E9F44817590779F4B7
:10182000ED018A819B81309719F09383828304C0F4
:101830009093A8028093A702CD01029649C0841B11
:10184000950BFD01E80FF91F4193519302978D937A
:101850009C933AC0FD01A281B3811097C1F680919B
:10186000A5029091A602892B41F480918B00909162
:101870008C009093A6028093A5022091890030915C
:101880008A002115310541F42DB73EB780918D00B6
:1018900090918E00281B390BE091A502F091A602D1
:1018A0002E1B3F0B2417350788F0CA010296281714
:1018B000390760F0CF01840F951F02969093A6021E
:1018C0008093A50241935193CF0102C080E090E044
:1018D000DF91CF910895CF93DF93009709F44EC025
:1018E000EC0122971B821A82A091A702B091A80254
:1018F000109711F140E050E001C0DC01AC17BD07CA
:1019000000F1BB83AA83FE0121913191E20FF31F05
:10191000EA17FB0771F48D919C911197280F391FDD
:101920002E5F3F4F39832883FD01828193819B8302
:101930008A834115510559F4D093A802C093A70298
:101940001DC0FD0182819381AD010097B1F6FA01BE
:10195000D383C28321913191E20FF31FEC17FD076E
:1019600069F488819981280F391F2E5F3F4FFA0152
:10197000318320838A819B8193838283DF91CF91FE
:101980000895FC0105900020E9F7809590958E0F51
:101990009F1F0895FC010590615070400110D8F719
:1019A000809590958E0F9F1F0895DC0140FF03C026
:1019B00001C06D936D9342505040D8F70895FC01DB
:1019C0006150704001900110D8F7809590958E0F6E
:1019D0009F1F0895DF93CF93BF93AF939F93D2E060
:1019E000C4E99FB7AE81AF5FAE8360F0AA81BB81CF
:1019F000BA2B41F4CDB7DEB7FE81EF812996CDBF7A
:101A0000DEBF09948F937F936F935F934F933F93C0
:101A10002F931F930F93FF92EF92DF92CF92BF927B
:101A2000AF929F928F927F926F925F924F923F926E
:101A30002F921F920F929F93CDB7DEB79B8D39A146
:101A400048A1E8A3F9A370F0F2E0E4E9D381C281F0
:101A5000BEB7ADB7BD83AC8324812DBF25812EBF1A
:101A6000CA2FDB2F1124E32FF42F0994EF91EF916C
:101A7000E4E9F2E0F89406810A95068354F4D181F2
:101A8000C081D383C283209639F1BD81AC81ADBFC3
:101A9000BEBF0F900FBE0F901F902F903F904F90A2
:101AA0005F906F907F908F909F90AF90BF90CF90FE
:101AB000DF90EF90FF900F911F912F913F914F91E9
:101AC0005F916F917F918F919F91AF91BF91CF91D6
:101AD000DF91EF91FF91189578948895FDCFFF9154
:101AE000EF918050904011F48DB79EB7809398028B
:101AF00090939902099401D023C0E82FF92F1DD0AB
:101B0000A02D1BD0B02D19D00C9217D00E9240E012
:101B100040E051E24E935A95E9F711970ED0802D8F
:101B20000CD0902D0AD0E82FF92FA483B58303821F
:101B3000A0E6A283418340830895C8953196089515
:101B4000F89448DF7894E82FF92F22812F7D2283A3
:101B500026FF03C02F7B228301D08ACFE82FF92FE5
:101B60003FEF22812073E1F4CF93DF934381C4E9F7
:101B7000D2E02FB7F8943395EC2FFD2FC081D1819F
:101B8000209619F05B814517B0F791838083F92F78
:101B9000E82FD183C083DF91CF91832F2FBF08958A
:101BA000832F2064228308958E5F9F4FE82FF92FA3
:101BB000F894208131812150304019F42083318301
:101BC000189508DFE4E9F2E0738162813CD0E82FE8
:101BD000F92F2BD04DCF8E5F9F4F0CD090919A0252
:101BE0009395892B09F00895F894F4DE789440CF0A
:101BF0008E5F9F4FE82FF92F81E090E02FB7F89488
:101C0000718160818617970728F0808391838FEF19
:101C10002FBF08958FE586179707C8F723D02FBFEA
:101C2000862F972F9BCFE22FF32F208131812050D9
:101C30003040C9F771836083F72FE62F318320830B
:101C40000895F32FE22F208131816217730751F03D
:101C500020503040B1F7089560817181605070402C
:101C600009F408954C2F5D2FC62FD72F79816881F5
:101C700071836083E62FF72F6627688369837D2F42
:101C80006C2FC42FD52F989408958E5F9F4FF92FF6
:101C9000E82F81E090E0F89420813181281B390BF6
:101CA00021F008F08E5F81501895218330831895BC
:101CB00001D07ACF6050704009F48DCFF8948ADE5D
:101CC000789468D0ECE9F2E0F89420919E022A958D
:101CD00020939E027894CE2FDF2FE881F9813096F1
:101CE00059F024813581621B730BA8F7620F731FB3
:101CF000261B370B2483358399838883D92FC82FDC
:101D0000F983E8836C837D833CD0B2CEF894209134
:101D10009E02215020939E02789408F00895CF935C
:101D2000DF93AF93BF93D0919D02C0919C02209608
:101D300021F1FD81EC813197FD83EC83EF2BE9F4F8
:101D4000A881B981B0939D02A0939C02F983E88396
:101D50008A819B818250904031F48E819F817D2FBA
:101D60006C2F2ED003C08C2F9D2F42DF109629F0B0
:101D7000CA2FDB2FFD81EC81E1CFBF91AF91DF91C5
:101D8000CF91F89420919E02239520939E027894FF
:101D900031F60895E82FF92F329602C0F92FE82F77
:101DA000F894408151814150504011F04F5F5F4F96
:101DB000518340831895F8940DDE789401D058CE65
:101DC000F92FE82F32DF14CFE82FF92FF89444DFF2
:101DD000789421F4E9DE82509040F6CFDBDF862F45
:101DE000972F0895629FD001739FF001829FE00DAD
:101DF000F11D649FE00DF11D929FF00D839FF00D8A
:101E0000749FF00D659FF00D9927729FB00DE11D35
:101E1000F91F639FB00DE11DF91FBD01CF01112412
:101E20000895AA1BBB1B51E107C0AA1FBB1FA61721
:101E3000B70710F0A61BB70B881F991F5A95A9F773
:101E400080959095BC01CD010895A1E21A2EAA1BA0
:101E5000BB1BFD010DC0AA1FBB1FEE1FFF1FA2175A
:101E6000B307E407F50720F0A21BB30BE40BF50B57
:101E7000661F771F881F991F1A9469F760957095E0
:101E8000809590959B01AC01BD01CF01089597FB12
:101E9000092E05260ED057FD04D0D7DF0AD0001C2E
:101EA00038F450954095309521953F4F4F4F5F4FF7
:101EB0000895F6F790958095709561957F4F8F4FB7
:061EC0009F4F0895FFCFC3
:101EC600320043616D6572612054696C74205365FC
:101ED60072766F205365743A202564006530006C75
:101EE6000072007400700069000000A90220000062
:00000001FF
