:100000000C9435000C9450000C9450000C9450004B
:100010000C9450000C9450000C9450000C94500020
:100020000C9450000C9450000C9450000C9452000E
:100030000C9450000C9403010C94FD000C9450009F
:100040000C9450000C9450000C9450000C945000F0
:100050000C945000E10072009B000314015A00E26E
:1000600000039A00F901AF00000011241FBECFE584
:10007000D8E0DEBFCDBF10E0A0E6B0E0ECE2FCE0EF
:1000800002C005900D92A036B107D9F711E0A0E6A5
:10009000B0E001C01D92AE32B107E1F70C949F00B1
:1000A0000C9400000E94710380EE82BF0E947205D2
:1000B0000E94BD031FEF05C00E940A05CE010E94E9
:1000C000720481EA90E00E943605EC0180E0C036BF
:1000D000D80731F080E0CB3AD80771F718BAEECFE5
:1000E00018BBECCF19B36AE070E085EA90E00E949B
:1000F0004405C9B3C170C117B1F3C130B9F06BEA9F
:1001000070E081EA90E00E942D058BEA90E00E9469
:100110005B041C2F6AE070E085EA90E00E944405D1
:10012000C9B3C170C117F9F2C13049F760E670E098
:1001300081EA90E00E942D0580E690E0E8CFCFE5CF
:10014000D8E0DEBFCDBF80E090E00E94F60380E8FB
:1001500085BF80EE82BF84E083BF81E089BF8FEFDF
:1001600087BB88BB8BE590E00E94020484E590E0A9
:100170000E94020482E690E00E94020489E190E07D
:100180000E94F6008CE291E00E9474040E94BD037C
:10019000FFCFAF93A0911801A068A0931801AF9171
:1001A00008952091180127FF05C02F7706C02093DE
:1001B000180103C091E08AE180D380911C01089569
:1001C000F0DF2BC08DE029C080E227C0E82FF92F97
:1001D000C895002041F0802DEF93FF931ED0FF9132
:1001E000EF913196F5CF8E2F9F2F089589BD909373
:1001F000400028E92AB92ABD0895559872D286E1AF
:1002000091E07FD3BCC257986CD2ACB1A0931C01D3
:1002100091E08AE176D3579AB2C25D9906C08F9376
:10022000559A86E191E049D38F918CB90895AF92A8
:10023000BF92CF92DF92D82EAA24BB24CC24C0DF59
:1002400021D096F48A3314F4805302C08F7D8753F3
:10025000AA0CBB1CAA0CBB1CAA0CBB1CAA0CBB1C6A
:10026000A80EC394DA9459F76C2D8A2D9B2DDF903C
:10027000CF90BF90AF90089584E0D9CF82E0D7CFE0
:1002800081E0D5CF8F9380911C01E89480335CF09E
:100290008A3344F081343CF0873424F081361CF0FA
:1002A00087360CF468948F9108958F9380911C0188
:1002B000E8948032B9F38D30A9F3F5CF44E0562F9E
:1002C000682F792F660F771F881F660F771F881F8B
:1002D000660F771F881F660F771F881F541734F02B
:1002E0008F70805D8A330CF0895F97DF4A9551F7F4
:1002F000089564E0E3CF62E0E1CF0D0041767258EB
:10030000204D6F6E69746F72205632000D000D0023
:100310004D6F64696679203D206D7B732C657D5B34
:10032000775D5B616161615D000D0044756D7020FA
:1003300020203D20647B732C657D5B775D5B616174
:1003400061615D205B78785D000D0048616C742010
:1003500020203D20685B6F6F6F6F5D000D00537450
:1003600065702020203D20735B6F6F6F6F5D000D07
:1003700000526573756D65203D20725B6F6F6F6F06
:100380005D000D00436F6E746578743D20785B6F7F
:100390006F6F6F5D000D005369676E616C203D20CB
:1003A000695B6F6F6F6F5D000D0043616E63656C1D
:1003B000203D20635B6F6F6F6F5D000D004B696CBC
:1003C0006C54736B3D206B5B6F6F6F6F5D000D0046
:1003D000496E697461736B3D20705B616161615D41
:1003E000000D00517569742020203D2071000D0022
:1003F00000008CE291E078D28AEF92E0E7DE8F5F36
:100400009F4FE82FF92FC8950020C1F720E6422E14
:1004100020E0522E88249924BB24AA246624772421
:10042000D1DE8EE3FADE01D0FBCFCADE8D36C9F015
:100430008436D1F0883649F18337C9F18B36A1F182
:10044000823731F1893669F1833629F1883731F104
:100450008037C1F0813711F08FE3DFCEAF91AF91DC
:10046000089550D0CEF79BC04DD0C82ED92EA6F7F8
:1004700020911C012D3011F03CD076F76C2D7D2D94
:100480008A2D6DC0F9DE46F7BFC128D02EF7CFC246
:1004900025D016F7DCC122D0FEF668C31FD0E6F6E1
:1004A000BCC01CD0CEF620C219D0B6F6A5C216D05C
:1004B0009EF687D2882309F4089584DE882D992D2D
:1004C00018DF88EC94E082CE202D204E6F742053EC
:1004D000757370656E646564210D0000CDDE16F0E5
:1004E000E4DE36F4662311F4882D992D882E992E9A
:1004F0000895C4DE16F0D9DE26F4662309F48A2DA9
:10050000A82E0895E8945CDE2B2D833711F42D7FFF
:1005100003C08536E9F42260B22EAEDE2B2D1EF428
:100520002E7FB22E0CC02E7FB22E30911C01373799
:1005300021F42160B22EA0DE16F0B7DE4EF4662361
:1005400039F0B1FE03C0682E792E02C0482E592E14
:10055000842D952DB1FC862DB1FC972D0895B0FE0C
:1005600003C06E7F80FD8395C62ED72E182E2ADEFF
:100570009D2D8C2DBEDE28DE8BD0B0FC04C0BBDEF2
:1005800081E090E003C0B5DE82E090E0C80ED91EA5
:10059000181A21F0EC2DEF7051F3EDCF0895C82E0D
:1005A000D92E10DE8C2D9D2DA4DE0EDE71D0B0FC78
:1005B000A0DEB0FEA0DE8DE230DEB0FE5FDEB0FC7D
:1005C0005BDE66F476D000DEE1E0F0E0B0FC319670
:1005D000CE0EDF1EEC2DEF7021F3E8CF66DE36F491
:1005E000662381F720911C012D3071F708950D507D
:1005F000494420466C6720507269204672616D65DF
:100600002053520D00523020200052313620000D70
:100610002020202020504320200095E08EEED6DDC3
:10062000882D992D66DED0DDE82DF92D828163DEDF
:10063000CBDDE82DF92D83815EDEC6DDC5DDE82D3D
:10064000F92DC481D5818C2F9D2F53DEBDDDBCDDFE
:100650002196899150DE0ED096E085E010D00AD028
:1006600096E08AE00CD096E08FE0B0DD9991888129
:1006700040DE0895A7DD8C2F9D2F3BDEA5CDA6DDA6
:10068000E0E11E2E899137DE9FDD1A94D9F7089597
:10069000B1FC08C0EC2DFD2D8081B0FE0895918144
:1006A000808108959D2D8C2DB0FE7BD2B0FC88D228
:1006B0000895B1FC08C0EC2DFD2D8083B0FE089597
:1006C000918380830895E92E682F9D2D8C2D8FD2E4
:1006D000B0FE06C08C2D9D2D8F5F9F4F6E2D87D253
:1006E0000895DF93CF93BF93AF939F93D1E0C0E280
:1006F0009FB7AE81AF5FAE8360F0AA81BB81BA2B9A
:1007000041F4CDB7DEB7FE81EF812996CDBFDEBFC4
:1007100009948F937F936F935F934F933F932F939E
:100720001F930F93FF92EF92DF92CF92BF92AF92FF
:100730009F928F927F926F925F924F923F922F92F1
:100740001F920F929F93CDB7DEB79B8D39A148A121
:10075000E8A3F9A370F0F1E0E0E2D381C281BEB773
:10076000ADB7BD83AC8324812DBF25812EBFCA2F99
:10077000DB2F1124E32FF42F0994EF91EF91E0E2A6
:10078000F1E0F89406810A95068354F4D181C08182
:10079000D383C283209639F1BD81AC81ADBFBEBF8A
:1007A0000F900FBE0F901F902F903F904F905F9033
:1007B0006F907F908F909F90AF90BF90CF90DF9081
:1007C000EF90FF900F911F912F913F914F915F916B
:1007D0006F917F918F919F91AF91BF91CF91DF9159
:1007E000EF91FF91189578948895FDCFFF91EF9147
:1007F0008050904011F48DB79EB780932401909360
:100800002501099401D023C0E82FF92F1DD0A02D78
:100810001BD0B02D19D00C9217D00E9240E040E0C2
:1008200051E24E935A95E9F711970ED0802D0CD0D6
:10083000902D0AD0E82FF92FA483B5830382A0E678
:10084000A283418340830895C89531960895F89412
:1008500048DF7894E82FF92F22812F7D228326FF0D
:1008600003C02F7B228301D08ACFE82FF92F3FEFDF
:1008700022812073E1F4CF93DF934381C0E2D1E082
:100880002FB7F8943395EC2FFD2FC081D18120969E
:1008900019F05B814517B0F791838083F92FE82F1A
:1008A000D183C083DF91CF91832F2FBF0895832FF2
:1008B0002064228308958E5F9F4FE82FF92FF894CC
:1008C000208131812150304019F4208331831895E3
:1008D00008DFE0E2F1E0738162813CD0E82FF92F7C
:1008E0002BD04DCF8E5F9F4F0CD0909126019395CA
:1008F000892B09F00895F894F4DE789440CF8E5F48
:100900009F4FE82FF92F81E090E02FB7F894718185
:1009100060818617970728F0808391838FEF2FBF20
:1009200008958FE586179707C8F723D02FBF862F26
:10093000972F9BCFE22FF32F208131812050304021
:10094000C9F771836083F72FE62F318320830895E1
:10095000F32FE22F208131816217730751F020506D
:100960003040B1F70895608171816050704009F4A2
:1009700008954C2F5D2FC62FD72F79816881718301
:100980006083E62FF72F6627688369837D2F6C2F9E
:10099000C42FD52F98940895F894A3DE7894F92F56
:1009A000E82FA281A6FF1DC0A068A283E0E2F1E0CB
:1009B000B181A08191838083F92FE82FB183A08337
:1009C0000EC0F8948EDE7894F92FE82FA281A6FF4E
:1009D00009C0AF79A28349DFA281A062A28380E02F
:1009E00001C081E08A8FCBCEF8947BDE7894909121
:1009F00023018091220103C0F89473DE7894F92FCB
:100A0000E82FA0E1A283792F682FF1E0E0E2F894CB
:100A1000A1DFB5CEF894FECFF89463DE7894F09120
:100A20002301E0912201228125FD09C0A8CEF8947E
:100A300058DE7894F92FE82F2281206222837F2FBD
:100A40006E2FF1E0E0E2F89485DFC22FD32F2096DD
:100A500019F0EA81E064EA8392CEF89442DE789459
:100A600001D08DCEF92FE82F67DF49CFE82FF92F7E
:100A7000F89479DF789421F41EDF82509040F6CF0D
:100A8000C4D0862F972F089501D015CF60507040A5
:100A900009F428CFF89425DE7894B7D0E8E2F1E0A5
:100AA000F89420912A012A9520932A017894CE2F38
:100AB000DF2FE881F981309659F024813581621B5E
:100AC000730BA8F7620F731F261B370B2483358324
:100AD00099838883D92FC82FF983E8836C837D831A
:100AE0003CD04DCEF89420912A01215020932A0128
:100AF000789408F00895CF93DF93AF93BF93D0918C
:100B00002901C0912801209621F1FD81EC813197C6
:100B1000FD83EC83EF2BE9F4A881B981B09329011F
:100B2000A0932801F983E8838A819B8182509040B9
:100B300031F48E819F817D2F6C2F94DF03C08C2F29
:100B40009D2FDDDE109629F0CA2FDB2FFD81EC8171
:100B5000E1CFBF91AF91DF91CF91F89420912A011D
:100B6000239520932A01789431F60895F894B9DDFD
:100B70007894C5DE6A8D7B8DE8E2F1E0F894EADED8
:100B80002050304059F0C62FD72F6C817D81958140
:100B90008481860F971F84839583F1CD2A8F3B8FA5
:100BA000EECD682F792F91E08CE287DEE199FECFC0
:100BB0006EBB7FBBE09A0DB20F9296DE8F910895C7
:100BC000682F792F91E08CE278DEE199FECF6EBB41
:100BD0007FBBE09A0DB20F926F5F7F4F6EBB7FBB02
:100BE000E09A0DB20F9280DE9F918F910895462F6B
:100BF000682F792F91E08CE260DEE199FECF6EBB29
:100C00007FBB4DBBE29AE19A6FCEE82FF92F329667
:100C100002C0F92FE82FF894408151814150504093
:0C0C200011F04F5F5F4F51834083189527
:00000001FF
