:100000000C945A010C9475010C9475010C947501B3
:100010000C9407080C9413070C94DA070C948007CF
:100020000C94AD070C94E6060C9453070C949306BD
:100030000C9475010C9405030C9475010C94CE027C
:100040000C94C1080C9475010C9475010C94750105
:100050000C947501303132333435363738394142FA
:100060004344454600000001000800200040008095
:100070000000010004000001000800400000010031
:10008000041B63001B5B324A001B5B25646D001B75
:100090005B3F32356C001B5B3F323568001B5B25D4
:1000A000643B25644800636F6D6D616E64206E6F04
:1000B0007420666F756E6400636D646C696E653A7A
:1000C0002000636D643E0045786974656420707239
:1000D0006F6772616D210D0A000D0A57656C636FC1
:1000E0006D6520746F2074686520436F6D6D616E5F
:1000F00064204C696E65205465737420537569746F
:1001000065210D0A0064756D706172677333202D6F
:100110002064756D707320636F6D6D616E64206116
:100120007267756D656E74732061732068657820E1
:10013000696E7465676572730D0A0064756D706130
:1001400072677332202D2064756D707320636F6D3C
:100150006D616E6420617267756D656E7473206188
:100160007320646563696D616C20696E7465676591
:1001700072730D0A0064756D706172677331202DA2
:100180002064756D707320636F6D6D616E642061A6
:100190007267756D656E7473206173207374726914
:1001A0006E67730D0A0068656C7020202020202087
:1001B0002D20646973706C61797320617661696C5C
:1001C00061626C6520636F6D6D616E64730D0A0012
:1001D000417661696C61626C6520636F6D6D616E03
:1001E0006473206172653A0D0A00417267333A20E8
:1001F00000417267323A2000417267313A20004173
:100200007267303A200044756D7020617267756DB9
:10021000656E747320617320737472696E67730DF9
:100220000A004172673320617320696E743A2000BE
:100230004172673220617320696E743A2000417206
:10024000673120617320696E743A200044756D70C7
:1002500020617267756D656E747320617320696EBD
:100260007465676572730D0A0041726733206173AC
:10027000206865783A2000417267322061732068F7
:1002800065783A2000417267312061732068657893
:100290003A200044756D7020617267756D656E74EB
:1002A000732061732068657820696E746567657274
:1002B000730D0A0011241FBECFE5D8E0DEBFCDBF0D
:1002C00010E0A0E6B0E0E6E9FEE102C005900D9284
:1002D000A838B107D9F712E0A8E8B0E001C01D9234
:1002E000A239B107E1F70C943A0C0C940000FC0120
:1002F0008FB7F89471836083538342831782168289
:10030000158214828FBF0895CF93DF93DC014FB71E
:10031000F894EC018C819D81892B11F4E0E01CC0E4
:10032000FD0186819781ED91FC911197E80FF91FEE
:10033000E0810196ED019F838E832A813B818217A4
:10034000930720F0821B930B9F838E83ED018C819A
:100350009D8101979D838C834FBF8E2F9927DF91BD
:10036000CF910895FC014FB7F89484819581681767
:100370007907B0F486819781860F971F97838683CC
:10038000228133818217930720F0821B930B97837E
:10039000868384819581861B970B9583848302C015
:1003A000158214824FBF0895FC019B014FB7F8944A
:1003B0008681978162817381820F931F0E94E70E6D
:1003C0000190F081E02DE80FF91F80814FBF992740
:1003D00008951F93CF93DF93EC01162F4FB7F89436
:1003E0002C813D816A817B8126173707A0F48E819D
:1003F0009F81820F931F0E94E70EE881F981E80F29
:10040000F91F10838C819D8101969D838C834FBF42
:100410008FEF90E003C04FBF80E090E0DF91CF917D
:100420001F910895FC018FB7F8948FBF828193814B
:1004300024813581821B930B0895FC018FB7F894BA
:10044000158214828FBF0895F3E0660F771F881F0F
:10045000991FFA95D1F79B01AC01220F331F441F5E
:10046000551F60507C4D8B409F4F0E94FB0E2150CA
:10047000304029B9232F332720BD089540E450E0B0
:100480006AEC70E089EC91E00E94770140E450E072
:100490006AE870E082ED91E00E94770108950E9481
:1004A0003E02109289001092880088ED8AB960E8B7
:1004B00075E280E090E00E9424028FEF8093C801F3
:1004C0001092D1011092DB011092DA017894089514
:1004D0009093890080938800089589EC91E00895B5
:1004E00082ED91E00895982F8091C8018823E1F36F
:1004F0009CB91092C8010895CF93DF93EC018091CD
:10050000CB019091CC01892B71F08091CD0190911C
:10051000CE01892B41F089EC91E00E94840188830F
:100520008FEF90E002C080E090E0DF91CF910895DE
:10053000CF93DF93CDB7DEB721970FB6F894DEBF28
:100540000FBECDBFCE0101960E947C02882319F414
:100550008FEF9FEF02C08981992721960FB6F894FB
:10056000DEBF0FBECDBFDF91CF9108951092CE01B7
:100570001092CD0108958091CD019091CE01892BEB
:1005800019F48FEF90E0089580E090E00895682FCF
:1005900082ED91E00E94E901992708951F920F9240
:1005A0000FB60F9211242F933F934F935F936F9346
:1005B0007F938F939F93AF93BF93EF93FF9380911C
:1005C000D101882371F08091D6019091D701892BB8
:1005D00031F082ED91E00E9484018CB905C0109247
:1005E000D1018FEF8093C801FF91EF91BF91AF913F
:1005F0009F918F917F916F915F914F913F912F913B
:100600000F900FBE0F901F9018951F920F920FB66C
:100610000F9211242F933F934F935F936F937F9388
:100620008F939F93AF93BF93EF93FF936CB18091A0
:10063000880090918900892B39F0E0918800F09131
:100640008900862F09950FC089EC91E00E94E9018D
:10065000882349F48091DA019091DB01019690930F
:10066000DB018093DA01FF91EF91BF91AF919F91F0
:100670008F917F916F915F914F913F912F910F904B
:100680000FBE0F901F9018958FEF8093D10182EDD0
:1006900091E00E948401982F8091C8018823E1F3A2
:1006A0009CB91092C801089590930B0180930A01A0
:1006B00008951F93182F8A3031F4E0910A01F091C8
:1006C0000B018DE00995E0910A01F0910B01812F5A
:1006D00009951F910895CF93DF93EC01892B21F4A5
:1006E00006C021960E94590388818823D1F7DF91A3
:1006F000CF910895EF92FF920F931F93CF93DF93C3
:10070000EC017A01892BD1F020E030E02617370781
:1007100028F489912F5F3F4F8823C1F700E010E054
:100720000AC08881882311F0219601C080E20E94CE
:1007300059030F5F1F4F0E151F0598F3DF91CF91DF
:100740001F910F91FF90EF900895CF93DF93EC01ED
:10075000892B19F407C00E945903FE012196849148
:100760008823C9F7DF91CF9108958AE00E94590349
:100770000895E82FFF27EF70F070EC5AFF4FE491D7
:100780008E2F0E94590308951F93182F82958F7002
:100790000E94B903812F0E94B9031F9108950F93FE
:1007A0001F938C01812F99270E94C403802F0E94E0
:1007B000C4031F910F910895EF92FF920F931F931F
:1007C0007B018C01C801AA27BB270E94CF03C70168
:1007D0000E94CF031F910F91FF90EF9008952F92E9
:1007E0003F924F925F926F927F928F929F92AF92C1
:1007F000BF92CF92DF92EF92FF920F931F93CF930E
:10080000DF93CDB7DEB7A3970FB6F894DEBF0FBE68
:10081000CDBF69A34AA32BA327013801442351F07C
:1008200017FF08C0EE24FF248701E418F508060925
:10083000170902C08301720190E02AA1211191E001
:1008400039A0391A3A9418A2A82EBB24A7FCB09458
:10085000CB2CDB2CC801B701A60195010E94FB0E31
:10086000FB01EF70F070EC5AFF4F64916F8FC8017D
:10087000B701A60195010E94FB0E79018A012FE1C3
:10088000822E912C8C0E9D1E2224319424C0C401F2
:100890000197E114F10401051105C1F04C01C801F3
:1008A000B701A60195010E94FB0EFB01EF70F070ED
:1008B000EC5AFF4F6491F4016083C801B701A601AF
:1008C00095010E94FB0E79018A0104C04C012BA105
:1008D000FC0120832A942314D1F68AA18823A9F04D
:1008E00077FE05C08DE2F40182934F010EC0C40172
:1008F000019714141504160417041CF44C018BE220
:1009000002C04C0180E2F401808310E006C0F401D3
:1009100081914F010E945903115089A181951817A7
:10092000B1F7A3960FB6F894DEBF0FBECDBFDF912F
:10093000CF911F910F91FF90EF90DF90CF90BF90DC
:10094000AF909F908F907F906F905F904F903F906F
:100950002F9008959F92AF92BF92CF92DF92EF9225
:10096000FF920F931F93CF93DF93CDB7DEB72297FC
:100970000FB6F894DEBF0FBECDBF9888C988DA885D
:10098000CE0143969A83898305C0882309F46CC0FD
:100990000E94590396012F5F3F4F992021F0F601E5
:1009A0006901849103C0F60180816901853269F78C
:1009B0002F5F3F4F992021F0F6016901849103C018
:1009C000F601808169018436A1F0883719F08336F9
:1009D000F9F607C060E1A62EB12CE12C50E1F52E0E
:1009E0000FC0E981FA813296FA83E98332978081D8
:1009F000CFCF4AE0A42EB12C30E1E32E37E2F32E24
:100A0000E981FA813296FA83E98312910291843660
:100A1000B1F417FF0DC0109501951F4F8DE20E9494
:100A2000590306C0C7016AE070E00E94E70E7B012F
:100A3000F2E0EF16F10418F00E151F0598F3C80147
:100A4000B7010E94E70ECB010E94B903C801B701AC
:100A50000E94E70E8C01C701B5010E94E70E7B01E1
:100A6000672B09F497CFEBCF80E090E022960FB68A
:100A7000F894DEBF0FBECDBFDF91CF911F910F91D4
:100A8000FF90EF90DF90CF90BF90AF909F90089530
:100A9000039665E070E00E94E70E8827992724E01E
:100AA000660F771F881F991F2A95D1F720E030E045
:100AB00002C02F5F3F4F26173707D8F308958830BD
:100AC00040F4E82FFF27EE0FFF1FE45FFE4F118277
:100AD0001082089593B7987F982B93BF0895109232
:100AE000DC011092DD011092DE011092DF01089509
:100AF0009EB5987F982B9EBD089595B5987F982BAD
:100B000095BD08951092E4011092E5011092E6015E
:100B10001092E7010895E3B7FF27E770F070EE0F3A
:100B2000FF1FEB58FF4F859194910895EEB5FF2775
:100B3000E770F070EE0FFF1FEB58FF4F8591949117
:100B40000895E5B5FF27E770F070EE0FFF1FEB5932
:100B5000FF4F859194910895883040F4E82FFF2746
:100B6000EE0FFF1FE45FFE4F718360830895DF92F5
:100B7000EF92FF920F931F937C01D2B61092E00187
:100B80001092E1011092E2011092E3010E948B05A4
:100B90009C014427552760E074E284EF90E00E94B6
:100BA0001D0F293B8DE8380786E0480780E058078D
:100BB00098F481E1E81687E2F80670F4B701882717
:100BC00099270E94C80E28EE33E040E050E00E94D2
:100BD000FB0E79018A0123C000271127CA01B90140
:100BE00028EE33E040E050E00E94FB0EC801B70160
:100BF0000E94C80E7B018C0112C08091E00190918F
:100C0000E101A091E201B091E30185B78F7885BF42
:100C100085B7806885BF889585B78F7785BF8091B8
:100C2000E0019091E101A091E201B091E30122B7CE
:100C3000BA2FA92F982F8827332744275527822B8F
:100C4000932BA42BB52BA80197012D0D311D411D10
:100C5000511D82179307A407B50778F21F910F91D2
:100C6000FF90EF90DF9008956091DC017091DD01BD
:100C70008091DE019091DF0108956091E40170910F
:100C8000E5018091E6019091E7010895893031F402
:100C90008FB582608FBD8FB58E7F0AC08A3019F400
:100CA0008FB5826002C08FB58D7F8FBD8FB581609B
:100CB0008FBD1BBC1ABC19BC18BC08952FB52E7F64
:100CC0002FBD2FB522602FBD2EB528602EBD2EB5AD
:100CD00020612EBD97BD86BD1BBC1ABC19BC18BCBB
:100CE00008958FB58F778FBD8FB58F7B8FBD08959A
:100CF0008FB58F7D8FBD8FB58F7E8FBD08958FB5DA
:100D000080688FBD8FB58F7B8FBD08958FB5806252
:100D10008FBD8FB58F7E8FBD08959BBD8ABD089511
:100D200099BD88BD08951F920F920FB60F9211249E
:100D30002F933F934F935F936F937F938F939F93E3
:100D4000AF93BF93EF93FF938091DC019091DD010E
:100D5000A091DE01B091DF010196A11DB11D80932C
:100D6000DC019093DD01A093DE01B093DF0180915F
:100D7000E0019091E101A091E201B091E3010196BF
:100D8000A11DB11D8093E0019093E101A093E201C8
:100D9000B093E30180910C0190910D01892B29F012
:100DA000E0910C01F0910D010995FF91EF91BF9138
:100DB000AF919F918F917F916F915F914F913F91F3
:100DC0002F910F900FBE0F901F9018951F920F92AA
:100DD0000FB60F9211242F933F934F935F936F930E
:100DE0007F938F939F93AF93BF93EF93FF938091E4
:100DF0000E0190910F01892B29F0E0910E01F091E5
:100E00000F010995FF91EF91BF91AF919F918F9144
:100E10007F916F915F914F913F912F910F900FBEF6
:100E20000F901F9018951F920F920FB60F921124DA
:100E30002F933F934F935F936F937F938F939F93E2
:100E4000AF93BF93EF93FF938091E4019091E501FD
:100E5000A091E601B091E7010196A11DB11D80931B
:100E6000E4019093E501A093E601B093E70180913E
:100E7000160190911701892B29F0E0911601F0914C
:100E800017010995FF91EF91BF91AF919F918F91BC
:100E90007F916F915F914F913F912F910F900FBE76
:100EA0000F901F9018951F920F920FB60F9211245A
:100EB0002F933F934F935F936F937F938F939F9362
:100EC000AF93BF93EF93FF9380911A0190911B0111
:100ED000892B29F0E0911A01F0911B010995FF91EE
:100EE000EF91BF91AF919F918F917F916F915F91A2
:100EF0004F913F912F910F900FBE0F901F9018951B
:100F00001F920F920FB60F9211242F933F934F937E
:100F10005F936F937F938F939F93AF93BF93EF9361
:100F2000FF938091100190911101892B29F0E0919C
:100F30001001F09111010995FF91EF91BF91AF91CF
:100F40009F918F917F916F915F914F913F912F91E1
:100F50000F900FBE0F901F9018951F920F920FB613
:100F60000F9211242F933F934F935F936F937F932F
:100F70008F939F93AF93BF93EF93FF938091120151
:100F800090911301892B29F0E0911201F091130146
:100F90000995FF91EF91BF91AF919F918F917F91B3
:100FA0006F915F914F913F912F910F900FBE0F90D6
:100FB0001F9018951F920F920FB60F9211242F9326
:100FC0003F934F935F936F937F938F939F93AF93D1
:100FD000BF93EF93FF938091140190911501892B9A
:100FE00029F0E0911401F09115010995FF91EF911D
:100FF000BF91AF919F918F917F916F915F914F9131
:101000003F912F910F900FBE0F901F9018951F9238
:101010000F920FB60F9211242F933F934F935F932C
:101020006F937F938F939F93AF93BF93EF93FF93B0
:101030008091180190911901892B29F0E0911801F4
:10104000F09119010995FF91EF91BF91AF919F9197
:101050008F917F916F915F914F913F912F910F9061
:101060000FBE0F901F90189583B7887F826083BF53
:1010700012BE89B7816089BF1092DC011092DD0138
:101080001092DE011092DF0108958EB5887F836093
:101090008EBD1DBC1CBC89B7846089BF089585B511
:1010A000887F846085BD14BC89B7806489BF109235
:1010B000E4011092E5011092E6011092E701089513
:1010C00080E090E0ECE0F1E011821082329601962F
:1010D00088309105C9F70E9434080E9445080E9493
:1010E0004F08789408958FB58D7F8FBD8FB58E7F13
:1010F0008FBD8FB58F778FBD8FB58F7B8FBD8FB530
:101100008F7D8FBD8FB58F7E8FBD089596B1987FEF
:10111000982B96B9089597B19F738295880F880F81
:10112000807C982B97B9089533983798089597B194
:10113000907E8F71982B97B90895349A369A0895B6
:1011400086B199278074907008951092E80197B144
:10115000907E8F71982B97B9349A369A3699FECF34
:1011600084B125B199273327322F2227822B932B45
:1011700008950E94A5089695879596958795992735
:1011800008951F920F920FB60F9211248F938FEF35
:101190008093E8018F910F900FBE0F901F901895CC
:1011A000379A359886B1887F866086B981E00E943B
:1011B0008B083D98339A1092E8017894089581E85D
:1011C00090E00E94A503089584E890E00E94A503A2
:1011D000089599279F938F9389E890E09F938F9329
:1011E00081E08F930E94AA040F900F900F900F90B0
:1011F0000F900895882319F086E990E002C08FE8E7
:1012000090E09F938F9381E08F930E94AA040F90A8
:101210000F900F90089577277F936F9399279F934F
:101220008F938DE990E09F938F9381E08F930E943D
:10123000AA048DB79EB707960FB6F8949EBF0FBE4F
:101240008DBF08951092ED011092E9011092EE0108
:101250001092EB011092EA011092EC0108950F93A5
:101260001F93AC018B018091EC012FE0829FC001A4
:101270001124BA018E5C9E4F0E94B30E8091EC0146
:10128000E82FFF27EE0FFF1FE25EFE4F1183008362
:101290008F5F8093EC011F910F91089590931D0132
:1012A00080931C010895CF93DF93C2ECD0E008C077
:1012B0002196F9018491E0911C01F0911D0109959D
:1012C0009E01FE018491882399F7DF91CF910895C3
:1012D0000F931F93CF93DF93E0911C01F0911D01B9
:1012E0008DE009950E9453090091E901CFEED1E00C
:1012F00010E007C0E0911C01F0911D018991099552
:101300001150802F81951817A9F7DF91CF911F9168
:101310000F9108950F931F93882319F0813011F5D1
:101320000BC08091EF018823E9F06FEE71E08FE34D
:1013300092E00E94B30E16C00FEE11E06FE372E070
:10134000C8010E94B30EF80101900020E9F78F0157
:10135000015010400F5E11400093E9010093EE012F
:101360000E9468091F910F910895CF93DF93C8EBF6
:10137000D0E008C02196F9018491E0911C01F09120
:101380001D0109959E01FE018491882399F7CFEEF6
:10139000D1E006C02196E0911C01F0911D01099554
:1013A0008881882311F08032A9F7E0911C01F09127
:1013B0001D018AE30995E0911C01F0911D0180E275
:1013C0000995C6EAD0E005C02196FA018491F90199
:1013D0000995AE01FE01849120911C0130911D01FF
:1013E000882391F78DE0F9010995E0911C01F091B6
:1013F0001D018AE00995DF91CF910895FF920F9327
:101400001F93CF93DF9380E00E948A0980E090E0F1
:10141000082FE82FFF27E151FE4FE081E03219F05D
:101420000196EE23A9F7002331F1F090EC01C0E022
:10143000D0E01CC0E12FFF27EE0FFF1FE25EFE4F42
:10144000808191819093EB018093EA0116C02196EF
:10145000402F55278FE0189FC00111246FEE71E0D7
:101460008E5C9E4F0E94BA0E892B21F31C2FCF1544
:1014700070F30E94B5090E945309DF91CF911F912B
:101480000F91FF9008951F93182F8091ED018230E6
:1014900009F03FC0123461F0133418F41134B1F57F
:1014A00005C0133449F0143489F521C081E001C02E
:1014B00082E00E948A092AC09091EE018091E901A0
:1014C000E0911C01F0911D019817F0F49F5F90933B
:1014D000EE018BE10995E0911C01F0911D018BE576
:1014E0000995E0911C01F0911D0183E40EC08091EB
:1014F000EE01E0911C01F0911D01882329F081503B
:101500008093EE0188E001C087E009951092ED011B
:10151000DAC0813021F41B3511F482E0D2C0109280
:10152000ED01812F80528F3508F044C02091EE01EB
:10153000E091E9012E17B1F4E0911C01F0911D0139
:10154000812F09958091EE01E82FFF27E151FE4F91
:1015500010838F5F8093EE018091E9018F5F80930C
:10156000E901B1C09E2F9F5F9093E90108C0E92F68
:10157000FF27E151FE4F82913196808391502917C8
:10158000B0F3E22FFF27E151FE4F10832F5F20932E
:10159000EE010E9468091091EE0107C0E0911C0164
:1015A000F0911D0188E009951F5F8091E9011817EE
:1015B000A8F389C01D3011F5E0911C01F0911D01C7
:1015C0008DE00995E0911C01F0911D018AE00995DB
:1015D0008091E901E82FFF27E151FE4F10828F5FD4
:1015E0008093E9018091EE018F5F8093EE010E946C
:1015F000FE091092E9011092EE0165C0183009F061
:101600005BC0E091EE01EE2309F44FC08091E90147
:10161000E817E9F4E0911C01F0911D0188E00995BB
:10162000E0911C01F0911D0180E20995E0911C01FF
:10163000F0911D0188E009958091E9018150809326
:10164000E9018091EE0181508093EE013CC0282F8A
:1016500021502093E9019E2F91509093EE0107C0F5
:10166000E92FFF27E151FE4F818180839F5F921711
:10167000B8F30E946809E0911C01F0911D0180E21D
:1016800009951091EE0107C0E0911C01F0911D0138
:1016900088E009951F5F212F33278091E901992761
:1016A00001962817390784F30EC0E0911C01F091D0
:1016B0001D0187E0099507C01F3729F01B3119F478
:1016C00081E08093ED011F910895E091EA01F0918E
:1016D000EB01309739F009951092EB011092EA0175
:1016E0000E9453090895482F20E030E0922F2F5F89
:1016F0003F4FE92FFF27E151FE4F80818032B1F348
:1017000020E030E014C09F5FE92FFF27E151FE4F3A
:10171000E081EE2319F0E032B1F79F5FE92FFF2758
:10172000E151FE4F80818032C1F32F5F3F4F24177C
:1017300058F3892F992781519E4F0895CF93DF93B6
:10174000CDB7DEB722970FB6F894DEBF0FBECDBF80
:101750000E94730B4AE050E0BE016F5F7F4F0E9412
:10176000880D22960FB6F894DEBF0FBECDBFDF9175
:10177000CF910895CF93DF93CDB7DEB722970FB601
:10178000F894DEBF0FBECDBF0E94730B40E150E066
:10179000BE016F5F7F4F0E94880D22960FB6F894AE
:1017A000DEBF0FBECDBFDF91CF910895CF93DF9302
:1017B000CDB7DEB721970FB6F894DEBF0FBECDBF11
:1017C0000E94E40860E081E00E940B0989ED90E04E
:1017D0000E94A5030E94220983E792E00E944E091D
:1017E0006EE57CE080E690E00E942F0961E67CE0F7
:1017F00085E690E00E942F0964E97CE08AE690E0AB
:101800000E942F0960ED7CE084E790E00E942F09A0
:101810006CE27DE08EE790E00E942F098DE00E944F
:10182000430A8FEF80938F020BC089810E94430A85
:10183000CE0101960E947C028823B9F70E94650BB5
:1018400080918F028823A1F70E94B50387EC90E076
:101850009F938F9381E08F930E94AA040F900F9023
:101860000F9021960FB6F894DEBF0FBECDBFDF916B
:10187000CF910895CFE5D8E0DEBFCDBF0E944F02E3
:1018800060E071EE80E090E00E94240283E792E045
:101890000E9454030E94D0080E9460080E94DF0842
:1018A0001FE017BB18BA84E690E00E94B70518BB8A
:1018B0000E94D60B80E090E00C944A0F10928F02A9
:1018C00008951F930E94B50380ED91E09F938F933D
:1018D00011E01F930E94AA0486EA91E09F938F93E0
:1018E0001F930E94AA0485E791E09F938F931F9313
:1018F0000E94AA048BE391E09F938F931F930E9411
:10190000AA0485E091E09F938F931F930E94AA04FD
:101910000E94B5038DB79EB70F960FB6F8949EBF81
:101920000FBE8DBF1F9108950E94B50386E092E01F
:101930009F938F9381E08F930E94AA048FEF91E091
:101940000E94A50380E00E94730B0E946B030E941B
:10195000B50388EF91E00E94A50381E00E94730B1C
:101960000E946B030E94B50381EF91E00E94A503E2
:1019700082E00E94730B0E946B030E94B5038AEE03
:1019800091E00E94A50383E00E94730B0E946B0309
:101990000E94B5030E94B5030F900F900F90089519
:1019A000DF92EF92FF920F931F930E94B5038CE496
:1019B00092E09F938F9381E0D82EDF920E94AA0439
:1019C0008EE392E09F938F93DF920E94AA0481E0BE
:1019D0000E949E0B7B018C0120E24FEF6AE08AE0BF
:1019E0000E94EF030E94B50380E392E09F938F93E0
:1019F000DF920E94AA0482E00E949E0B7B018C0170
:101A000020E24FEF6AE08AE00E94EF030E94B503F4
:101A100082E292E09F938F93DF920E94AA0483E078
:101A20000E949E0B7B018C0120E24FEF6AE08AE06E
:101A30000E94EF030E94B5030E94B5038DB79EB7C5
:101A40000C960FB6F8949EBF0FBE8DBF1F910F91DD
:101A5000FF90EF90DF900895DF92EF92FF920F9347
:101A60001F930E94B50383E992E09F938F9391E0C7
:101A7000D92EDF920E94AA0485E892E09F938F936B
:101A8000DF920E94AA0481E00E94BA0B7B018C01C4
:101A900020E240E068E080E10E94EF030E94B5038D
:101AA00087E792E09F938F93DF920E94AA0482E0DF
:101AB0000E94BA0B7B018C0120E240E068E080E1EB
:101AC0000E94EF030E94B50389E692E09F938F93F3
:101AD000DF920E94AA0483E00E94BA0B7B018C0172
:101AE00020E240E068E080E10E94EF030E94B5033D
:101AF0000E94B5038DB79EB70C960FB6F8949EBFA3
:101B00000FBE8DBF1F910F91FF90EF90DF90089552
:101B10002F923F924F925F926F927F928F929F92FD
:101B2000AF92BF92DF92EF92FF920F931F93CF93EA
:101B3000DF937C011B018A016115710519F0FB011E
:101B4000918380830115110549F0C801029783979D
:101B500028F060E070E080E090E0F3C0E701D99009
:101B60008D2D99270E94380F892B11F07E01F6CF19
:101B7000FDE2DF1631F4D880E701229661E0E62E1F
:101B800007C08BE2D81619F4D880E7012296EE241C
:101B90000115110519F000311105C1F4E0E3DE165D
:101BA00061F48881883711F0883539F4D98022961C
:101BB000F2E0EF2A00E110E029C00115110531F42F
:101BC00080E3D81649F10AE010E017C0083011058B
:101BD00029F10930110524F40230110529F507C057
:101BE0000A30110551F000311105F1F40FC0812CBC
:101BF000912CA12C50E4B52E24C04CEC842E4CEC3E
:101C0000942E4CECA42E4CE0B42E1BC0812C912CB5
:101C1000A12C38E0B32E15C008E010E0812C912CE7
:101C2000A12C20E1B22E0DC09801442737FD40952C
:101C3000542F60E070E080E090E80E94FB0E4901C4
:101C40005A0120E030E040E050E060E028016624E6
:101C500057FC6094762C8D2D80538A3010F4F82E2A
:101C60000EC08D2D81548A3118F499ECF92E06C0DE
:101C70008D2D81568A3140F589EAF82EFD0C8F2D85
:101C800099278017910704F567FD1CC082169306FB
:101C9000A406B506B0F0CA01B901A30192010E94E1
:101CA000C80E9B01AC012F0D311D411D511D21306E
:101CB000E0E03E07E0E04E07E0E85E0710F461E098
:101CC00001C06FEFD990C7CF2114310471F06623A2
:101CD00029F02197F101D183C08307C0E1FE19C02B
:101CE0002297F101D183C08314C067FF12C0E0FEC8
:101CF00005C020E030E040E050E804C02FEF3FEFA7
:101D00004FEF5FE782E290E0909391028093900220
:101D100016C0E0FE08C050954095309521953F4F84
:101D20004F4F5F4F0CC057FF0AC082E290E0909384
:101D30009102809390022FEF3FEF4FEF5FE7CA01D0
:101D4000B901DF91CF911F910F91FF90EF90DF903C
:101D5000BF90AF909F908F907F906F905F904F90CB
:101D60003F902F900895FB01DC0101900D9200201F
:101D7000E1F70895FB01DC014150504030F08D91B6
:101D80000190801919F40020B9F7881B990B089568
:101D9000629FD001739FF001829FE00DF11D649F4F
:101DA000E00DF11D929FF00D839FF00D749FF00DDB
:101DB000659FF00D9927729FB00DE11DF91F639F7C
:101DC000B00DE11DF91FBD01CF0111240895AA1B1B
:101DD000BB1B51E107C0AA1FBB1FA617B70710F016
:101DE000A61BB70B881F991F5A95A9F78095909548
:101DF000BC01CD010895A1E21A2EAA1BBB1BFD0157
:101E00000DC0AA1FBB1FEE1FFF1FA217B307E407D9
:101E1000F50720F0A21BB30BE40BF50B661F771F31
:101E2000881F991F1A9469F7609570958095909511
:101E30009B01AC01BD01CF01089597FB092E05263A
:101E40000ED057FD04D0D7DF0AD0001C38F45095CF
:101E50004095309521953F4F4F4F5F4F0895F6F7CE
:101E600090958095709561957F4F8F4F9F4F089506
:101E700091110DC0803251F08A3041F08C3031F038
:101E80008D3021F0893011F08B3099F70895992722
:061E900088270895FFCF32
:101E9600657869740068656C700064756D70617250
:101EA6006773310064756D706172677332006475B3
:081EB6006D7061726773330067
:00000001FF
