:100000000C9474010C948F010C948F010C948F014B
:100010000C9421080C942D070C94F4070C949A0767
:100020000C94C7070C9400070C946D070C94AD0654
:100030000C948F010C941F030C948F010C94E80214
:100040000C94DB080C948F010C948F010C94540BCE
:100050000C948F01303132333435363738394142E0
:100060004344454600000001000800200040008095
:100070000000010004000001000800400000010031
:10008000041B63001B5B324A001B5B25646D001B75
:100090005B3F32356C001B5B3F323568001B5B25D4
:1000A000643B25644800453A55432C0000004578E0
:1000B000697465642070726F6772616D210D0A004A
:1000C00074696D6573207468726F756768210D0AB5
:1000D000000D0A57656C636F6D6520746F2074683E
:1000E0006520436F6D6D616E64204C696E652054B0
:1000F000657374205375697465210D0A0064756D0C
:10010000706172677333202D2064756D7073206386
:100110006F6D6D616E6420617267756D656E74736D
:100120002061732068657820696E746567657273F5
:100130000D0A0064756D706172677332202D206442
:10014000756D707320636F6D6D616E642061726791
:10015000756D656E747320617320646563696D618C
:100160006C20696E7465676572730D0A0064756D45
:10017000706172677331202D2064756D7073206318
:100180006F6D6D616E6420617267756D656E7473FD
:1001900020617320737472696E67730D0A0068655D
:1001A0006C702020202020202D20646973706C61E9
:1001B000797320617661696C61626C6520636F6D33
:1001C0006D616E64730D0A00417661696C61626CE9
:1001D0006520636F6D6D616E6473206172653A0DA9
:1001E0000A00417267333A2000417267323A2000B8
:1001F000417267313A2000417267303A20004475FD
:100200006D7020617267756D656E74732061732007
:10021000737472696E67730D0A00417267332061EF
:100220007320696E743A2000417267322061732036
:10023000696E743A20004172673120617320696EE3
:10024000743A200044756D7020617267756D656E3B
:10025000747320617320696E7465676572730D0A2B
:100260000041726733206173206865783A2000414D
:10027000726732206173206865783A2000417267A6
:1002800031206173206865783A200044756D7020D4
:10029000617267756D656E7473206173206865782F
:1002A00020696E7465676572730D0A002A2A2A2A0E
:1002B0002A2A2A2A2A2A2A2A2A2A2A2A2A2A2A2A9E
:1002C0002A2A706F77657275702A2A2A2A2A2A2AA2
:1002D0002A2A2A2A2A2A2A2A2A2A2A2A2A2A2A2A7E
:1002E0002A2A002C002C000011241FBECFE5D8E0E4
:1002F000DEBFCDBF10E0A0E6B0E0E0E4F9E202C06E
:1003000005900D92AC3BB107D9F713E0ACEBB0E030
:1003100001C01D92A435B107E1F70C9440110C9473
:100320000000FC018FB7F89471836083538342838C
:1003300017821682158214828FBF0895CF93DF93A0
:10034000DC014FB7F894EC018C819D81892B11F46D
:10035000E0E01CC0FD0186819781ED91FC91119731
:10036000E80FF91FE0810196ED019F838E832A81BA
:100370003B818217930720F0821B930B9F838E8310
:10038000ED018C819D8101979D838C834FBF8E2FC2
:100390009927DF91CF910895FC014FB7F89484819C
:1003A000958168177907B0F486819781860F971F2A
:1003B00097838683228133818217930720F0821BE3
:1003C000930B9783868384819581861B970B9583F6
:1003D000848302C0158214824FBF0895FC019B01E3
:1003E0004FB7F8948681978162817381820F931F42
:1003F0000E9429140190F081E02DE80FF91F8081FF
:100400004FBF992708951F93CF93DF93EC01162FC9
:100410004FB7F8942C813D816A817B81261737077D
:10042000A0F48E819F81820F931F0E942914E8817E
:10043000F981E80FF91F10838C819D8101969D83BE
:100440008C834FBF8FEF90E003C04FBF80E090E000
:10045000DF91CF911F910895FC018FB7F8948FBF62
:100460008281938124813581821B930B0895FC0145
:100470008FB7F894158214828FBF0895F3E0660F4A
:10048000771F881F991FFA95D1F79B01AC01220FA6
:10049000331F441F551F60507C4D8B409F4F0E945F
:1004A00050142150304029B9232F332720BD0895FF
:1004B00040E450E06EEF70E08EE692E00E94910121
:1004C00040E450E06EEB70E087E792E00E9491011B
:1004D00008950E9458021092BD001092BC0088ED51
:1004E0008AB960E875E280E090E00E943E028FEFFA
:1004F00080936D02109276021092800210927F0219
:10050000789408959093BD008093BC0008958EE682
:1005100092E0089587E792E00895982F80916D0208
:100520008823E1F39CB910926D020895CF93DF9375
:10053000EC018091700290917102892B71F0809191
:10054000720290917302892B41F08EE692E00E9434
:100550009E0188838FEF90E002C080E090E0DF9101
:10056000CF910895CF93DF93CDB7DEB721970FB624
:10057000F894DEBF0FBECDBFCE0101960E94960259
:10058000882319F48FEF9FEF02C089819927219664
:100590000FB6F894DEBF0FBECDBFDF91CF910895A7
:1005A00010927302109272020895809172029091DB
:1005B0007302892B19F48FEF90E0089580E090E0AA
:1005C0000895682F87E792E00E9403029927089513
:1005D0001F920F920FB60F9211242F933F934F93B8
:1005E0005F936F937F938F939F93AF93BF93EF939B
:1005F000FF9380917602882371F080917B02909125
:100600007C02892B31F087E792E00E949E018CB931
:1006100005C0109276028FEF80936D02FF91EF91EB
:10062000BF91AF919F918F917F916F915F914F910A
:100630003F912F910F900FBE0F901F9018951F9212
:100640000F920FB60F9211242F933F934F935F9306
:100650006F937F938F939F93AF93BF93EF93FF938A
:100660006CB18091BC009091BD00892B39F0E09174
:10067000BC00F091BD00862F09950FC08EE692E078
:100680000E940302882349F480917F0290918002A6
:1006900001969093800280937F02FF91EF91BF912A
:1006A000AF919F918F917F916F915F914F913F910A
:1006B0002F910F900FBE0F901F9018958FEF809382
:1006C000760287E792E00E949E01982F80916D024A
:1006D0008823E1F39CB910926D02089590933F0135
:1006E00080933E0108951F93182F8A3031F4E091D2
:1006F0003E01F0913F018DE00995E0913E01F091BE
:100700003F01812F09951F910895CF93DF93EC014D
:10071000892B21F406C021960E94730388818823C7
:10072000D1F7DF91CF910895EF92FF920F931F932E
:10073000CF93DF93EC017A01892BD1F020E030E0F8
:100740002617370728F489912F5F3F4F8823C1F779
:1007500000E010E00AC08881882311F0219601C0D2
:1007600080E20E9473030F5F1F4F0E151F0598F361
:10077000DF91CF911F910F91FF90EF900895CF934C
:10078000DF93EC01892B19F407C00E947303FE016B
:10079000219684918823C9F7DF91CF9108958AE04B
:1007A0000E9473030895E82FFF27EF70F070EC5A52
:1007B000FF4FE4918E2F0E94730308951F93182F0B
:1007C00082958F700E94D303812F0E94D3031F91C3
:1007D00008950F931F938C01812F99270E94DE03A8
:1007E000802F0E94DE031F910F910895EF92FF92D8
:1007F0000F931F937B018C01C801AA27BB270E947E
:10080000E903C7010E94E9031F910F91FF90EF9048
:1008100008952F923F924F925F926F927F928F92A4
:100820009F92AF92BF92CF92DF92EF92FF920F937F
:100830001F93CF93DF93CDB7DEB7A3970FB6F8948E
:10084000DEBF0FBECDBF69A34AA32BA3270138018A
:10085000442351F017FF08C0EE24FF248701E41859
:10086000F5080609170902C08301720190E02AA168
:10087000211191E039A0391A3A9418A2A82EBB246C
:10088000A7FCB094CB2CDB2CC801B701A6019501C5
:100890000E945014FB01EF70F070EC5AFF4F64910E
:1008A0006F8FC801B701A60195010E94501479010C
:1008B0008A012FE1822E912C8C0E9D1E22243194D0
:1008C00024C0C4010197E114F10401051105C1F030
:1008D0004C01C801B701A60195010E945014FB010B
:1008E000EF70F070EC5AFF4F6491F4016083C8011F
:1008F000B701A60195010E94501479018A0104C034
:100900004C012BA1FC0120832A942314D1F68AA147
:100910008823A9F077FE05C08DE2F40182934F0190
:100920000EC0C401019714141504160417041CF416
:100930004C018BE202C04C0180E2F401808310E0A4
:1009400006C0F40181914F010E947303115089A1E7
:1009500081951817B1F7A3960FB6F894DEBF0FBEB6
:10096000CDBFDF91CF911F910F91FF90EF90DF905E
:10097000CF90BF90AF909F908F907F906F905F903F
:100980004F903F902F9008959F92AF92BF92CF9239
:10099000DF92EF92FF920F931F93CF93DF93CDB728
:1009A000DEB722970FB6F894DEBF0FBECDBF988892
:1009B000C988DA88CE0143969A83898305C0882343
:1009C00009F46CC00E94730396012F5F3F4F99207A
:1009D00021F0F6016901849103C0F601808169016B
:1009E000853269F72F5F3F4F992021F0F6016901A9
:1009F000849103C0F601808169018436A1F08837B3
:100A000019F08336F9F607C060E1A62EB12CE12C6F
:100A100050E1F52E0FC0E981FA813296FA83E9831D
:100A200032978081CFCF4AE0A42EB12C30E1E32E63
:100A300037E2F32EE981FA813296FA83E983129143
:100A400002918436B1F417FF0DC0109501951F4F28
:100A50008DE20E94730306C0C7016AE070E00E9445
:100A600029147B01F2E0EF16F10418F00E151F05B2
:100A700098F3C801B7010E942914CB010E94D30347
:100A8000C801B7010E9429148C01C701B5010E9459
:100A900029147B01672B09F497CFEBCF80E090E01E
:100AA00022960FB6F894DEBF0FBECDBFDF91CF9177
:100AB0001F910F91FF90EF90DF90CF90BF90AF907C
:100AC0009F900895039665E070E00E94291488279E
:100AD000992724E0660F771F881F991F2A95D1F761
:100AE00020E030E002C02F5F3F4F26173707D8F3D2
:100AF0000895883040F4E82FFF27EE0FFF1FE05CD9
:100B0000FE4F11821082089593B7987F982B93BF60
:100B10000895109281021092820210928302109224
:100B2000840208959EB5987F982B9EBD089595B533
:100B3000987F982B95BD08951092890210928A0291
:100B400010928B0210928C020895E3B7FF27E77092
:100B5000F070EE0FFF1FEB58FF4F859194910895B1
:100B6000EEB5FF27E770F070EE0FFF1FEB58FF4F59
:100B7000859194910895E5B5FF27E770F070EE0F29
:100B8000FF1FEB59FF4F859194910895883040F4F1
:100B9000E82FFF27EE0FFF1FE05CFE4F718360839D
:100BA0000895DF92EF92FF920F931F937C01D2B6CC
:100BB000109285021092860210928702109288028B
:100BC0000E94A5059C014427552760E074E284EF4C
:100BD00090E00E947214293B8DE8380786E04807B0
:100BE00080E0580798F481E1E81687E2F80670F48F
:100BF000B701882799270E940A1428EE33E040E0C5
:100C000050E00E94501479018A0123C00027112767
:100C1000CA01B90128EE33E040E050E00E945014D0
:100C2000C801B7010E940A147B018C0112C0809197
:100C3000850290918602A0918702B091880285B7C3
:100C40008F7885BF85B7806885BF889585B78F7792
:100C500085BF8091850290918602A0918702B09114
:100C6000880222B7BA2FA92F982F88273327442725
:100C70005527822B932BA42BB52BA80197012D0D63
:100C8000311D411D511D82179307A407B50778F246
:100C90001F910F91FF90EF90DF9008956091810276
:100CA00070918202809183029091840208956091F4
:100CB000890270918A0280918B0290918C02089532
:100CC000893031F48FB582608FBD8FB58E7F0AC0B9
:100CD0008A3019F48FB5826002C08FB58D7F8FBDC9
:100CE0008FB581608FBD1BBC1ABC19BC18BC0895A0
:100CF0002FB52E7F2FBD2FB522602FBD2EB52860BA
:100D00002EBD2EB520612EBD97BD86BD1BBC1ABC65
:100D100019BC18BC08958FB58F778FBD8FB58F7BA9
:100D20008FBD08958FB58F7D8FBD8FB58F7E8FBDA1
:100D300008958FB580688FBD8FB58F7B8FBD089567
:100D40008FB580628FBD8FB58F7E8FBD08959BBD9F
:100D50008ABD089599BD88BD08951F920F920FB660
:100D60000F9211242F933F934F935F936F937F9331
:100D70008F939F93AF93BF93EF93FF9380918102E3
:100D800090918202A0918302B09184020196A11DEC
:100D9000B11D8093810290938202A0938302B0934D
:100DA00084028091850290918602A0918702B09181
:100DB00088020196A11DB11D809385029093860241
:100DC000A0938702B09388028091400190914101E5
:100DD000892B29F0E0914001F09141010995FF91A3
:100DE000EF91BF91AF919F918F917F916F915F91A3
:100DF0004F913F912F910F900FBE0F901F9018951C
:100E00001F920F920FB60F9211242F933F934F937F
:100E10005F936F937F938F939F93AF93BF93EF9362
:100E2000FF938091420190914301892B29F0E09139
:100E30004201F09143010995FF91EF91BF91AF916C
:100E40009F918F917F916F915F914F913F912F91E2
:100E50000F900FBE0F901F9018951F920F920FB614
:100E60000F9211242F933F934F935F936F937F9330
:100E70008F939F93AF93BF93EF93FF9380918902DA
:100E800090918A02A0918B02B0918C020196A11DD3
:100E9000B11D8093890290938A02A0938B02B09334
:100EA0008C0280914A0190914B01892B29F0E091AD
:100EB0004A01F0914B010995FF91EF91BF91AF91DC
:100EC0009F918F917F916F915F914F913F912F9162
:100ED0000F900FBE0F901F9018951F920F920FB694
:100EE0000F9211242F933F934F935F936F937F93B0
:100EF0008F939F93AF93BF93EF93FF9380914E0196
:100F000090914F01892B29F0E0914E01F0914F0112
:100F10000995FF91EF91BF91AF919F918F917F9133
:100F20006F915F914F913F912F910F900FBE0F9056
:100F30001F9018951F920F920FB60F9211242F93A6
:100F40003F934F935F936F937F938F939F93AF9351
:100F5000BF93EF93FF938091440190914501892BBA
:100F600029F0E0914401F09145010995FF91EF913D
:100F7000BF91AF919F918F917F916F915F914F91B1
:100F80003F912F910F900FBE0F901F9018951F92B9
:100F90000F920FB60F9211242F933F934F935F93AD
:100FA0006F937F938F939F93AF93BF93EF93FF9331
:100FB0008091460190914701892B29F0E0914601EB
:100FC000F09147010995FF91EF91BF91AF919F91EA
:100FD0008F917F916F915F914F913F912F910F90E2
:100FE0000FBE0F901F9018951F920F920FB60F9281
:100FF00011242F933F934F935F936F937F938F931E
:101000009F93AF93BF93EF93FF938091480190918B
:101010004901892B29F0E0914801F0914901099596
:10102000FF91EF91BF91AF919F918F917F916F91C0
:101030005F914F913F912F910F900FBE0F901F9096
:1010400018951F920F920FB60F9211242F933F9372
:101050004F935F936F937F938F939F93AF93BF93C0
:10106000EF93FF9380914C0190914D01892B29F0D2
:10107000E0914C01F0914D010995FF91EF91BF91E5
:10108000AF919F918F917F916F915F914F913F9120
:101090002F910F900FBE0F901F90189583B7887FE8
:1010A000826083BF12BE89B7816089BF10928102BE
:1010B00010928202109283021092840208958EB5DB
:1010C000887F83608EBD1DBC1CBC89B7846089BFCE
:1010D000089585B5887F846085BD14BC89B7806418
:1010E00089BF1092890210928A0210928B0210928C
:1010F0008C02089580E090E0E0E4F1E0118210823B
:101100003296019688309105C9F70E944E080E94D8
:101110005F080E946908789408958FB58D7F8FBD10
:101120008FB58E7F8FBD8FB58F778FBD8FB58F7B3E
:101130008FBD8FB58F7D8FBD8FB58F7E8FBD08958D
:1011400096B1987F982B96B9089597B19F73829521
:10115000880F880F807C982B97B90895339837981B
:10116000089597B1907E8F71982B97B90895349A0E
:10117000369A089586B199278074907008951092D8
:101180008D0297B1907E8F71982B97B9349A369AC9
:101190003699FECF84B125B199273327322F2227E4
:1011A000822B932B08950E94BF089695879596955C
:1011B0008795992708951F920F920FB60F921124C9
:1011C0008F938FEF80938D028F910F900FBE0F90B2
:1011D0001F901895379A359886B1887F866086B9B2
:1011E00081E00E94A5083D98339A10928D02789470
:1011F000089581E890E00E94BF03089584E890E09C
:101200000E94BF03089599279F938F9389E890E0E8
:101210009F938F9381E08F930E94C4040F900F904F
:101220000F900F900F900895882319F086E990E0B1
:1012300002C08FE890E09F938F9381E08F930E948C
:10124000C4040F900F900F90089577277F936F93AA
:1012500099279F938F938DE990E09F938F9381E0DF
:101260008F930E94C4048DB79EB707960FB6F8946B
:101270009EBF0FBE8DBF089589B78F7E89BF84E062
:101280000E94920567EC79E082E00E94C60520E0AA
:1012900030E068E270E0A5E141E050E0EFE8F2E024
:1012A00073836283A083CA01022E02C0880F991F34
:1012B0000A94E2F781832F5F3F4F34962530310542
:1012C00079F71092A4021092A3028EEF94E090930B
:1012D000A6028093A5022AB58BB59927982F882757
:1012E000820F911D82509B4F292F33272BBD8ABD22
:1012F00089B7806189BF089589B78F7E89BF82E0F1
:101300000E9479050895E82FFF27EE0FFF1FEE0FCB
:10131000FF1FE157FD4F6083477081E090E002C0FE
:10132000880F991F4A95E2F7818308956832710505
:1013300010F468E270E06F38710510F06EE870E04C
:10134000F894E82FFF27EE0FFF1FEE0FFF1FE15766
:10135000FD4F7383628378940895282F86E6689FF3
:10136000C00111246FEF70E00E942914685D7F4F67
:10137000822F0E9496090895E82FFF27EE0FFF1F86
:10138000EE0FFF1FE157FD4F828193810895CF93A8
:10139000DF93F894A0918E02A53090F4BB27AA0F9A
:1013A000BB1FAA0FBB1FA157BD4F8C91C82FDD27B4
:1013B000EC91FF2790A1FD0181818095982398A34E
:1013C00080918E028F5F80938E02853019F1863076
:1013D00010F010928E02A0918E02BB27AA0FBB1FA5
:1013E000AA0FBB1FA157BD4F8C91C82FDD27EC91D1
:1013F000FF2780A1FD019181892B88A3E0918E02B6
:10140000FF27EE0FFF1FEE0FFF1FE157FD4F428139
:1014100053810AC04091A5025091A6028091A30277
:101420009091A402481B590B2AB58BB59927982F88
:101430008827820F911D840F951F292F33272BBDDD
:101440008ABD8091A3029091A402840F951F90936E
:10145000A4028093A3022091A5023091A6028217D4
:10146000930720F01092A4021092A3027894DF91C7
:10147000CF910895E82FF894FF27EE0FFF1FEE0F8E
:10148000FF1FE157FD4F228133818FEF90E0AC01C8
:10149000249FC001259F900D349F900D1124885DDD
:1014A000974266E670E00E942914CB0199270895BF
:1014B000089809989C014427552760E87EE380E05E
:1014C00090E00E947214203140F0822F99274097BB
:1014D00062E070E00E943D14262F20B90895A89A7A
:1014E000A99A909A919A10925301109252011092D7
:1014F00051011092500184E690E00E94580A86B78C
:10150000846086BF10929A011092990186B781601B
:1015100086BF86B7806486BF789408958E7F90E0FA
:10152000611191E0892B82B90895909353018093C2
:10153000520108959093510180935001089586B708
:101540008F70806A86BF089586B78F70806D86BF62
:10155000089506B607FEFDCF089583B986B78F704C
:10156000806886BF0895882321F086B78F70806CCD
:1015700003C086B78F70806886BF089583B19927AE
:10158000089581B1992708958091990190919A01C8
:101590000895282FDA018091990190919A01892B61
:1015A000D1F782E090E090939A01809399012E7F89
:1015B0002093980120E030E007C08D91FF27E85884
:1015C000FE4F80832F5F3F4FE22F2617B0F310921C
:1015D00077016093760186B78F70806A86BF089521
:1015E000282FDA018091990190919A01892BD1F7E6
:1015F00083E090E090939A01809399012160209379
:101600009801109255016093540186B78F70806ADB
:1016100086BF8091990190919A01892BD1F720E0A2
:1016200030E007C0FF27EA5AFE4F80818D932F5F7D
:101630003F4FE22F2617B0F30895982FFA0186B78F
:101640008E7F86BF86B78F70806A86BF06B607FE1C
:10165000FDCF9E7F93B986B78F70806886BF06B630
:1016600007FEFDCF81B1883111F091E010C090E00C
:1016700061950AC0819183B986B78F70806886BFF3
:1016800006B607FEFDCF91509617A1F790E086B7FA
:101690008F70806D86BF06B604FEFDCF86B7816071
:1016A00086BF892F992708951F920F920FB60F9228
:1016B00011242F933F934F935F936F937F938F9357
:1016C0009F93AF93BF93EF93FF9381B1887F803651
:1016D00009F49FC0813670F5883209F45FC0893201
:1016E00098F4803109F457C0813138F4882309F423
:1016F000E8C0883009F0EDC04EC0883109F44EC012
:10170000803209F0E6C0DDC0803409F477C081344E
:1017100038F4803309F4D5C0883309F0DAC05FC0EB
:10172000803509F460C0883509F44DC0883409F06B
:10173000D0C0C7C0883909F484C08939B0F488376B
:1017400009F467C0893738F4883609F462C08037F5
:1017500009F0BFC05EC0883809F473C0803909F44D
:1017600061C0803809F0B5C05DC0803B09F47DC020
:10177000813B38F4803A09F468C0883A09F0A9C07E
:1017800074C0803C09F499C0883C09F496C0883B39
:1017900009F09FC07EC0809198010FC090917701A1
:1017A00080917601981708F08CC0E92FFF27E85840
:1017B000FE4F80819F5F9093770183B986B78F70CA
:1017C000806886BF86C08091550193B1E82FFF27BE
:1017D000EA5AFE4F90838F5F8093550172C086B79F
:1017E0008F70806871C08091550193B1E82FFF27F9
:1017F000EA5AFE4F90838F5F8093550120915501E7
:101800003327809154019927019728173907BCF095
:1018100018C085E090E090939A018093990110920E
:10182000550147C08091550193B1E82FFF27EA5A2F
:10183000FE4F90838F5F80935501803210F48FEFBD
:1018400001C080E00E94B30A44C086B78F70806CEC
:1018500086BFE0915201F09153013097B1F166E5F6
:1018600071E080915501099530C084E090E090933B
:101870009A0180939901E0915001F09151013097C4
:1018800031F068E771E080E209958093760110926B
:10189000770190917701E92FFF27E858FE4F80816B
:1018A00083B99F5F9093770180917601981708F034
:1018B00085CF86B78F70806C84CF86B78F70806C31
:1018C00003C086B78F70806D86BF10929A01109208
:1018D0009901FF91EF91BF91AF919F918F917F916E
:1018E0006F915F914F913F912F910F900FBE0F908D
:1018F0001F9018951F93CF93DF93982F162FEA010F
:1019000086B78E7F86BF86B78F70806A86BF06B621
:1019100007FEFDCF916093B986B78F70806886BF50
:1019200006B607FEFDCF81B1803459F091E014C0B6
:101930008FEF0E94B30A06B607FEFDCF83B18993ED
:1019400011501230A8F780E00E94B30A06B607FED5
:10195000FDCF83B1888390E086B78F70806D86BF9E
:1019600086B7816086BF892F9927DF91CF911F911C
:1019700008951092AB021092A7021092AC0210923E
:10198000A9021092A8021092AA0208950F931F9321
:10199000AC018B018091AA022FE0829FC00111242B
:1019A000BA018B549E4F0E94F5138091AA02E82F32
:1019B000FF27EE0FFF1FE356FE4F118300838F5F5B
:1019C0008093AA021F910F91089590939C01809398
:1019D0009B010895CF93DF93CDEAD0E008C0219614
:1019E000F9018491E0919B01F0919C0109959E0180
:1019F000FE018491882399F7DF91CF9108950F9389
:101A00001F93CF93DF93E0919B01F0919C018DE0B8
:101A100009950E94EA0C0091A702CDEAD2E010E0FD
:101A200007C0E0919B01F0919C01899109951150AB
:101A3000802F81951817A9F7DF91CF911F910F91F2
:101A400008950F931F93882319F0813011F50BC06F
:101A50008091AD028823E9F06DEA72E08DEF92E0AB
:101A60000E94F51316C00DEA12E06DEF72E0C80196
:101A70000E94F513F80101900020E9F78F01015051
:101A800010400D5A12400093A7020093AC020E942E
:101A9000FF0C1F910F910895CF93DF93CCEAD0E014
:101AA00008C02196F9018491E0919B01F0919C017D
:101AB00009959E01FE018491882399F7CDEAD2E031
:101AC00006C02196E0919B01F0919C0109958881C7
:101AD000882311F08032A9F7E0919B01F0919C01DD
:101AE0008AE30995E0919B01F0919C0180E20995C0
:101AF000C6EAD0E005C02196FA018491F901099562
:101B0000AE01FE01849120919B0130919C018823BC
:101B100091F78DE0F9010995E0919B01F0919C010D
:101B20008AE00995DF91CF910895FF920F931F935B
:101B3000CF93DF9380E00E94210D80E090E0082F9A
:101B4000E82FFF27E355FD4FE081E03219F00196C1
:101B5000EE23A9F7002331F1F090AA02C0E0D0E013
:101B60001CC0E12FFF27EE0FFF1FE356FE4F8081C1
:101B700091819093A9028093A80216C02196402FCC
:101B800055278FE0189FC00111246DEA72E08B5435
:101B90009E4F0E94FC13892B21F31C2FCF1570F34D
:101BA0000E944C0D0E94EA0CDF91CF911F910F9182
:101BB000FF9008951F93382F8091AB02823009F077
:101BC0003FC0323461F0333418F43134B1F505C01C
:101BD000333449F0343489F521C081E001C082E01A
:101BE0000E94210D2AC09091AC028091A702E09141
:101BF0009B01F0919C019817F0F49F5F9093AC02C9
:101C00008BE10995E0919B01F0919C018BE5099591
:101C1000E0919B01F0919C0183E40EC08091AC02A5
:101C2000E0919B01F0919C01882329F081508093E1
:101C3000AC0288E001C087E009951092AB02C3C0F6
:101C4000813021F43B3511F482E0BBC01092AB022D
:101C5000832F80528F35D0F59091AC02E091A7028E
:101C60009E1761F4E92FFF27E355FD4F3083892F3D
:101C70008F5F8093AC028093A702A5C02E2F2F5FA9
:101C80002093A70208C0E22FFF27E355FD4F829162
:101C90003196808321509217B0F3E92FFF27E35547
:101CA000FD4F30839F5F9093AC020E94FF0C109118
:101CB000AC0207C0E0919B01F0919C0188E009957E
:101CC0001F5F8091A7021817A8F37DC03D30B1F4C3
:101CD0008091A702E82FFF27E355FD4F10828F5F09
:101CE0008093A7028091AC028F5F8093AC020E9428
:101CF000950D1092A7021092AC0265C0383009F021
:101D00005BC0E091AC02EE2309F44FC08091A702C2
:101D1000E817E9F4E0919B01F0919C0188E00995B6
:101D2000E0919B01F0919C0180E20995E0919B017B
:101D3000F0919C0188E009958091A70281508093E1
:101D4000A7028091AC0281508093AC023CC0282F46
:101D500021502093A7029E2F91509093AC0207C070
:101D6000E92FFF27E355FD4F818180839F5F921705
:101D7000B8F30E94FF0CE0919B01F0919C0180E27E
:101D800009951091AC0207C0E0919B01F0919C0174
:101D900088E009951F5F212F33278091A70299279B
:101DA00001962817390784F30EC0E0919B01F0914A
:101DB0009C0187E0099507C03F3729F03B3119F4B2
:101DC00081E08093AB021F910895E091A802F09109
:101DD000A902309739F009951092A9021092A80231
:101DE0000E94EA0C0895482F20E030E0922F2F5FE8
:101DF0003F4FE92FFF27E355FD4F80818032B1F33C
:101E000020E030E014C09F5FE92FFF27E355FD4F2E
:101E1000E081EE2319F0E032B1F79F5FE92FFF2751
:101E2000E355FD4F80818032C1F32F5F3F4F241770
:101E300058F3892F992783559D4F0895CF93DF93AA
:101E4000CDB7DEB722970FB6F894DEBF0FBECDBF79
:101E50000E94F30E4AE050E0BE016F5F7F4F0E9488
:101E6000CA1222960FB6F894DEBF0FBECDBFDF9127
:101E7000CF910895CF93DF93CDB7DEB722970FB6FA
:101E8000F894DEBF0FBECDBF0E94F30E40E150E0DC
:101E9000BE016F5F7F4F0E94CA1222960FB6F89460
:101EA000DEBF0FBECDBFDF91CF910895EF92FF92BD
:101EB0000F931F93CF93DF93CDB7DEB721970FB664
:101EC000F894DEBF0FBECDBF0E94FE0860E081E047
:101ED0000E94250981ED90E00E94BF030E94B90C89
:101EE0008DE892E00E94E50C65E772E183EA90E0FC
:101EF0000E94C60C6EE772E185EA90E00E94C60C73
:101F000067E872E187EA90E00E94C60C6CE972E132
:101F100089EA90E00E94C60C63EB72E18BEA90E0E4
:101F20000E94C60C60E972E18DEA90E00E94C60C46
:101F30006FED71E18FEA90E00E94C60C61E272E100
:101F400081EB90E00E94C60C6DE370E183EB90E0C2
:101F50000E94C60C69E770E187EB90E00E94C60C16
:101F60008DE00E94DA0D8FEF80934E03EE24FF2464
:101F700087012FC089810E94DA0DCE0101960E944F
:101F800096028823B9F70E94E50E0894E11CF11C23
:101F9000011D111D8091690290916A02A0916B024E
:101FA000B0916C020097A105B10599F0E816F90609
:101FB0000A071B0774F080EC90E09F938F9381E0F9
:101FC0008F930E94C404EE24FF2487010F900F908A
:101FD0000F9080914E03882381F60E94CF038EEAF2
:101FE00090E09F938F9381E08F930E94C4040F90A1
:101FF0000F900F9021960FB6F894DEBF0FBECDBFA5
:10200000DF91CF911F910F91FF90EF900895109263
:102010004E0308951F930E94CF0388EC91E09F9395
:102020008F9311E01F930E94C4048EE991E09F9367
:102030008F931F930E94C4048DE691E09F938F932A
:102040001F930E94C40483E391E09F938F931F9397
:102050000E94C4048DEF90E09F938F931F930E9482
:10206000C4040E94CF038DB79EB70F960FB6F894A5
:102070009EBF0FBE8DBF1F9108950E94CF038EEFAC
:1020800091E09F938F9381E08F930E94C40487EF28
:1020900091E00E94BF0380E00E94F30E0E9485033E
:1020A0000E94CF0380EF91E00E94BF0381E00E9475
:1020B000F30E0E9485030E94CF0389EE91E00E94F7
:1020C000BF0382E00E94F30E0E9485030E94CF03AB
:1020D00082EE91E00E94BF0383E00E94F30E0E9413
:1020E00085030E94CF030E94CF030F900F900F90A3
:1020F0000895DF92EF92FF920F931F930E94CF03F8
:1021000084E492E09F938F9381E0D82EDF920E9427
:10211000C40486E392E09F938F93DF920E94C404ED
:1021200081E00E941E0F7B018C0120E24FEF6AE0EC
:102130008AE00E9409040E94CF0388E292E09F9304
:102140008F93DF920E94C40482E00E941E0F7B01E5
:102150008C0120E24FEF6AE08AE00E9409040E94AD
:10216000CF038AE192E09F938F93DF920E94C40491
:1021700083E00E941E0F7B018C0120E24FEF6AE09A
:102180008AE00E9409040E94CF030E94CF038DB70A
:102190009EB70C960FB6F8949EBF0FBE8DBF1F91D1
:1021A0000F91FF90EF90DF900895DF92EF92FF92F2
:1021B0000F931F930E94CF038BE892E09F938F931E
:1021C00091E0D92EDF920E94C4048DE792E09F93A4
:1021D0008F93DF920E94C40481E00E943A0F7B013A
:1021E0008C0120E240E068E080E10E9409040E9446
:1021F000CF038FE692E09F938F93DF920E94C404F7
:1022000082E00E943A0F7B018C0120E240E068E00E
:1022100080E10E9409040E94CF0381E692E09F932F
:102220008F93DF920E94C40483E00E943A0F7B01E7
:102230008C0120E240E068E080E10E9409040E94F5
:10224000CF030E94CF038DB79EB70C960FB6F894BC
:102250009EBF0FBE8DBF1F910F91FF90EF90DF903B
:1022600008950E946F0A6FEF80EA0E948E0A8AE842
:1022700091E10E94950A8CE991E10E949A0A0895E1
:10228000CFE5D8E0DEBFCDBF0E94690260E071EE0D
:1022900080E090E00E943E028DE892E00E946E0392
:1022A0000E94EA080E947A080E94F90884E690E0F9
:1022B0000E94D1050E9431110E943C0942E065E173
:1022C00080E00E94830943E065E181E00E94830988
:1022D00044E065E182E00E94830945E065E183E036
:1022E0000E94830946E065E184E00E9483098CEF47
:1022F00084BB8CEA92E09F938F9381E08F930E943E
:10230000C4040E94560F0F900F900F9080E090E051
:102310000C949F14982FDB0120E030E007C0FF27CA
:10232000EE57FF4F8D9180832F5F3F4FE22F29178C
:10233000B0F3909381000895C798DB0105C0FF2793
:10234000EE57FF4F80818D93EA2FE61B909181001D
:10235000E917A8F3809182008F5F80938200892F14
:10236000992708950F931F93CF93DF93182F062F6C
:10237000EA0186B78E7F86BF0E949F0A0E94A90A43
:10238000812F8E7F0E94AD0A0E94A90A10E006C02C
:1023900089910E94AD0A0E94A90A1150802F81954F
:1023A0001817B1F70E94A40A06B604FEFDCF86B73F
:1023B000816086BFDF91CF911F910F9108950F9398
:1023C0001F93CF93DF93CDB7DEB764970FB6F89422
:1023D000DEBF0FBECDBF81E00E94F30E8E010F5F06
:1023E0001F4FBC01C8010E94F513A80162E080EAFA
:1023F0000E94C90A64960FB6F894DEBF0FBECDBF27
:10240000DF91CF911F910F910895CF93DF93CDB7B7
:10241000DEB722970FB6F894DEBF0FBECDBF89831B
:102420001A82AE014F5F5F4F62E080EA0E94C90AE4
:1024300022960FB6F894DEBF0FBECDBFDF91CF91CD
:1024400008950F931F93CF93DF93CDB7DEB76497B3
:102450000FB6F894DEBF0FBECDBF81E00E94F30E31
:10246000BC01CE0101960E94F51302E810E0A8011C
:102470006091810080EA0E94F00A10929B00C801DE
:102480000E94850383EE92E09F938F9381E08F9368
:102490000E94C4040F900F900F9064960FB6F894AA
:1024A000DEBF0FBECDBFDF91CF911F910F91089579
:1024B0000F931F9302E810E0A8016091810080EA69
:1024C0000E94F00A10929B00C8010E94850385EECD
:1024D00092E09F938F9381E08F930E94C4040F90AA
:1024E0000F900F901F910F91089581E00E941E0F91
:1024F0006093620084E00E94AD09089581E00E942B
:102500001E0F6093500383E00E94AD09089581E09F
:102510000E941E0F6093510380E00E94AD09089550
:1025200081E00E941E0F6093690270936A0280939B
:102530006B0290936C02089581E00E941E0F63303D
:10254000710580F480914D03860F815080934D0377
:10255000882319F481E080934D0360914D0381E05D
:102560000E94AD09089581E00E941E0F633071053D
:1025700080F480914F03860F815080934F0388230E
:1025800019F481E080934F0360914F0382E00E9431
:10259000AD0908952F923F924F925F926F927F9272
:1025A0008F929F92AF92BF92DF92EF92FF920F9322
:1025B0001F93CF93DF937C011B018A016115710585
:1025C00019F0FB01918380830115110549F0C801C1
:1025D0000297839728F060E070E080E090E0F3C01D
:1025E000E701D9908D2D99270E948D14892B11F028
:1025F0007E01F6CFFDE2DF1631F4D880E7012296A6
:1026000061E0E62E07C08BE2D81619F4D880E70106
:102610002296EE240115110519F000311105C1F4BF
:10262000E0E3DE1661F48881883711F0883539F4EB
:10263000D9802296F2E0EF2A00E110E029C00115CE
:10264000110531F480E3D81649F10AE010E017C013
:102650000830110529F10930110524F40230110563
:1026600029F507C00A30110551F000311105F1F4C8
:102670000FC0812C912CA12C50E4B52E24C04CEC21
:10268000842E4CEC942E4CECA42E4CE0B42E1BC0AB
:10269000812C912CA12C38E0B32E15C008E010E05D
:1026A000812C912CA12C20E1B22E0DC09801442741
:1026B00037FD4095542F60E070E080E090E80E9484
:1026C000501449015A0120E030E040E050E060E061
:1026D0002801662457FC6094762C8D2D80538A3017
:1026E00010F4F82E0EC08D2D81548A3118F499EC17
:1026F000F92E06C08D2D81568A3140F589EAF82ED3
:10270000FD0C8F2D99278017910704F567FD1CC0DC
:1027100082169306A406B506B0F0CA01B901A3015A
:1027200092010E940A149B01AC012F0D311D411D25
:10273000511D2130E0E03E07E0E04E07E0E85E0793
:1027400010F461E001C06FEFD990C7CF21143104BC
:1027500071F0662329F02197F101D183C08307C06E
:10276000E1FE19C02297F101D183C08314C067FF35
:1027700012C0E0FE05C020E030E040E050E804C0B8
:102780002FEF3FEF4FEF5FE782E290E0909353032C
:102790008093520316C0E0FE08C0509540953095D6
:1027A00021953F4F4F4F5F4F0CC057FF0AC082E249
:1027B00090E090935303809352032FEF3FEF4FEF3E
:1027C0005FE7CA01B901DF91CF911F910F91FF908F
:1027D000EF90DF90BF90AF909F908F907F906F9021
:1027E0005F904F903F902F900895FB01DC01019086
:1027F0000D920020E1F70895FB01DC0141505040AB
:1028000030F08D910190801919F40020B9F7881BE0
:10281000990B0895629FD001739FF001829FE00D94
:10282000F11D649FE00DF11D929FF00D839FF00D4F
:10283000749FF00D659FF00D9927729FB00DE11DFB
:10284000F91F639FB00DE11DF91FBD01CF011124D8
:102850000895AA1BBB1B51E107C0AA1FBB1FA617E7
:10286000B70710F0A61BB70B881F991F5A95A9F739
:1028700080959095BC01CD01089597FB092E072600
:102880000AD077FD04D0E5DF06D000201AF4709559
:1028900061957F4F0895F6F7909581959F4F089524
:1028A000A1E21A2EAA1BBB1BFD010DC0AA1FBB1F54
:1028B000EE1FFF1FA217B307E407F50720F0A21BC6
:1028C000B30BE40BF50B661F771F881F991F1A9433
:1028D00069F760957095809590959B01AC01BD015D
:1028E000CF01089597FB092E05260ED057FD04D081
:1028F000D7DF0AD0001C38F45095409530952195CB
:102900003F4F4F4F5F4F0895F6F790958095709524
:1029100061957F4F8F4F9F4F089591110DC0803269
:1029200051F08A3041F08C3031F08D3021F0893017
:1029300011F08B3099F70895992788270895FFCFD4
:102940006400882054686973206F6E652069732065
:10295000746865204D617374657220626F61726482
:10296000002050617363616C20697320636F6F6C2A
:10297000212150617363616C20697320436F6F6C18
:102980002121006C00720074007000690066003242
:0C299000003300646173006461690000A2
:00000001FF
