:100000000C9474010C948F010C948F010C948F014B
:100010000C9421080C942D070C94F4070C949A0767
:100020000C94C7070C9400070C946D070C94AD0654
:100030000C948F010C941F030C948F010C94E80214
:100040000C94DB080C948F010C948F010C94540BCE
:100050000C948F01303132333435363738394142E0
:100060004344454600000001000800200040008095
:100070000000010004000001000800400000010031
:10008000041B63001B5B324A001B5B25646D001B75
:100090005B3F32356C001B5B3F323568001B5B25D4
:1000A000643B25644800453A55432C0000004578E0
:1000B000697465642070726F6772616D210D0A004A
:1000C00074696D6573207468726F756768210D0AB5
:1000D000000D0A57656C636F6D6520746F2074683E
:1000E0006520436F6D6D616E64204C696E652054B0
:1000F000657374205375697465210D0A0064756D0C
:10010000706172677333202D2064756D7073206386
:100110006F6D6D616E6420617267756D656E74736D
:100120002061732068657820696E746567657273F5
:100130000D0A0064756D706172677332202D206442
:10014000756D707320636F6D6D616E642061726791
:10015000756D656E747320617320646563696D618C
:100160006C20696E7465676572730D0A0064756D45
:10017000706172677331202D2064756D7073206318
:100180006F6D6D616E6420617267756D656E7473FD
:1001900020617320737472696E67730D0A0068655D
:1001A0006C702020202020202D20646973706C61E9
:1001B000797320617661696C61626C6520636F6D33
:1001C0006D616E64730D0A00417661696C61626CE9
:1001D0006520636F6D6D616E6473206172653A0DA9
:1001E0000A00417267333A2000417267323A2000B8
:1001F000417267313A2000417267303A20004475FD
:100200006D7020617267756D656E74732061732007
:10021000737472696E67730D0A00417267332061EF
:100220007320696E743A2000417267322061732036
:10023000696E743A20004172673120617320696EE3
:10024000743A200044756D7020617267756D656E3B
:10025000747320617320696E7465676572730D0A2B
:100260000041726733206173206865783A2000414D
:10027000726732206173206865783A2000417267A6
:1002800031206173206865783A200044756D7020D4
:10029000617267756D656E7473206173206865782F
:1002A00020696E7465676572730D0A002A2A2A2A0E
:1002B0002A2A2A2A2A2A2A2A2A2A2A2A2A2A2A2A9E
:1002C0002A2A706F77657275702A2A2A2A2A2A2AA2
:1002D0002A2A2A2A2A2A2A2A2A2A2A2A2A2A2A2A7E
:1002E0002A2A002C002C000011241FBECFE5D8E0E4
:1002F000DEBFCDBF10E0A0E6B0E0EAEEFCE202C057
:1003000005900D92AE3BB107D9F713E0AEEBB0E02C
:1003100001C01D92A436B107E1F70C94C7120C94EA
:100320000000FC018FB7F89471836083538342838C
:1003300017821682158214828FBF0895CF93DF93A0
:10034000DC014FB7F894EC018C819D81892B11F46D
:10035000E0E01CC0FD0186819781ED91FC91119731
:10036000E80FF91FE0810196ED019F838E832A81BA
:100370003B818217930720F0821B930B9F838E8310
:10038000ED018C819D8101979D838C834FBF8E2FC2
:100390009927DF91CF910895FC014FB7F89484819C
:1003A000958168177907B0F486819781860F971F2A
:1003B00097838683228133818217930720F0821BE3
:1003C000930B9783868384819581861B970B9583F6
:1003D000848302C0158214824FBF0895FC019B01E3
:1003E0004FB7F8948681978162817381820F931F42
:1003F0000E94FE150190F081E02DE80FF91F808129
:100400004FBF992708951F93CF93DF93EC01162FC9
:100410004FB7F8942C813D816A817B81261737077D
:10042000A0F48E819F81820F931F0E94FE15E881A8
:10043000F981E80FF91F10838C819D8101969D83BE
:100440008C834FBF8FEF90E003C04FBF80E090E000
:10045000DF91CF911F910895FC018FB7F8948FBF62
:100460008281938124813581821B930B0895FC0145
:100470008FB7F894158214828FBF0895F3E0660F4A
:10048000771F881F991FFA95D1F79B01AC01220FA6
:10049000331F441F551F60507C4D8B409F4F0E945F
:1004A00025162150304029B9232F332720BD089528
:1004B00040E450E060E071E08EE792E00E9491013C
:1004C00040E450E060EC70E087E892E00E94910127
:1004D00008950E9458021092BF001092BE0088ED4D
:1004E0008AB960E875E280E090E00E943E028FEFFA
:1004F00080937D02109286021092900210928F02D9
:10050000789408959093BF008093BE0008958EE77D
:1005100092E0089587E892E00895982F80917D02F7
:100520008823E1F39CB910927D020895CF93DF9365
:10053000EC018091800290918102892B71F0809171
:10054000820290918302892B41F08EE792E00E9413
:100550009E0188838FEF90E002C080E090E0DF9101
:10056000CF910895CF93DF93CDB7DEB721970FB624
:10057000F894DEBF0FBECDBFCE0101960E94960259
:10058000882319F48FEF9FEF02C089819927219664
:100590000FB6F894DEBF0FBECDBFDF91CF910895A7
:1005A00010928302109282020895809182029091AB
:1005B0008302892B19F48FEF90E0089580E090E09A
:1005C0000895682F87E892E00E9403029927089512
:1005D0001F920F920FB60F9211242F933F934F93B8
:1005E0005F936F937F938F939F93AF93BF93EF939B
:1005F000FF9380918602882371F080918B02909105
:100600008C02892B31F087E892E00E949E018CB920
:1006100005C0109286028FEF80937D02FF91EF91CB
:10062000BF91AF919F918F917F916F915F914F910A
:100630003F912F910F900FBE0F901F9018951F9212
:100640000F920FB60F9211242F933F934F935F9306
:100650006F937F938F939F93AF93BF93EF93FF938A
:100660006CB18091BE009091BF00892B39F0E09170
:10067000BE00F091BF00862F09950FC08EE792E073
:100680000E940302882349F480918F029091900286
:1006900001969093900280938F02FF91EF91BF910A
:1006A000AF919F918F917F916F915F914F913F910A
:1006B0002F910F900FBE0F901F9018958FEF809382
:1006C000860287E892E00E949E01982F80917D0229
:1006D0008823E1F39CB910927D0208959093410123
:1006E0008093400108951F93182F8A3031F4E091D0
:1006F0004001F09141018DE00995E0914001F091B8
:100700004101812F09951F910895CF93DF93EC014B
:10071000892B21F406C021960E94730388818823C7
:10072000D1F7DF91CF910895EF92FF920F931F932E
:10073000CF93DF93EC017A01892BD1F020E030E0F8
:100740002617370728F489912F5F3F4F8823C1F779
:1007500000E010E00AC08881882311F0219601C0D2
:1007600080E20E9473030F5F1F4F0E151F0598F361
:10077000DF91CF911F910F91FF90EF900895CF934C
:10078000DF93EC01892B19F407C00E947303FE016B
:10079000219684918823C9F7DF91CF9108958AE04B
:1007A0000E9473030895E82FFF27EF70F070EC5A52
:1007B000FF4FE4918E2F0E94730308951F93182F0B
:1007C00082958F700E94D303812F0E94D3031F91C3
:1007D00008950F931F938C01812F99270E94DE03A8
:1007E000802F0E94DE031F910F910895EF92FF92D8
:1007F0000F931F937B018C01C801AA27BB270E947E
:10080000E903C7010E94E9031F910F91FF90EF9048
:1008100008952F923F924F925F926F927F928F92A4
:100820009F92AF92BF92CF92DF92EF92FF920F937F
:100830001F93CF93DF93CDB7DEB7A3970FB6F8948E
:10084000DEBF0FBECDBF69A34AA32BA3270138018A
:10085000442351F017FF08C0EE24FF248701E41859
:10086000F5080609170902C08301720190E02AA168
:10087000211191E039A0391A3A9418A2A82EBB246C
:10088000A7FCB094CB2CDB2CC801B701A6019501C5
:100890000E942516FB01EF70F070EC5AFF4F649137
:1008A0006F8FC801B701A60195010E942516790135
:1008B0008A012FE1822E912C8C0E9D1E22243194D0
:1008C00024C0C4010197E114F10401051105C1F030
:1008D0004C01C801B701A60195010E942516FB0134
:1008E000EF70F070EC5AFF4F6491F4016083C8011F
:1008F000B701A60195010E94251679018A0104C05D
:100900004C012BA1FC0120832A942314D1F68AA147
:100910008823A9F077FE05C08DE2F40182934F0190
:100920000EC0C401019714141504160417041CF416
:100930004C018BE202C04C0180E2F401808310E0A4
:1009400006C0F40181914F010E947303115089A1E7
:1009500081951817B1F7A3960FB6F894DEBF0FBEB6
:10096000CDBFDF91CF911F910F91FF90EF90DF905E
:10097000CF90BF90AF909F908F907F906F905F903F
:100980004F903F902F9008959F92AF92BF92CF9239
:10099000DF92EF92FF920F931F93CF93DF93CDB728
:1009A000DEB722970FB6F894DEBF0FBECDBF988892
:1009B000C988DA88CE0143969A83898305C0882343
:1009C00009F46CC00E94730396012F5F3F4F99207A
:1009D00021F0F6016901849103C0F601808169016B
:1009E000853269F72F5F3F4F992021F0F6016901A9
:1009F000849103C0F601808169018436A1F08837B3
:100A000019F08336F9F607C060E1A62EB12CE12C6F
:100A100050E1F52E0FC0E981FA813296FA83E9831D
:100A200032978081CFCF4AE0A42EB12C30E1E32E63
:100A300037E2F32EE981FA813296FA83E983129143
:100A400002918436B1F417FF0DC0109501951F4F28
:100A50008DE20E94730306C0C7016AE070E00E9445
:100A6000FE157B01F2E0EF16F10418F00E151F05DC
:100A700098F3C801B7010E94FE15CB010E94D30371
:100A8000C801B7010E94FE158C01C701B5010E9483
:100A9000FE157B01672B09F497CFEBCF80E090E048
:100AA00022960FB6F894DEBF0FBECDBFDF91CF9177
:100AB0001F910F91FF90EF90DF90CF90BF90AF907C
:100AC0009F900895039665E070E00E94FE158827C8
:100AD000992724E0660F771F881F991F2A95D1F761
:100AE00020E030E002C02F5F3F4F26173707D8F3D2
:100AF0000895883040F4E82FFF27EE0FFF1FEE5BCC
:100B0000FE4F11821082089593B7987F982B93BF60
:100B100008951092910210929202109293021092F4
:100B2000940208959EB5987F982B9EBD089595B523
:100B3000987F982B95BD08951092990210929A0271
:100B400010929B0210929C020895E3B7FF27E77072
:100B5000F070EE0FFF1FEB58FF4F859194910895B1
:100B6000EEB5FF27E770F070EE0FFF1FEB58FF4F59
:100B7000859194910895E5B5FF27E770F070EE0F29
:100B8000FF1FEB59FF4F859194910895883040F4F1
:100B9000E82FFF27EE0FFF1FEE5BFE4F7183608390
:100BA0000895DF92EF92FF920F931F937C01D2B6CC
:100BB000109295021092960210929702109298024B
:100BC0000E94A5059C014427552760E074E284EF4C
:100BD00090E00E944716293B8DE8380786E04807D9
:100BE00080E0580798F481E1E81687E2F80670F48F
:100BF000B701882799270E94DF1528EE33E040E0EF
:100C000050E00E94251679018A0123C00027112790
:100C1000CA01B90128EE33E040E050E00E942516F9
:100C2000C801B7010E94DF157B018C0112C08091C1
:100C3000950290919602A0919702B091980285B783
:100C40008F7885BF85B7806885BF889585B78F7792
:100C500085BF8091950290919602A0919702B091E4
:100C6000980222B7BA2FA92F982F88273327442715
:100C70005527822B932BA42BB52BA80197012D0D63
:100C8000311D411D511D82179307A407B50778F246
:100C90001F910F91FF90EF90DF9008956091910266
:100CA00070919202809193029091940208956091C4
:100CB000990270919A0280919B0290919C020895F2
:100CC000893031F48FB582608FBD8FB58E7F0AC0B9
:100CD0008A3019F48FB5826002C08FB58D7F8FBDC9
:100CE0008FB581608FBD1BBC1ABC19BC18BC0895A0
:100CF0002FB52E7F2FBD2FB522602FBD2EB52860BA
:100D00002EBD2EB520612EBD97BD86BD1BBC1ABC65
:100D100019BC18BC08958FB58F778FBD8FB58F7BA9
:100D20008FBD08958FB58F7D8FBD8FB58F7E8FBDA1
:100D300008958FB580688FBD8FB58F7B8FBD089567
:100D40008FB580628FBD8FB58F7E8FBD08959BBD9F
:100D50008ABD089599BD88BD08951F920F920FB660
:100D60000F9211242F933F934F935F936F937F9331
:100D70008F939F93AF93BF93EF93FF9380919102D3
:100D800090919202A0919302B09194020196A11DBC
:100D9000B11D8093910290939202A0939302B0931D
:100DA00094028091950290919602A0919702B09141
:100DB00098020196A11DB11D809395029093960211
:100DC000A0939702B09398028091420190914301C1
:100DD000892B29F0E0914201F09143010995FF919F
:100DE000EF91BF91AF919F918F917F916F915F91A3
:100DF0004F913F912F910F900FBE0F901F9018951C
:100E00001F920F920FB60F9211242F933F934F937F
:100E10005F936F937F938F939F93AF93BF93EF9362
:100E2000FF938091440190914501892B29F0E09135
:100E30004401F09145010995FF91EF91BF91AF9168
:100E40009F918F917F916F915F914F913F912F91E2
:100E50000F900FBE0F901F9018951F920F920FB614
:100E60000F9211242F933F934F935F936F937F9330
:100E70008F939F93AF93BF93EF93FF9380919902CA
:100E800090919A02A0919B02B0919C020196A11DA3
:100E9000B11D8093990290939A02A0939B02B09304
:100EA0009C0280914C0190914D01892B29F0E09199
:100EB0004C01F0914D010995FF91EF91BF91AF91D8
:100EC0009F918F917F916F915F914F913F912F9162
:100ED0000F900FBE0F901F9018951F920F920FB694
:100EE0000F9211242F933F934F935F936F937F93B0
:100EF0008F939F93AF93BF93EF93FF938091500194
:100F000090915101892B29F0E0915001F09151010C
:100F10000995FF91EF91BF91AF919F918F917F9133
:100F20006F915F914F913F912F910F900FBE0F9056
:100F30001F9018951F920F920FB60F9211242F93A6
:100F40003F934F935F936F937F938F939F93AF9351
:100F5000BF93EF93FF938091460190914701892BB6
:100F600029F0E0914601F09147010995FF91EF9139
:100F7000BF91AF919F918F917F916F915F914F91B1
:100F80003F912F910F900FBE0F901F9018951F92B9
:100F90000F920FB60F9211242F933F934F935F93AD
:100FA0006F937F938F939F93AF93BF93EF93FF9331
:100FB0008091480190914901892B29F0E0914801E5
:100FC000F09149010995FF91EF91BF91AF919F91E8
:100FD0008F917F916F915F914F913F912F910F90E2
:100FE0000FBE0F901F9018951F920F920FB60F9281
:100FF00011242F933F934F935F936F937F938F931E
:101000009F93AF93BF93EF93FF9380914A01909189
:101010004B01892B29F0E0914A01F0914B01099590
:10102000FF91EF91BF91AF919F918F917F916F91C0
:101030005F914F913F912F910F900FBE0F901F9096
:1010400018951F920F920FB60F9211242F933F9372
:101050004F935F936F937F938F939F93AF93BF93C0
:10106000EF93FF9380914E0190914F01892B29F0CE
:10107000E0914E01F0914F010995FF91EF91BF91E1
:10108000AF919F918F917F916F915F914F913F9120
:101090002F910F900FBE0F901F90189583B7887FE8
:1010A000826083BF12BE89B7816089BF10929102AE
:1010B00010929202109293021092940208958EB5AB
:1010C000887F83608EBD1DBC1CBC89B7846089BFCE
:1010D000089585B5887F846085BD14BC89B7806418
:1010E00089BF1092990210929A0210929B0210925C
:1010F0009C02089580E090E0E2E4F1E01182108229
:101100003296019688309105C9F70E944E080E94D8
:101110005F080E946908789408958FB58D7F8FBD10
:101120008FB58E7F8FBD8FB58F778FBD8FB58F7B3E
:101130008FBD8FB58F7D8FBD8FB58F7E8FBD08958D
:1011400096B1987F982B96B9089597B19F73829521
:10115000880F880F807C982B97B90895339837981B
:10116000089597B1907E8F71982B97B90895349A0E
:10117000369A089586B199278074907008951092D8
:101180009D0297B1907E8F71982B97B9349A369AB9
:101190003699FECF84B125B199273327322F2227E4
:1011A000822B932B08950E94BF089695879596955C
:1011B0008795992708951F920F920FB60F921124C9
:1011C0008F938FEF80939D028F910F900FBE0F90A2
:1011D0001F901895379A359886B1887F866086B9B2
:1011E00081E00E94A5083D98339A10929D02789460
:1011F000089581E890E00E94BF03089584E890E09C
:101200000E94BF03089599279F938F9389E890E0E8
:101210009F938F9381E08F930E94C4040F900F904F
:101220000F900F900F900895882319F086E990E0B1
:1012300002C08FE890E09F938F9381E08F930E948C
:10124000C4040F900F900F90089577277F936F93AA
:1012500099279F938F938DE990E09F938F9381E0DF
:101260008F930E94C4048DB79EB707960FB6F8946B
:101270009EBF0FBE8DBF089589B78F7E89BF84E062
:101280000E94920567EC79E082E00E94C60520E0AA
:1012900030E068E270E0A5E141E050E0EFE9F2E023
:1012A00073836283A083CA01022E02C0880F991F34
:1012B0000A94E2F781832F5F3F4F34962530310542
:1012C00079F71092B4021092B3028EEF94E09093EB
:1012D000B6028093B5022AB58BB59927982F882737
:1012E000820F911D82509B4F292F33272BBD8ABD22
:1012F00089B7806189BF089589B78F7E89BF82E0F1
:101300000E9479050895E82FFF27EE0FFF1FEE0FCB
:10131000FF1FE156FD4F6083477081E090E002C0FF
:10132000880F991F4A95E2F7818308956832710505
:1013300010F468E270E06F38710510F06EE870E04C
:10134000F894E82FFF27EE0FFF1FEE0FFF1FE15667
:10135000FD4F7383628378940895282F86E6689FF3
:10136000C00111246FEF70E00E94FE15685D7F4F91
:10137000822F0E9496090895E82FFF27EE0FFF1F86
:10138000EE0FFF1FE156FD4F828193810895CF93A9
:10139000DF93F894A0919E02A53090F4BB27AA0F8A
:1013A000BB1FAA0FBB1FA156BD4F8C91C82FDD27B5
:1013B000EC91FF2790A1FD0181818095982398A34E
:1013C00080919E028F5F80939E02853019F1863056
:1013D00010F010929E02A0919E02BB27AA0FBB1F85
:1013E000AA0FBB1FA156BD4F8C91C82FDD27EC91D2
:1013F000FF2780A1FD019181892B88A3E0919E02A6
:10140000FF27EE0FFF1FEE0FFF1FE156FD4F42813A
:1014100053810AC04091B5025091B6028091B30247
:101420009091B402481B590B2AB58BB59927982F78
:101430008827820F911D840F951F292F33272BBDDD
:101440008ABD8091B3029091B402840F951F90934E
:10145000B4028093B3022091B5023091B602821794
:10146000930720F01092B4021092B3027894DF91A7
:10147000CF910895E82FF894FF27EE0FFF1FEE0F8E
:10148000FF1FE156FD4F228133818FEF90E0AC01C9
:10149000249FC001259F900D349F900D1124885DDD
:1014A000974266E670E00E94FE15CB0199270895E9
:1014B000089809989C014427552760E87EE380E05E
:1014C00090E00E944716203140F0822F99274097E4
:1014D00062E070E00E941216262F20B90895A89AA3
:1014E000A99A909A919A10925501109254011092D3
:1014F00053011092520184E690E00E94580A86B788
:10150000846086BF10929C0110929B0186B7816017
:1015100086BF86B7806486BF789408958E7F90E0FA
:10152000611191E0892B82B90895909355018093C0
:10153000540108959093530180935201089586B702
:101540008F70806A86BF089586B78F70806D86BF62
:10155000089506B607FEFDCF089583B986B78F704C
:10156000806886BF0895882321F086B78F70806CCD
:1015700003C086B78F70806886BF089583B19927AE
:10158000089581B19927089580919B0190919C01C4
:101590000895282FDA0180919B0190919C01892B5D
:1015A000D1F782E090E090939C0180939B012E7F85
:1015B00020939A0120E030E007C08D91FF27E65884
:1015C000FE4F80832F5F3F4FE22F2617B0F310921C
:1015D00079016093780186B78F70806A86BF08951D
:1015E000282FDA0180919B0190919C01892BD1F7E2
:1015F00083E090E090939C0180939B012160209375
:101600009A01109257016093560186B78F70806AD5
:1016100086BF80919B0190919C01892BD1F720E09E
:1016200030E007C0FF27E85AFE4F80818D932F5F7F
:101630003F4FE22F2617B0F30895982FFA0186B78F
:101640008E7F86BF86B78F70806A86BF06B607FE1C
:10165000FDCF9E7F93B986B78F70806886BF06B630
:1016600007FEFDCF81B1883111F091E010C090E00C
:1016700061950AC0819183B986B78F70806886BFF3
:1016800006B607FEFDCF91509617A1F790E086B7FA
:101690008F70806D86BF06B604FEFDCF86B7816071
:1016A00086BF892F992708951F920F920FB60F9228
:1016B00011242F933F934F935F936F937F938F9357
:1016C0009F93AF93BF93EF93FF9381B1887F803651
:1016D00009F49FC0813670F5883209F45FC0893201
:1016E00098F4803109F457C0813138F4882309F423
:1016F000E8C0883009F0EDC04EC0883109F44EC012
:10170000803209F0E6C0DDC0803409F477C081344E
:1017100038F4803309F4D5C0883309F0DAC05FC0EB
:10172000803509F460C0883509F44DC0883409F06B
:10173000D0C0C7C0883909F484C08939B0F488376B
:1017400009F467C0893738F4883609F462C08037F5
:1017500009F0BFC05EC0883809F473C0803909F44D
:1017600061C0803809F0B5C05DC0803B09F47DC020
:10177000813B38F4803A09F468C0883A09F0A9C07E
:1017800074C0803C09F499C0883C09F496C0883B39
:1017900009F09FC07EC080919A010FC0909179019D
:1017A00080917801981708F08CC0E92FFF27E65840
:1017B000FE4F80819F5F9093790183B986B78F70C8
:1017C000806886BF86C08091570193B1E82FFF27BC
:1017D000E85AFE4F90838F5F8093570172C086B79F
:1017E0008F70806871C08091570193B1E82FFF27F7
:1017F000E85AFE4F90838F5F8093570120915701E5
:101800003327809156019927019728173907BCF093
:1018100018C085E090E090939C0180939B0110920A
:10182000570147C08091570193B1E82FFF27E85A2D
:10183000FE4F90838F5F80935701803210F48FEFBB
:1018400001C080E00E94B30A44C086B78F70806CEC
:1018500086BFE0915401F09155013097B1F168E5F0
:1018600071E080915701099530C084E090E0909339
:101870009C0180939B01E0915201F09153013097BC
:1018800031F06AE771E080E2099580937801109267
:10189000790190917901E92FFF27E658FE4F808169
:1018A00083B99F5F9093790180917801981708F030
:1018B00085CF86B78F70806C84CF86B78F70806C31
:1018C00003C086B78F70806D86BF10929C01109206
:1018D0009B01FF91EF91BF91AF919F918F917F916C
:1018E0006F915F914F913F912F910F900FBE0F908D
:1018F0001F9018951F93CF93DF93982F162FEA010F
:1019000086B78E7F86BF86B78F70806A86BF06B621
:1019100007FEFDCF916093B986B78F70806886BF50
:1019200006B607FEFDCF81B1803459F091E014C0B6
:101930008FEF0E94B30A06B607FEFDCF83B18993ED
:1019400011501230A8F780E00E94B30A06B607FED5
:10195000FDCF83B1888390E086B78F70806D86BF9E
:1019600086B7816086BF892F9927DF91CF911F911C
:1019700008951092BB021092B7021092BC0210920E
:10198000B9021092B8021092BA0208950F931F93F1
:10199000AC018B018091BA022FE0829FC00111241B
:1019A000BA0189549E4F0E94CA158091BA02E82F4D
:1019B000FF27EE0FFF1FE156FE4F118300838F5F5D
:1019C0008093BA021F910F91089590939E01809386
:1019D0009D010895CF93DF93CDEAD0E008C0219612
:1019E000F9018491E0919D01F0919E0109959E017C
:1019F000FE018491882399F7DF91CF9108950F9389
:101A00001F93CF93DF93E0919D01F0919E018DE0B4
:101A100009950E94EA0C0091B702CDEBD2E010E0EC
:101A200007C0E0919D01F0919E01899109951150A7
:101A3000802F81951817A9F7DF91CF911F910F91F2
:101A400008950F931F93882319F0813011F50BC06F
:101A50008091BD028823E9F06DEB72E08DE093E0A8
:101A60000E94CA1516C00DEB12E06DE073E0C801CC
:101A70000E94CA15F80101900020E9F78F0101507A
:101A800010400D5B12400093B7020093BC020E940D
:101A9000FF0C1F910F910895CF93DF93CCEAD0E014
:101AA00008C02196F9018491E0919D01F0919E0179
:101AB00009959E01FE018491882399F7CDEBD2E030
:101AC00006C02196E0919D01F0919E0109958881C3
:101AD000882311F08032A9F7E0919D01F0919E01D9
:101AE0008AE30995E0919D01F0919E0180E20995BC
:101AF000C6EAD0E005C02196FA018491F901099562
:101B0000AE01FE01849120919D0130919E018823B8
:101B100091F78DE0F9010995E0919D01F0919E0109
:101B20008AE00995DF91CF910895FF920F931F935B
:101B3000CF93DF9380E00E94210D80E090E0082F9A
:101B4000E82FFF27E354FD4FE081E03219F00196C2
:101B5000EE23A9F7002331F1F090BA02C0E0D0E003
:101B60001CC0E12FFF27EE0FFF1FE156FE4F8081C3
:101B700091819093B9028093B80216C02196402FAC
:101B800055278FE0189FC00111246DEB72E0895436
:101B90009E4F0E94D115892B21F31C2FCF1570F376
:101BA0000E944C0D0E94EA0CDF91CF911F910F9182
:101BB000FF9008951F93382F8091BB02823009F067
:101BC0003FC0323461F0333418F43134B1F505C01C
:101BD000333449F0343489F521C081E001C082E01A
:101BE0000E94210D2AC09091BC028091B702E09121
:101BF0009D01F0919E019817F0F49F5F9093BC02B5
:101C00008BE10995E0919D01F0919E018BE509958D
:101C1000E0919D01F0919E0183E40EC08091BC0291
:101C2000E0919D01F0919E01882329F081508093DD
:101C3000BC0288E001C087E009951092BB02C3C0D6
:101C4000813021F43B3511F482E0BBC01092BB021D
:101C5000832F80528F35D0F59091BC02E091B7026E
:101C60009E1761F4E92FFF27E354FD4F3083892F3E
:101C70008F5F8093BC028093B702A5C02E2F2F5F89
:101C80002093B70208C0E22FFF27E354FD4F829153
:101C90003196808321509217B0F3E92FFF27E35448
:101CA000FD4F30839F5F9093BC020E94FF0C109108
:101CB000BC0207C0E0919D01F0919E0188E009956A
:101CC0001F5F8091B7021817A8F37DC03D30B1F4B3
:101CD0008091B702E82FFF27E354FD4F10828F5FFA
:101CE0008093B7028091BC028F5F8093BC020E94F8
:101CF000950D1092B7021092BC0265C0383009F001
:101D00005BC0E091BC02EE2309F44FC08091B702A2
:101D1000E817E9F4E0919D01F0919E0188E00995B2
:101D2000E0919D01F0919E0180E20995E0919D0175
:101D3000F0919E0188E009958091B70281508093CF
:101D4000B7028091BC0281508093BC023CC0282F16
:101D500021502093B7029E2F91509093BC0207C050
:101D6000E92FFF27E354FD4F818180839F5F921706
:101D7000B8F30E94FF0CE0919D01F0919E0180E27A
:101D800009951091BC0207C0E0919D01F0919E0160
:101D900088E009951F5F212F33278091B70299278B
:101DA00001962817390784F30EC0E0919D01F09148
:101DB0009E0187E0099507C03F3729F03B3119F4B0
:101DC00081E08093BB021F910895E091B802F091E9
:101DD000B902309739F009951092B9021092B80201
:101DE0000E94EA0C0895482F20E030E0922F2F5FE8
:101DF0003F4FE92FFF27E354FD4F80818032B1F33D
:101E000020E030E014C09F5FE92FFF27E354FD4F2F
:101E1000E081EE2319F0E032B1F79F5FE92FFF2751
:101E2000E354FD4F80818032C1F32F5F3F4F241771
:101E300058F3892F992783549D4F0895CF93DF93AB
:101E4000CDB7DEB722970FB6F894DEBF0FBECDBF79
:101E50000E94F30E4AE050E0BE016F5F7F4F0E9488
:101E60009F1422960FB6F894DEBF0FBECDBFDF9150
:101E7000CF910895CF93DF93CDB7DEB722970FB6FA
:101E8000F894DEBF0FBECDBF0E94F30E40E150E0DC
:101E9000BE016F5F7F4F0E949F1422960FB6F89489
:101EA000DEBF0FBECDBFDF91CF9108950E948D0898
:101EB00010927C021092770210927B0210927A02AA
:101EC000109276021092750280E090E89093790269
:101ED0008093780290937402809373026EE870E1AD
:101EE00083E00E94C60508950E94560F10926F026B
:101EF0001092700210927102109272020895109264
:101F00007B0210927A0210927602109275028FB5BF
:101F10008F778FBD8FB58F7B8FBD8FB58F7D8FBD39
:101F20008FB58F7E8FBD82E00E94790583E00E948D
:101F300079050895EF92FF920F931F937C010E9401
:101F4000B005AA27BB2700271127BC01CD01A80196
:101F500097010E94DF159B01AC01220F331F441F24
:101F6000551F60E074E284EF90E00E9425163093E4
:101F70007902209378021F910F91FF90EF900895BE
:101F8000EF92FF920F931F937C010E94B005AA2746
:101F9000BB2700271127BC01CD01A80197010E9492
:101FA000DF159B01AC01220F331F441F551F60E05A
:101FB00074E284EF90E00E9425163093740220931F
:101FC00073021F910F91FF90EF9008959C01892B50
:101FD00061F080917C02816080937C02220F331F2C
:101FE00030937B0220937A020BC080917C028E7F1B
:101FF00080937C0282E090E090937B0280937A024F
:102000008FB58F778FBD8FB580648FBD8AB59BB537
:102010002091780230917902820F931F9BBD8ABD77
:1020200089B7806189BF08959C01892B61F08091F7
:102030007702816080937702220F331F30937602FC
:10204000209375020BC0809177028E7F8093770278
:1020500082E090E090937602809375028FB58F7D39
:102060008FBD8FB580618FBD88B599B52091730202
:1020700030917402820F931F99BD88BD89B7886023
:1020800089BF089580917C02816080937C021092C8
:102090007B0210927A02089580917702816080938A
:1020A00077021092760210927502089580917A025A
:1020B00090917B020196969587950895809175027F
:1020C00090917602019696958795089580917A026F
:1020D00090917B02892BC1F08AB59BB52091780243
:1020E00030917902820F931F9BBD8ABD80917C0243
:1020F00080FF13C080917A0290917B0201979093A8
:102100007B0280937A0208958FB58F778FBD8FB54C
:102110008F7B8FBD89B78F7E89BF089580917502AF
:1021200090917602892BC9F188B599B520917302F7
:1021300030917402820F931F99BD88BD8091770200
:1021400080FF34C080917502909176020197909340
:10215000760280937502959B0CC080916F029091DE
:102160007002A0917102B09172020196A11DB11D81
:102170000BC080916F0290917002A0917102B0919A
:1021800072020197A109B10980936F0290937002C6
:10219000A0937102B093720208958FB58F7D8FBDA9
:1021A0008FB58F7E8FBD89B7877F89BF0895EF92E6
:1021B000FF920F931F93CF93DF93CDB7DEB7219795
:1021C0000FB6F894DEBF0FBECDBF0E94FE0860E0E0
:1021D00081E00E94250981ED90E00E94BF030E94EA
:1021E000B90C8DE892E00E94E50C69E074E183EAA5
:1021F00090E00E94C60C64E474E185EA90E00E94DD
:10220000C60C6DE474E187EA90E00E94C60C62E6B9
:1022100074E189EA90E00E94C60C69E774E18BEAF8
:1022200090E00E94C60C66E574E18DEA90E00E94A1
:10223000C60C60E974E18FEA90E00E94C60C63E787
:1022400073E181EB90E00E94C60C65EB73E183EBD8
:1022500090E00E94C60C64EC71E185EB90E00E9476
:10226000C60C60E072E189EB90E00E94C60C8DE044
:102270000E94DA0D8FEF80935E03EE24FF24870126
:102280002FC089810E94DA0DCE0101960E9496022C
:102290008823B9F70E94E50E0894E11CF11C011D8A
:1022A000111D80916B0290916C02A0916D02B09112
:1022B0006E020097A105B10599F0E816F9060A0724
:1022C0001B0774F080EC90E09F938F9381E08F93D5
:1022D0000E94C404EE24FF2487010F900F900F90FA
:1022E00080915E03882381F60E94CF038EEA90E0FE
:1022F0009F938F9381E08F930E94C4040F900F905F
:102300000F9021960FB6F894DEBF0FBECDBFDF91C0
:10231000CF911F910F91FF90EF90089510925E035F
:1023200008951F930E94CF0388EC91E09F938F93B1
:1023300011E01F930E94C4048EE991E09F938F9354
:102340001F930E94C4048DE691E09F938F931F9387
:102350000E94C40483E391E09F938F931F930E9494
:10236000C4048DEF90E09F938F931F930E94C40449
:102370000E94CF038DB79EB70F960FB6F8949EBFFD
:102380000FBE8DBF1F9108950E94CF038EEF91E085
:102390009F938F9381E08F930E94C40487EF91E015
:1023A0000E94BF0380E00E94F30E0E9485030E94FA
:1023B000CF0380EF91E00E94BF0381E00E94F30E03
:1023C0000E9485030E94CF0389EE91E00E94BF0323
:1023D00082E00E94F30E0E9485030E94CF0382EEEA
:1023E00091E00E94BF0383E00E94F30E0E948503E8
:1023F0000E94CF030E94CF030F900F900F9008957B
:10240000DF92EF92FF920F931F930E94CF0384E419
:1024100092E09F938F93E1E0DE2EDF920E94C4044E
:1024200086E392E09F938F93DF920E94C40481E041
:102430000E941E0F7B018C0120E24FEF6AE08AE0D0
:102440000E9409040E94CF0388E292E09F938F9339
:10245000DF920E94C40482E00E941E0F7B018C0167
:1024600020E24FEF6AE08AE00E9409040E94CF0355
:102470008AE192E09F938F93DF920E94C40483E0ED
:102480000E941E0F7B018C0120E24FEF6AE08AE080
:102490000E9409040E94CF030E94CF038DB79EB70C
:1024A0000C960FB6F8949EBF0FBE8DBF1F910F9173
:1024B000FF90EF90DF900895DF92EF92FF920F93DD
:1024C0001F930E94CF038BE892E09F938F93F1E0DC
:1024D000DF2EDF920E94C4048DE792E09F938F93DA
:1024E000DF920E94C40481E00E943A0F7B018C01BC
:1024F00020E240E068E080E10E9409040E94CF03EE
:102500008FE692E09F938F93DF920E94C40482E053
:102510000E943A0F7B018C0120E240E068E080E1FC
:102520000E9409040E94CF0381E692E09F938F935B
:10253000DF920E94C40483E00E943A0F7B018C0169
:1025400020E240E068E080E10E9409040E94CF039D
:102550000E94CF038DB79EB70C960FB6F8949EBF1E
:102560000FBE8DBF1F910F91FF90EF90DF900895E8
:102570000E946F0A6FEF80EA0E948E0A8EE193E15B
:102580000E94950A80E393E10E949A0A0895CFE59C
:10259000D8E0DEBFCDBF0E94690260E071EE80E04E
:1025A00090E00E943E028DE892E00E946E030E943D
:1025B000EA080E947A080E94F9088C9A8D9A0E9473
:1025C000740F8FEA90E00E94C00F84E690E00E94B2
:1025D000D1050E94B8120E943C0942E065E180E00A
:1025E0000E94830943E065E181E00E94830944E0A1
:1025F00065E182E00E94830945E065E183E00E9495
:10260000830946E065E184E00E94830947E065E1D3
:1026100085E00E9483098CEF84BB8CEA92E09F9353
:102620008F9381E08F930E94C4040E94D7100F9073
:102630000F900F9080E090E00C947416982FDB01BF
:1026400020E030E007C0FF27EE57FF4F8D918083D9
:102650002F5F3F4FE22F2917B0F390938100089529
:10266000C798DB0105C0FF27EE57FF4F80818D9390
:10267000EA2FE61B90918100E917A8F38091820070
:102680008F5F80938200892F992708950F931F935E
:10269000CF93DF93182F062FEA0186B78E7F86BF70
:1026A0000E949F0A0E94A90A812F8E7F0E94AD0A74
:1026B0000E94A90A10E006C089910E94AD0A0E94FA
:1026C000A90A1150802F81951817B1F70E94A40A0A
:1026D00006B604FEFDCF86B7816086BFDF91CF913D
:1026E0001F910F9108950F931F93CF93DF93CDB751
:1026F000DEB764970FB6F894DEBF0FBECDBF81E0A2
:102700000E94F30E8E010F5F1F4FBC01C8010E9493
:10271000CA15A80162E080EA0E94C90A64960FB651
:10272000F894DEBF0FBECDBFDF91CF911F910F9107
:102730000895CF93DF93CDB7DEB722970FB6F89405
:10274000DEBF0FBECDBF89831A82AE014F5F5F4FE0
:1027500062E080EA0E94C90A22960FB6F894DEBFB2
:102760000FBECDBFDF91CF9108950F931F93CF93ED
:10277000DF93CDB7DEB764970FB6F894DEBF0FBE18
:10278000CDBF81E00E94F30EBC01CE0101960E94F4
:10279000CA1502E810E0A8016091810080EA0E9459
:1027A000F00A10929B00C8010E94850383EE92E01C
:1027B0009F938F9381E08F930E94C4040F900F909A
:1027C0000F9064960FB6F894DEBF0FBECDBFDF91B9
:1027D000CF911F910F9108950F931F9302E810E07E
:1027E000A8016091810080EA0E94F00A10929B008B
:1027F000C8010E94850385EE92E09F938F9381E04C
:102800008F930E94C4040F900F900F901F910F910F
:102810000895CF92DF92EF92FF920F931F93E09073
:102820006F02F09070020091710210917202C090DC
:102830006000D090610081E00E941E0FC69EC00122
:10284000C79E900DD69E900D1124AA27BB271595E3
:102850000795F794E7948E199F09A00BB10BB7FF6A
:1028600009C09598B095A095909581959F4FAF4FD1
:10287000BF4F01C0959A0E9414101F910F91FF90B5
:10288000EF90DF90CF90089581E00E941E0F60933B
:10289000600383E00E94AD09089581E00E941E0F4D
:1028A0006093610380E00E94AD09089581E00E9479
:1028B0001E0F60936B0270936C0280936D02909375
:1028C0006E02089581E00E941E0F6330710580F44E
:1028D00080915D03860F815080935D03882319F4F6
:1028E00081E080935D0360915D0381E00E94AD090A
:1028F000089581E00E941E0F6330710580F480917D
:102900005F03860F815080935F03882319F481E071
:1029100080935F0360915F0382E00E94AD09089598
:1029200081E00E941E0FDC01CB010E94C00F82E0FB
:102930000E941E0F709361006093600008952F92B3
:102940003F924F925F926F927F928F929F92AF923F
:10295000BF92DF92EF92FF920F931F93CF93DF937B
:102960007C011B018A016115710519F0FB0191833E
:1029700080830115110549F0C8010297839728F05B
:1029800060E070E080E090E0F3C0E701D9908D2D29
:1029900099270E946216892B11F07E01F6CFFDE285
:1029A000DF1631F4D880E701229661E0E62E07C0F9
:1029B0008BE2D81619F4D880E7012296EE2401158F
:1029C000110519F000311105C1F4E0E3DE1661F4E0
:1029D0008881883711F0883539F4D9802296F2E061
:1029E000EF2A00E110E029C00115110531F480E360
:1029F000D81649F10AE010E017C00830110529F196
:102A00000930110524F40230110529F507C00A30F8
:102A1000110551F000311105F1F40FC0812C912CFA
:102A2000A12C50E4B52E24C04CEC842E4CEC942EFA
:102A30004CECA42E4CE0B42E1BC0812C912CA12C6C
:102A400038E0B32E15C008E010E0812C912CA12CA9
:102A500020E1B22E0DC09801442737FD4095542F38
:102A600060E070E080E090E80E94251649015A017C
:102A700020E030E040E050E060E02801662457FCB0
:102A80006094762C8D2D80538A3010F4F82E0EC071
:102A90008D2D81548A3118F499ECF92E06C08D2DB4
:102AA00081568A3140F589EAF82EFD0C8F2D992741
:102AB0008017910704F567FD1CC082169306A406D3
:102AC000B506B0F0CA01B901A30192010E94DF1559
:102AD0009B01AC012F0D311D411D511D2130E0E046
:102AE0003E07E0E04E07E0E85E0710F461E001C059
:102AF0006FEFD990C7CF2114310471F0662329F00C
:102B00002197F101D183C08307C0E1FE19C022974C
:102B1000F101D183C08314C067FF12C0E0FE05C07D
:102B200020E030E040E050E804C02FEF3FEF4FEFEF
:102B30005FE782E290E0909363038093620316C0A4
:102B4000E0FE08C050954095309521953F4F4F4F7E
:102B50005F4F0CC057FF0AC082E290E0909363037E
:102B6000809362032FEF3FEF4FEF5FE7CA01B90198
:102B7000DF91CF911F910F91FF90EF90DF90BF9069
:102B8000AF909F908F907F906F905F904F903F900D
:102B90002F900895FB01DC0101900D920020E1F7D8
:102BA0000895FB01DC014150504030F08D910190BF
:102BB000801919F40020B9F7881B990B0895629FBA
:102BC000D001739FF001829FE00DF11D649FE00D25
:102BD000F11D929FF00D839FF00D749FF00D659F86
:102BE000F00D9927729FB00DE11DF91F639FB00D85
:102BF000E11DF91FBD01CF0111240895AA1BBB1BC4
:102C000051E107C0AA1FBB1FA617B70710F0A61BEC
:102C1000B70B881F991F5A95A9F780959095BC010D
:102C2000CD01089597FB092E07260AD077FD04D021
:102C3000E5DF06D000201AF4709561957F4F089566
:102C4000F6F7909581959F4F0895A1E21A2EAA1B41
:102C5000BB1BFD010DC0AA1FBB1FEE1FFF1FA2174C
:102C6000B307E407F50720F0A21BB30BE40BF50B49
:102C7000661F771F881F991F1A9469F760957095D2
:102C8000809590959B01AC01BD01CF01089597FB04
:102C9000092E05260ED057FD04D0D7DF0AD0001C20
:102CA00038F450954095309521953F4F4F4F5F4FE9
:102CB0000895F6F790958095709561957F4F8F4FA9
:102CC0009F4F089591110DC0803251F08A3041F02C
:102CD0008C3031F08D3021F0893011F08B3099F744
:0A2CE0000895992788270895FFCF73
:102CEA006400882054686973206F6E6520697320B8
:102CFA00746865204D617374657220626F617264D5
:102D0A00002050617363616C20697320636F6F6C7C
:102D1A00212150617363616C20697320436F6F6C6A
:102D2A002121006C0072007400700069006600774F
:0E2D3A000032003300646173006461690000C0
:00000001FF
