:100000000C9441010C945C010C945C010C945C0117
:100010000C94C2080C94CE070C9495080C943B08E1
:100020000C9468080C94A1070C940E080C944E07CD
:100030000C945C010C94EC020C945C010C94B502E1
:100040000C945C010C945C010C945C010C94290CE4
:100050000C945C010829573F9F2D49CBA5310F76A1
:10006000C73493F27E37D00D013AB60B613D2AAA10
:10007000AB3F0000003F800000004120000042C86C
:100080000000461C40004CBEBC205A0E1BCA749D8A
:10009000C5AE3DCCCCCD3C23D70A38D1B717322BD7
:1000A000CC7724E695950A4FB11F083B3BD74ABC55
:1000B000846E023D2FC1FEBD9A31743DDA3D83BE90
:1000C000117FC73E4CBBE5BEAAAA6C3F8000000072
:1000D000303132333435363738394142434445467E
:1000E0000000000100080020004000800000010026
:1000F00004000001000800400000010004001F008F
:100100000000001F00001F101010101F00001F181B
:100110001818181F00001F1C1C1C1C1F00001F1E8D
:100120001E1E1E1F00001F1F1F1F1F1F0003070F83
:100130001F0F070300001F1F1F1F1F1F001B1B1B7C
:100140001B1B1B1B00181C1E1F1E1C180000040478
:100150000E0E1F1F00001F1F0E0E040400000000E3
:100160000000000000000E1915130E0000000E150F
:1001700015150E0000000E1315190E0000000E11CB
:100180001F110E0000257330310D00257330370D1F
:100190000025730D0025730D0025730D0025730DCB
:1001A000005825640D5925640D5325660D0058250A
:1001B000640D5925640D5325660D005825640D59AD
:1001C00025640D5325660D005825640D5925640DD1
:1001D0005325660D005825640D5925640D53256679
:1001E0000D005825640D5925640D5325660D0065D5
:1001F00072723A203F0D0A000D0A73656E74206911
:10020000326321002E0D000D0A006767612E6C61BC
:10021000746974756465203D20006E6D6561705F62
:1002200061646420524D432025640A006E6D65614F
:10023000705F616464204747412025640A006E6D49
:100240006561705F696E69742025640A0073657466
:100250002068616E646C65720D0A000D0A47505388
:1002600020544553540D0A000D0A57656C636F6D99
:100270006520746F206932632074657374210D0AE0
:10028000000011241FBECFE5D8E0DEBFCDBF10E0D7
:10029000A0E6B0E0E0E4FFE302C005900D92AA3BC7
:1002A000B107D9F715E0AAEBB0E001C01D92A23B5F
:1002B000B107E1F70C943C160C940000FC018FB7D9
:1002C000F894718360835383428317821682158268
:1002D00014828FBF0895CF93DF93DC014FB7F8945A
:1002E000EC018C819D81892B11F4E0E01CC0FD01A3
:1002F00086819781ED91FC911197E80FF91FE081BC
:100300000196ED019F838E832A813B81821793079B
:1003100020F0821B930B9F838E83ED018C819D8146
:1003200001979D838C834FBF8E2F9927DF91CF91AB
:100330000895FC014FB7F894848195816817790777
:10034000B0F486819781860F971F978386832281D9
:1003500033818217930720F0821B930B9783868348
:1003600084819581861B970B9583848302C01582B7
:1003700014824FBF0895FC019B014FB7F89486810A
:10038000978162817381820F931F0E94DF1E01900B
:10039000F081E02DE80FF91F80814FBF9927089564
:1003A0001F93CF93DF93EC01162F4FB7F8942C8156
:1003B0003D816A817B8126173707A0F48E819F815A
:1003C000820F931F0E94DF1EE881F981E80FF91F59
:1003D00010838C819D8101969D838C834FBF8FEF0D
:1003E00090E003C04FBF80E090E0DF91CF911F917C
:1003F0000895FC018FB7F8948FBF82819381248187
:100400003581821B930B0895FC018FB7F8941582F8
:1004100014828FBF0895F3E0660F771F881F991F1E
:10042000FA95D1F79B01AC01220F331F441F551FD2
:1004300060507C4D8B409F4F0E94061F21503040E2
:1004400029B9232F332720BD089540E850E06CEFF1
:1004500070E08CE695E00E945E0140E450E06CEBB9
:1004600070E085E795E00E945E0108950E942502F4
:100470001092BB001092BA0088ED8AB960E875E26C
:1004800080E090E00E940B028FEF80936B0510924A
:10049000740510927E0510927D05789408959093CE
:1004A000BB008093BA0008958CE695E0089585E737
:1004B00095E00895982F80916B058823E1F39CB90E
:1004C00010926B050895CF93DF93EC0180916E0538
:1004D00090916F05892B71F0809170059091710555
:1004E000892B41F08CE695E00E946B0188838FEFA9
:1004F00090E002C080E090E0DF91CF910895CF932B
:10050000DF93CDB7DEB721970FB6F894DEBF0FBEED
:10051000CDBFCE0101960E946302882319F48FEFAC
:100520009FEF02C08981992721960FB6F894DEBF0C
:100530000FBECDBFDF91CF9108951092710510923B
:10054000700508958091700590917105892B19F4BB
:100550008FEF90E0089580E090E00895682F85E7A0
:1005600095E00E94D001992708951F920F920FB62F
:100570000F9211242F933F934F935F936F937F9329
:100580008F939F93AF93BF93EF93FF9380917405E5
:10059000882371F08091790590917A05892B31F04B
:1005A00085E795E00E946B018CB905C01092740537
:1005B0008FEF80936B05FF91EF91BF91AF919F916A
:1005C0008F917F916F915F914F913F912F910F90FC
:1005D0000FBE0F901F9018951F920F920FB60F929B
:1005E00011242F933F934F935F936F937F938F9338
:1005F0009F93AF93BF93EF93FF936CB18091BA0039
:100600009091BB00892B39F0E091BA00F091BB00CA
:10061000862F09950FC08CE695E00E94D0018823B3
:1006200049F480917D0590917E05019690937E0519
:1006300080937D05FF91EF91BF91AF919F918F9135
:100640007F916F915F914F913F912F910F900FBECE
:100650000F901F9018958FEF8093740585E795E0B4
:100660000E946B01982F80916B058823E1F39CB960
:1006700010926B05089590937D0180937C010895FD
:100680001F93182F8A3031F4E0917C01F0917D01A5
:100690008DE00995E0917C01F0917D01812F099514
:1006A0001F910895CF93DF93EC01892B21F406C0AD
:1006B00021960E94400388818823D1F7DF91CF9152
:1006C0000895EF92FF920F931F93CF93DF93EC0166
:1006D0007A01892BD1F020E030E02617370728F483
:1006E00089912F5F3F4F8823C1F700E010E00AC0D7
:1006F0008881882311F0219601C080E20E94400386
:100700000F5F1F4F0E151F0598F3DF91CF911F91BB
:100710000F91FF90EF900895CF93DF93EC01892B19
:1007200019F407C00E944003FE012196849188239A
:10073000C9F7DF91CF9108958AE00E9440030895A0
:10074000E82FFF27EF70F070E053FF4FE4918E2FFA
:100750000E94400308951F93182F82958F700E9466
:10076000A003812F0E94A0031F9108950F931F9350
:100770008C01812F99270E94AB03802F0E94AB032D
:100780001F910F910895EF92FF920F931F937B019A
:100790008C01C801AA27BB270E94B603C7010E948B
:1007A000B6031F910F91FF90EF9008952F923F9203
:1007B0004F925F926F927F928F929F92AF92BF9271
:1007C000CF92DF92EF92FF920F931F93CF93DF931D
:1007D000CDB7DEB7A3970FB6F894DEBF0FBECDBF7F
:1007E00069A34AA32BA327013801442351F017FF23
:1007F00008C0EE24FF248701E418F508060917094C
:1008000002C08301720190E02AA1211191E039A078
:10081000391A3A9418A2A82EBB24A7FCB094CB2C6A
:10082000DB2CC801B701A60195010E94061FFB0140
:10083000EF70F070E053FF4F64916F8FC801B70104
:10084000A60195010E94061F79018A012FE1822EDF
:10085000912C8C0E9D1E2224319424C0C40101973A
:10086000E114F10401051105C1F04C01C801B70103
:10087000A60195010E94061FFB01EF70F070E05386
:10088000FF4F6491F4016083C801B701A60195018F
:100890000E94061F79018A0104C04C012BA1FC01B2
:1008A00020832A942314D1F68AA18823A9F077FE05
:1008B00005C08DE2F40182934F010EC0C40101977F
:1008C00014141504160417041CF44C018BE202C026
:1008D0004C0180E2F401808310E006C0F4018191B4
:1008E0004F010E944003115089A181951817B1F75B
:1008F000A3960FB6F894DEBF0FBECDBFDF91CF91A8
:100900001F910F91FF90EF90DF90CF90BF90AF902D
:100910009F908F907F906F905F904F903F902F901F
:1009200008953F924F925F926F927F928F929F9223
:10093000AF92BF92CF92DF92EF92FF920F931F93ED
:10094000CF93DF93382E7A018B0120E030E040E036
:1009500050E0C801B7010E94211C18161CF4370191
:10096000480106C03701480197FA909497F890948F
:100970000F2EF0E0AF2EF0E0BF2EF0E8CF2EFFE319
:10098000DF2EF02D5524A6019501C401B3010E946C
:100990009E1B20E030E040E251E40E941E1C87FDD7
:1009A0000EC020E030E040E251E4C601B5010E94F3
:1009B0000F1D5B016C0153948FE0581621F720E066
:1009C00030E040E050E0C801B7010E941E1C8823BF
:1009D00014F48DE201C08BE20E944003EE24442413
:1009E000552457C0A6019501C401B3010E949E1B66
:1009F0000E94E41BF62E862F8E29C82FDD2700E0EB
:100A000010E020E030E040E85FE3C601B5010E945D
:100A10001E1C882311F401E010E0C02BD12BCD2B3C
:100A200039F08F2D805D0E9440033FEFE32E03C01D
:100A300080E20E94400320E030E040E85FE3C6012E
:100A4000B5010E941E1C882319F48EE20E94400307
:100A50006F2D7727882777FD8095982F0E94011C9E
:100A6000A60195010E940F1D9B01AC01C401B301B9
:100A70000E94221B3B014C0120E030E040E251E4A7
:100A8000C601B5010E949E1B5B016C010894411CCC
:100A9000511C242D3327832D992787FD90952817E6
:100AA00039070CF49FCFDF91CF911F910F91FF90E9
:100AB000EF90DF90CF90BF90AF909F908F907F90FE
:100AC0006F905F904F903F9008959F92AF92BF922A
:100AD000CF92DF92EF92FF920F931F93CF93DF930A
:100AE000CDB7DEB722970FB6F894DEBF0FBECDBFED
:100AF0009888C988DA88CE0143969A83898305C08D
:100B0000882309F46CC00E94400396012F5F3F4F79
:100B1000992021F0F6016901849103C0F6018081DA
:100B20006901853269F72F5F3F4F992021F0F60167
:100B30006901849103C0F601808169018436A1F0C6
:100B4000883719F08336F9F607C070E1A72EB12C6B
:100B5000E12C60E1F62E0FC0E981FA813296FA832A
:100B6000E98332978081CFCF5AE0A52EB12C40E1A6
:100B7000E42E47E2F42EE981FA813296FA83E98382
:100B8000129102918436B1F417FF0DC010950195B2
:100B90001F4F8DE20E94400306C0C7016AE070E06B
:100BA0000E94DF1E7B01F2E0EF16F10418F00E1533
:100BB0001F0598F3C801B7010E94DF1ECB010E94F8
:100BC000A003C801B7010E94DF1E8C01C701B50157
:100BD0000E94DF1E7B01672B09F497CFEBCF80E0EB
:100BE00090E022960FB6F894DEBF0FBECDBFDF9126
:100BF000CF911F910F91FF90EF90DF90CF90BF901A
:100C0000AF909F900895039665E070E00E94DF1E0C
:100C10008827992724E0660F771F881F991F2A9538
:100C2000D1F720E030E002C02F5F3F4F2617370793
:100C3000D8F30895883040F4E82FFF27EE0FFF1F08
:100C4000E258FE4F11821082089593B7987F982B37
:100C500093BF089510927F05109280051092810530
:100C60001092820508959EB5987F982B9EBD089599
:100C700095B5987F982B95BD089510928705109291
:100C800088051092890510928A050895E3B7FF2719
:100C9000E770F070EE0FFF1FEF50FF4F85919491BA
:100CA0000895EEB5FF27E770F070EE0FFF1FEF50CD
:100CB000FF4F859194910895E5B5FF27E770F07097
:100CC000EE0FFF1FEF51FF4F8591949108958830EB
:100CD00040F4E82FFF27EE0FFF1FE258FE4F71830D
:100CE00060830895DF92EF92FF920F931F937C0130
:100CF000D2B6109283051092840510928505109249
:100D000086050E9446069C014427552760E074E250
:100D100084EF90E00E94281F293B8DE8380786E089
:100D2000480780E0580798F481E1E81687E2F80662
:100D300070F4B701882799270E94C01E28EE33E07F
:100D400040E050E00E94061F79018A0123C000277D
:100D50001127CA01B90128EE33E040E050E00E94BB
:100D6000061FC801B7010E94C01E7B018C0112C082
:100D70008091830590918405A0918505B0918605A9
:100D800085B78F7885BF85B7806885BF889585B71B
:100D90008F7785BF8091830590918405A09185050B
:100DA000B091860522B7BA2FA92F982F882733270D
:100DB00044275527822B932BA42BB52BA8019701F1
:100DC0002D0D311D411D511D82179307A407B50735
:100DD00078F21F910F91FF90EF90DF90089560914E
:100DE0007F0570918005809181059091820508951D
:100DF00060918705709188058091890590918A0599
:100E00000895893031F48FB582608FBD8FB58E7FA4
:100E10000AC08A3019F48FB5826002C08FB58D7F09
:100E20008FBD8FB581608FBD1BBC1ABC19BC18BCAF
:100E300008952FB52E7F2FBD2FB522602FBD2EB563
:100E400028602EBD2EB520612EBD97BD86BD1BBC72
:100E50001ABC19BC18BC08958FB58F778FBD8FB59C
:100E60008F7B8FBD08958FB58F7D8FBD8FB58F7EA2
:100E70008FBD08958FB580688FBD8FB58F7B8FBD77
:100E800008958FB580628FBD8FB58F7E8FBD089519
:100E90009BBD8ABD089599BD88BD08951F920F928C
:100EA0000FB60F9211242F933F934F935F936F933D
:100EB0007F938F939F93AF93BF93EF93FF93809113
:100EC0007F0590918005A0918105B09182050196E2
:100ED000A11DB11D80937F0590938005A09381058E
:100EE000B09382058091830590918405A09185053A
:100EF000B09186050196A11DB11D80938305909345
:100F00008405A0938505B093860580917E0190911C
:100F10007F01892B29F0E0917E01F0917F010995F5
:100F2000FF91EF91BF91AF919F918F917F916F91C1
:100F30005F914F913F912F910F900FBE0F901F9097
:100F400018951F920F920FB60F9211242F933F9373
:100F50004F935F936F937F938F939F93AF93BF93C1
:100F6000EF93FF938091800190918101892B29F06B
:100F7000E0918001F09181010995FF91EF91BF917E
:100F8000AF919F918F917F916F915F914F913F9121
:100F90002F910F900FBE0F901F9018951F920F92D8
:100FA0000FB60F9211242F933F934F935F936F933C
:100FB0007F938F939F93AF93BF93EF93FF93809112
:100FC000870590918805A0918905B0918A050196C1
:100FD000A11DB11D8093870590938805A093890575
:100FE000B0938A058091880190918901892B29F01D
:100FF000E0918801F09189010995FF91EF91BF91EE
:10100000AF919F918F917F916F915F914F913F91A0
:101010002F910F900FBE0F901F9018951F920F9257
:101020000FB60F9211242F933F934F935F936F93BB
:101030007F938F939F93AF93BF93EF93FF93809191
:101040008C0190918D01892B29F0E0918C01F09118
:101050008D010995FF91EF91BF91AF919F918F9174
:101060007F916F915F914F913F912F910F900FBEA4
:101070000F901F9018951F920F920FB60F92112488
:101080002F933F934F935F936F937F938F939F9390
:10109000AF93BF93EF93FF9380918201909183016F
:1010A000892B29F0E0918201F09183010995FF914C
:1010B000EF91BF91AF919F918F917F916F915F91D0
:1010C0004F913F912F910F900FBE0F901F90189549
:1010D0001F920F920FB60F9211242F933F934F93AD
:1010E0005F936F937F938F939F93AF93BF93EF9390
:1010F000FF938091840190918501892B29F0E091E3
:101100008401F09185010995FF91EF91BF91AF9115
:101110009F918F917F916F915F914F913F912F910F
:101120000F900FBE0F901F9018951F920F920FB641
:101130000F9211242F933F934F935F936F937F935D
:101140008F939F93AF93BF93EF93FF93809186010B
:1011500090918701892B29F0E0918601F091870118
:101160000995FF91EF91BF91AF919F918F917F91E1
:101170006F915F914F913F912F910F900FBE0F9004
:101180001F9018951F920F920FB60F9211242F9354
:101190003F934F935F936F937F938F939F93AF93FF
:1011A000BF93EF93FF9380918A0190918B01892BDC
:1011B00029F0E0918A01F0918B010995FF91EF915F
:1011C000BF91AF919F918F917F916F915F914F915F
:1011D0003F912F910F900FBE0F901F90189583B7DE
:1011E000887F826083BF12BE89B7816089BF1092F9
:1011F0007F05109280051092810510928205089556
:101200008EB5887F83608EBD1DBC1CBC89B7846091
:1012100089BF089585B5887F846085BD14BC89B772
:10122000806489BF10928705109288051092890505
:1012300010928A05089580E090E0EEE7F1E01182D7
:1012400010823296019688309105C9F70E94EF0806
:101250000E9400090E940A09789408958FB58D7F35
:101260008FBD8FB58E7F8FBD8FB58F778FBD8FB5BB
:101270008F7B8FBD8FB58F7D8FBD8FB58F7E8FBDDF
:101280000895AA98AB98AC98A29AA39AA49A17BA70
:101290008FEF88BB0895AA9817BA8FEF88BBAB9AD7
:1012A000AC9A26C0AC9800000000000000000000CE
:1012B000000000000000000000000000000000002E
:1012C000000000000000000000000000000000001E
:1012D000000000000000AC9A0000000000000000C8
:1012E00000000000000000000000000000000000FE
:1012F00000000000000000000000000000000000EE
:101300000000000000000000B799CCCFAC98089511
:101310001F93182F0E944B09AA98AB98AC9A8FEF95
:1013200087BB18BB000000000000000000000000A8
:1013300000000000000000000000000000000000AD
:10134000000000000000000000000000000000009D
:1013500000000000AC9817BA88BB1F9108950E9446
:101360004B0917BA8FEF88BBAA98AB9AAC9A0000CA
:10137000000000000000000000000000000000006D
:10138000000000000000000000000000000000005D
:10139000000000000000000000000000000086B314
:1013A000AC98992708951F93182F0E944B09AA9A69
:1013B000AB98AC9A8FEF87BB18BB00000000000011
:1013C000000000000000000000000000000000001D
:1013D000000000000000000000000000000000000D
:1013E00000000000000000000000AC9817BA88BBA5
:1013F0001F9108950E944B0917BA8FEF88BBAA9AD4
:10140000AB9AAC9A00000000000000000000000051
:1014100000000000000000000000000000000000CC
:1014200000000000000000000000000000000000BC
:101430000000000086B3AC9899270895EF92FF92C0
:101440000F931F93CF93DF93CDB7DEB721970FB6DE
:10145000F894DEBF0FBECDBF7C01162F042F0E9473
:10146000AF098F778983000F000F000F110F110F45
:10147000110FE10EF11C10E0812F800F80640E949B
:101480008809F70184910E94D3091F5F0894E11C29
:10149000F11C183089F7898180680E94880921969B
:1014A0000FB6F894DEBF0FBECDBFDF91CF911F9175
:1014B0000F91FF90EF9008950F931F930E944109A1
:1014C00088E30E94880981E00E94880980E69AEEFC
:1014D0000E94030686E00E9488098CE00E94880929
:1014E00082E00E94880980E80E9488090DEF10E0E0
:1014F00040E060E0C8010E941E0A41E061E0C801CE
:101500000E941E0A42E062E0C8010E941E0A43E0F7
:1015100063E0C8010E941E0A44E064E0C8010E9422
:101520001E0A45E065E0C8010E941E0A46E066E02A
:10153000C8010E941E0A47E067E0C8010E941E0A17
:101540001F910F91089582E00E948809089581E01B
:101550000E9488090895623031F0633031F06130C3
:1015600029F4805C03C08C5E01C08C5A80680E94A4
:1015700088090895FF920F931F93CF93DF938C01F7
:10158000F62E892B69F0C0E0D0E007C0F801E80F23
:10159000F11D80810E94D30921968C2FCF15B0F3C5
:1015A000DF91CF911F910F91FF900895CF92DF921D
:1015B000EF92FF920F931F93CF93DF93C42E242FAC
:1015C0003327A901849F9001859F300D949F300D92
:1015D0001124C901880F991F820F931F880F991F2B
:1015E0000E94DF1E7B0100271127C801B70126E0FA
:1015F00030E040E050E00E94061FD62EC0E0D0E070
:1016000020C086E0989F900111242B5F3F4FC901B5
:10161000AA27BB2725503040E816F9060A071B0702
:1016200010F085E00BC0C901AA27BB27E816F90610
:101630000A071B0710F08D2D01C080E00E94D3091E
:1016400021969C2FCC15E8F2DF91CF911F910F913D
:10165000FF90EF90DF90CF900895089809989C0133
:101660004427552760E87EE380E090E00E94281F31
:10167000203140F0822F9927409762E070E00E946D
:10168000F31E262F20B90895A89AA99A909A919AA4
:10169000109291011092900110928F0110928E0180
:1016A00084E690E00E942D0B86B7846086BF10927E
:1016B000D8011092D70186B7816086BF86B7806453
:1016C00086BF789408958E7F90E0611191E0892B18
:1016D00082B9089590939101809390010895909319
:1016E0008F0180938E01089586B78F70806A86BFC0
:1016F000089586B78F70806D86BF089506B607FE81
:10170000FDCF089583B986B78F70806886BF08952E
:10171000882321F086B78F70806C03C086B78F70E6
:10172000806886BF089583B19927089581B199276C
:1017300008958091D7019091D8010895282FDA015A
:101740008091D7019091D801892BD1F782E090E068
:101750009093D8018093D7012E7F2093D60120E06B
:1017600030E007C08D91FF27EA54FE4F80832F5F42
:101770003F4FE22F2617B0F31092B5016093B401EA
:1017800086B78F70806A86BF0895282FDA0180910E
:10179000D7019091D801892BD1F783E090E0909305
:1017A000D8018093D70121602093D6011092930134
:1017B0006093920186B78F70806A86BF8091D7014F
:1017C0009091D801892BD1F720E030E007C0FF27A6
:1017D000EC56FE4F80818D932F5F3F4FE22F2617EF
:1017E000B0F30895982FFA0186B78E7F86BF86B72B
:1017F0008F70806A86BF06B607FEFDCF9E7F93B9C5
:1018000086B78F70806886BF06B607FEFDCF81B1B0
:10181000883111F091E010C090E061950AC081918B
:1018200083B986B78F70806886BF06B607FEFDCF86
:1018300091509617A1F790E086B78F70806D86BFA4
:1018400006B604FEFDCF86B7816086BF892F992733
:1018500008951F920F920FB60F9211242F933F936A
:101860004F935F936F937F938F939F93AF93BF93A8
:10187000EF93FF9381B1887F803609F49FC0813652
:1018800070F5883209F45FC0893298F4803109F428
:1018900057C0813138F4882309F4E8C0883009F052
:1018A000EDC04EC0883109F44EC0803209F0E6C068
:1018B000DDC0803409F477C0813438F4803309F412
:1018C000D5C0883309F0DAC05FC0803509F460C044
:1018D000883509F44DC0883409F0D0C0C7C08839B4
:1018E00009F484C08939B0F4883709F467C08937AE
:1018F00038F4883609F462C0803709F0BFC05EC092
:10190000883809F473C0803909F461C0803809F05F
:10191000B5C05DC0803B09F47DC0813B38F4803A9E
:1019200009F468C0883A09F0A9C074C0803C09F481
:1019300099C0883C09F496C0883B09F09FC07EC0DE
:101940008091D6010FC09091B5018091B401981794
:1019500008F08CC0E92FFF27EA54FE4F80819F5F7B
:101960009093B50183B986B78F70806886BF86C0B3
:101970008091930193B1E82FFF27EC56FE4F90839F
:101980008F5F8093930172C086B78F70806871C03B
:101990008091930193B1E82FFF27EC56FE4F90837F
:1019A0008F5F80939301209193013327809192015F
:1019B0009927019728173907BCF018C085E090E0F7
:1019C0009093D8018093D7011092930147C08091E2
:1019D000930193B1E82FFF27EC56FE4F90838F5F62
:1019E00080939301803210F48FEF01C080E00E9459
:1019F000880B44C086B78F70806C86BFE0919001E1
:101A0000F09191013097B1F164E971E08091930117
:101A1000099530C084E090E09093D8018093D7017D
:101A2000E0918E01F0918F01309731F066EB71E01B
:101A300080E209958093B4011092B5019091B501AF
:101A4000E92FFF27EA54FE4F808183B99F5F90936F
:101A5000B5018091B401981708F085CF86B78F70D3
:101A6000806C84CF86B78F70806C03C086B78F7010
:101A7000806D86BF1092D8011092D701FF91EF912F
:101A8000BF91AF919F918F917F916F915F914F9196
:101A90003F912F910F900FBE0F901F9018951F939D
:101AA000CF93DF93982F162FEA0186B78E7F86BFDC
:101AB00086B78F70806A86BF06B607FEFDCF91603D
:101AC00093B986B78F70806886BF06B607FEFDCFD4
:101AD00081B1803459F091E014C08FEF0E94880BDF
:101AE00006B607FEFDCF83B1899311501230A8F7D7
:101AF00080E00E94880B06B607FEFDCF83B1888385
:101B000090E086B78F70806D86BF86B7816086BF94
:101B1000892F9927DF91CF911F9108951F9380E618
:101B200090E09F938F938DE991E09F938F9311E0C5
:101B30001F930E94650582E690E09F938F9389E949
:101B400091E09F938F931F930E94650584E690E038
:101B50009F938F9385E991E09F938F931F930E94AA
:101B6000650586E690E09F938F9381E991E09F93CE
:101B70008F931F930E94650588E690E09F938F9353
:101B80008BE891E09F938F931F930E9465058BE6EE
:101B900090E09F938F9385E891E09F938F931F939D
:101BA0000E9465058DB79EB74E960FB6F8949EBFFE
:101BB0000FBE8DBF1F9108952F923F924F925F925B
:101BC0006F927F928F92AF92BF92CF92DF92EF92FD
:101BD000FF920F931F93CF93DF93CDB7DEB7290109
:101BE0003A01288C9F938F937F936F9321E030E08D
:101BF0003F932F931F921F9282EE91E09F938F93BA
:101C000081E0882E8F920E9465057F926F925F928D
:101C10004F9281E190E09F938F939F938F9385EDF7
:101C200091E09F938F938F920E9465051F930F936E
:101C3000FF92EF9241E050E05F934F930AE010E093
:101C40001F930F9388EC91E09F938F938F920E9444
:101C500065058DB79EB781960FB6F8949EBF0FBEEF
:101C60008DBFDF92CF92BF92AF92A1E0B0E0BF9361
:101C7000AF931F930F938BEB91E09F938F938F9272
:101C80000E9465052C893D894E895F895F934F933A
:101C90003F932F938FE090E09F938F939F938F9329
:101CA0008EEA91E09F938F938F920E946505332473
:101CB00027FC30943F922F928AE190E09F938F937C
:101CC0009F938F9381EA91E09F938F938F920E94CD
:101CD00065054DB75EB7415E5F4F0FB6F8945EBFC6
:101CE0000FBE4DBFDF91CF911F910F91FF90EF90ED
:101CF000DF90CF90BF90AF908F907F906F905F906C
:101D00004F903F902F900895CF93DF93FC01EB010C
:101D10008081882329F460E070E080E090E00EC0CC
:101D2000CF010E94AC1D28812D3441F0263431F4BE
:101D300028E439EF41E550E40E940F1DDF91CF9177
:101D40000895FC01DC01AE58BF4FE258FE4FA1934D
:101D5000B19341E050E020E030E019C02115310599
:101D600021F02130310581F406C08C3269F41C92D7
:101D700021E030E00BC0A193B1934F5F5F4F8C9196
:101D80008C3211F41C9202C020E030E011968C914C
:101D9000882319F0483151050CF3CA010895CF92F8
:101DA000DF92EF92FF920F931F93CF93DF93EC019B
:101DB000BC016E587F4F40E051E084539E4F0E941B
:101DC000C917CE010E94A10EC255DE4F99838883A8
:101DD000CE5AD140EE24FF24CC24DD248E011EC037
:101DE0000115110509F4FFCF45E050E0B801CE011F
:101DF0008A589E4F0E94BB17892B59F4F801208501
:101E00003185B801CE01F90109957C011816190632
:101E100074F00894C11CD11C025F1F4FC059DF4FE2
:101E200088819981C057D040C816D906CCF2C70125
:101E3000DF91CF911F910F91FF90EF90DF90CF90A6
:101E400008958F929F92AF92BF92DF92EF92FF928E
:101E50000F931F93CF93DF93EC01D62E92E7892E39
:101E600091E0992E8C0E9D1EF401808191818F3F0F
:101E7000910540F0CC58DE4F19821882C457D140EA
:101E800011821082F401808191818C010C0F1D1F41
:101E90000E581F4FF801D082025710407C01089461
:101EA000E11CF11CF401F182E08284E7A82E81E0BC
:101EB000B82EAC0EBD1EF501808191818330910555
:101EC00009F45EC08430910554F48130910529F104
:101ED000823091050CF03FC0892B69F006C1853036
:101EE000910509F4A2C0853091050CF466C00697EF
:101EF00009F0FBC0A4C0F4E2DF1659F481E090E0E1
:101F0000F50191838083C358DE4F1882FE0112923F
:101F1000FEC0FE01EC54FE4FD6C08D2D992787FDE3
:101F200090950E947A1F892B91F00B581E4FF80153
:101F3000D082FE01E358FE4F80818D258083F6E03C
:101F4000EF16F1040CF4E3C082E090E074C0FE01EF
:101F5000E054FE4FB8C0FAE2DF1619F483E090E0D7
:101F60006AC0FE01E358FE4F8DE0D81629F4C4582C
:101F7000DE4F188210825DC080818D258083C7C0AE
:101F80000D2D112707FD1095C8010E94961F892B62
:101F9000B1F1F6E4FD159CF184E090E0F501918348
:101FA0008083F9E3FD1514F407531040802F8295C8
:101FB000807FC458DE4F8883AAC08D2D992787FD66
:101FC00090950E94961F892BD1F086E48D15BCF068
:101FD00085E090E0F50191838083C458DE4F28812D
:101FE000CC57D140F9E3FD151CF06D2D605302C0B4
:101FF0006D2D6753C458DE4F260F288388C0FE011D
:10200000EC53FE4F80819181A281B3810196A11D85
:10201000B11D80839183A283B383CC58DE4F198294
:102020001882FE011292129272C08DE0D81609F049
:1020300047C086E090E0F5019183808368C0FAE0B4
:10204000DF16F1F5EC0EFD1E82E790E0E80EF91EBA
:10205000F7011082FE01E358FE4FC458DE4F908115
:102060008881CC57D140981799F4CE010E94CF0EA9
:102070009C01FE01E055FE4F80819181A281B381D8
:102080000196A11DB11D80839183A283B38310C0EB
:10209000FE01EC53FE4F80819181A281B3810196B4
:1020A000A11DB11D80839183A283B38320E030E022
:1020B000CC58DE4F19821882FE011292129229C06A
:1020C000FE01E853FE4F80819181A281B381019688
:1020D000A11DB11D80839183A283B383F501118279
:1020E0001082F4011182108212C0FE01E454FE4FEE
:1020F00080819181A281B3810196A11DB11D808350
:102100009183A283B383CC58DE4F1982188220E0DA
:1021100030E0C901DF91CF911F910F91FF90EF90B7
:10212000DF90BF90AF909F908F9008958F929F9275
:10213000AF92BF92CF92DF92EF92FF920F931F93D5
:10214000CF93DF934C016A01FA010081118158019C
:10215000EE24FF24EB010CC0015010406881C40143
:102160000E94210F009749F40894E11CF11C21966C
:10217000EA14FB048CF380E090E0F6011183008305
:10218000DF91CF911F910F91FF90EF90DF90CF9053
:10219000BF90AF909F908F9008952F923F924F9253
:1021A0005F926F927F928F929F92AF92BF92CF92E7
:1021B000DF92EF92FF920F931F93CF93DF93CDB7F0
:1021C000DEB764970FB6F894DEBF0FBECDBF29838C
:1021D0003A834B835C836D837E838F839887A98644
:1021E000BA86CB86DC86ED86FE860F87188B6981E2
:1021F0007A818B819C812BED3FE049E450E40E9481
:102200000F1D20E030E044E353E40E949E1B698BE5
:102210007A8B8B8B9C8B69857A858B859C852BED46
:102220003FE049E450E40E940F1D20E030E044E329
:1022300053E40E949E1B1B012C0129893A894B897A
:102240005C890E94221B20E030E040E05FE30E94B6
:102250000F1D0E94571D3B014C016D857E858F85AA
:1022600098892BED3FE049E450E40E940F1D20E0E7
:1022700030E044E353E40E949E1B7B018C016D819E
:102280007E818F8198852BED3FE049E450E40E94E8
:102290000F1D20E030E044E353E40E949E1B9B01AD
:1022A000AC01C801B7010E94221B20E030E040E0F1
:1022B0005FE30E940F1D0E94571D5B016C01A4018A
:1022C0009301C401B3010E940F1D3B014C016989B8
:1022D0007A898B899C890E94981B7B018C01C201A1
:1022E000B1010E94981B9B01AC01C801B7010E947B
:1022F0000F1DA60195010E940F1DA60195010E94C8
:102300000F1D9B01AC01C401B3010E94231B5B01A3
:102310006C019B01AC0160E070E080E89FE30E94EB
:10232000221B0E946A1D7B018C01C601B5010E941F
:102330006A1DA80197010E94651B9B01AC010E94C8
:10234000231B20E038E147EC55E40E940F1D649602
:102350000FB6F894DEBF0FBECDBFDF91CF911F91B6
:102360000F91FF90EF90DF90CF90BF90AF909F9034
:102370008F907F906F905F904F903F902F90089537
:102380002F923F924F925F926F927F928F929F9285
:10239000AF92BF92CF92DF92EF92FF920F931F9373
:1023A000CF93DF93CDB7DEB764970FB6F894DEBF57
:1023B0000FBECDBF29833A834B835C836D837E83BD
:1023C0008F839887A986BA86CB86DC86ED86FE86C3
:1023D0000F87188B69817A818B819C812BED3FE07F
:1023E00049E450E40E940F1D20E030E044E353E450
:1023F0000E949E1B698B7A8B8B8B9C8B69857A855F
:102400008B859C852BED3FE049E450E40E940F1D35
:1024100020E030E044E353E40E949E1B5B016C012A
:102420006D857E858F8598892BED3FE049E450E4EA
:102430000E940F1D20E030E044E353E40E949E1B05
:102440007B018C016D817E818F8198852BED3FE032
:1024500049E450E40E940F1D20E030E044E353E4DF
:102460000E949E1B9B01AC01C801B7010E94221B68
:102470003B014C01C601B5010E94981B1B012C01B8
:1024800069897A898B899C890E94981B7B018C01C0
:10249000C601B5010E94571D9B01AC01C801B701DF
:1024A0000E940F1D5B016C0169897A898B899C8967
:1024B0000E94571DA20191010E940F1D7B018C01FA
:1024C000C401B3010E94981B9B01AC01C801B70174
:1024D0000E940F1D9B01AC01C601B5010E94221B89
:1024E0007B018C01C401B3010E94571DA20191011F
:1024F0000E940F1DA80197010E94651B20E030E09B
:1025000044E353E40E940F1D2BED3FE049E450E407
:102510000E949E1B64960FB6F894DEBF0FBECDBF1F
:10252000DF91CF911F910F91FF90EF90DF90CF90AF
:10253000BF90AF909F908F907F906F905F904F90E3
:102540003F902F900895682F8AE592E00E94D00175
:102550000895982FDB01C69820E030E007C08D91E8
:10256000FF27E259FF4F80832F5F3F4FE22F29174C
:10257000B0F390936D000895CF93DF93EB01C7986C
:1025800085E393E10E943B031092D90180916E0094
:10259000843641F1853630F4813651F0833609F0C6
:1025A00047C017C0873669F08F3609F041C009C0AF
:1025B00040917F025091800260918102709182026D
:1025C00004C043E455E562ED73E488E00E949104A1
:1025D0003AC04091730250917402609175027091FB
:1025E0007602F3CF20917702309178024091790200
:1025F00050917A0257FD05C0CA01B9010E94011C21
:1026000014C0CA01B90161707070807090705695E5
:10261000479537952795622B732B842B952B0E941A
:10262000011C9B01AC010E94231BAB01BC01CDCF5F
:102630008FEE91E09F938F9381E08F930E946505C9
:102640000F900F900F90DE0105C0FF27E557FA4F5E
:1026500080818D93EA2FEC1B8091D9018E17A8F70A
:102660008F5F9927DF91CF9108959091D9019F3184
:1026700068F4E92FFF27E557FA4F8083E92FEF5FD2
:10268000E093D901FF27E557FA4F10820895AF92E2
:10269000BF92CF92DF92EF92FF920F931F93CF934F
:1026A000DF93FC01DB01892B09F4FFCF672B09F4D1
:1026B000FFCF8081882319F06C91662329F460E0B4
:1026C00070E080E090E043C06E3419F4C1E0D0E0E7
:1026D00002C0CFEFDFEFCF010E94AC1D5B016C01A8
:1026E00020E030E048EC52E40E949E1B0E94E41B74
:1026F000882777FD8095982F0E94011C7B018C0113
:1027000020E030E048EC52EC0E940F1D9B01AC0130
:10271000C601B5010E94231B20E030E040E752E4EF
:102720000E949E1B9B01AC01C801B7010E94231BA4
:102730007B018C01BE01882777FD8095982F0E9430
:10274000011C9B01AC01C801B7010E940F1DDF9164
:10275000CF911F910F91FF90EF90DF90CF90BF909E
:10276000AF900895AF92BF92CF92DF92EF92FF9217
:102770000F931F93CF93DF93FC01DB01892B09F4A7
:10278000FFCF672B09F4FFCF8081882319F06C916C
:10279000662329F460E070E080E090E043C0653497
:1027A00019F4C1E0D0E002C0CFEFDFEFCF010E940B
:1027B000AC1D5B016C0120E030E048EC52E40E946B
:1027C0009E1B0E94E41B882777FD8095982F0E940E
:1027D000011C7B018C0120E030E048EC52EC0E94AF
:1027E0000F1D9B01AC01C601B5010E94231B20E017
:1027F00030E040E752E40E949E1B9B01AC01C801FF
:10280000B7010E94231B7B018C01BE01882777FD45
:102810008095982F0E94011C9B01AC01C801B70153
:102820000E940F1DDF91CF911F910F91FF90EF90AC
:10283000DF90CF90BF90AF900895AF92BF92CF92AC
:10284000DF92EF92FF920F931F93CF93DF93EC01F0
:102850005B01FB01048515850115110509F465C0AF
:10286000C058DE4F899199910E948E17AA2797FD33
:10287000A095BA2FF80180839183A283B383E88166
:10288000F9818081F80184832496688179819A9105
:102890008A910E944713F801658376838783908726
:1028A000269668817981CA58D140FE01E857FE4FCB
:1028B000808191810E94B213F801618772878387BA
:1028C0009487FE01E457FE4F808191810E94AC1DE8
:1028D000F801658776878787908BFE01E257FE4F68
:1028E000808191810E94AC1DF801618B728B838B7A
:1028F000948BFE01E057FE4F808191810E948E17DC
:10290000AA2797FDA095BA2FF801858B968BA78BE8
:10291000B08FFE01EE56FE4F808191810E94AC1D6A
:10292000F801618F728F838F948FC453DE4FDF93D2
:10293000CF9380E990E09F938F930E94E017CF544C
:10294000D0408881992787FD90959F938F938A9196
:10295000992787FD90959F938F93BF92AF9226976B
:10296000DF93CF93C657D14083E990E09F938F9335
:102970000E94E017FEE7CF2EF1E0DF2ECC0EDD1E29
:10298000EE24FF248DB79EB70E9614C0F6018191F8
:1029900091916F019F938F93FF92EF9286EA90E05F
:1029A0009F938F930E94E0170894E11CF11C8DB750
:1029B0009EB706960FB6F8949EBF0FBE8DBFC25548
:1029C000DE4F88819981CE5AD140E816F906F4F29B
:1029D000F501228533852115310551F0C453DD4FB2
:1029E00048815981CC5CD240B801CE01F9010995EA
:1029F00082E090E0DF91CF911F910F91FF90EF90D7
:102A0000DF90CF90BF90AF900895AF92BF92CF92DA
:102A1000DF92EF92FF920F931F93CF93DF93EC011E
:102A20005B01FB01048515850115110509F45DC0E5
:102A3000CC57DE4F688179819A918A910E94471321
:102A4000F8016083718382839383269668817981FC
:102A50009A918A910E94B213F801648375838683E8
:102A600097832C96688179819A918A910E94840E2D
:102A7000F801608771878287938760978881998141
:102A80000E948E17AA2797FDA095BA2FF801848778
:102A90009587A687B7872C96888199810E948E1783
:102AA000F801918B808B9A918A910E948E17F80180
:102AB000938B828B2496888199810E94AC1DF801AA
:102AC000648B758B868B978B289668817981C65924
:102AD000D140FE01EC56FE4F808191810E94840E10
:102AE000F801608F718F828F938FC453DE4FDF9315
:102AF000CF9380E990E09F938F930E94E017CF548B
:102B0000D0408881992787FD90959F938F938A91D4
:102B1000992787FD90959F938F93BF92AF922697A9
:102B2000DF93CF93C657D14083E990E09F938F9373
:102B30000E94E017AEE7CA2EA1E0DA2ECC0EDD1E11
:102B4000EE24FF248DB79EB70E9614C0F601819136
:102B500091916F019F938F93FF92EF9286EA90E09D
:102B60009F938F930E94E0170894E11CF11C8DB78E
:102B70009EB706960FB6F8949EBF0FBE8DBFC25586
:102B8000DE4F88819981CE5AD140E816F906F4F2D9
:102B9000F501228533852115310551F0C453DD4FF0
:102BA00048815981CC5CD240B801CE01F901099528
:102BB00081E090E0DF91CF911F910F91FF90EF9016
:102BC000DF90CF90BF90AF900895FC01892B09F45E
:102BD000FFCF8EEC92E0DF011D920197E9F7E453FD
:102BE000FD4F7183608380E090E00895CF92DF9283
:102BF000EF92FF920F931F93CF93DF93FC01EA01B3
:102C000079016801009709F4FFCFDC01A059BF4F9B
:102C10002D913C911197283031051CF08FEF9FEFDB
:102C200022C08EE090E0289F8001299F100D389FE0
:102C3000100D11240E0F1F1F2F5F3F4F2D933C933C
:102C40008EE0F80111928A95E9F745E050E0C8015D
:102C50000E94C917F801D187C087F386E286D5861E
:102C6000C48680E090E0DF91CF911F910F91FF909B
:102C7000EF90DF90CF900895CFE5D8E0DEBFCDBFD5
:102C80001092AB050E94360260E679E080E090E0A9
:102C90000E940B028AE592E00E943B030E948E0D87
:102CA00060EC72E180E090E00E940B028AE592E025
:102CB0000E943B030E941B0988E692E09F938F933A
:102CC00011E0F12EFF920E9465050E941B0984EF1E
:102CD00091E00E9472068BE592E09F938F93FF92A2
:102CE0000E9465050E94440B6FEF80EA0E94630B0F
:102CF00089EA92E10E946A0B8CEB92E10E946F0BD1
:102D000040E850E06AED71E08AE592E00E945E01E1
:102D100083EA92E10E944F028DE492E09F938F93A9
:102D2000FF920E9465056BE972E08DE992E00E94D6
:102D3000E5152DB73EB7275F3F4F0FB6F8943EBF5E
:102D40000FBE2DBF009771F09F938F938EE392E09B
:102D50009F938F93FF920E9465050F900F900F90A5
:102D60000F900F900FE712E020E030E045E055E1D2
:102D70006DEA70E08DE992E00E94F615009771F01F
:102D80009F938F938CE292E09F938F93FF920E9488
:102D900065050F900F900F900F900F9002E612E0D4
:102DA00020E030E04DE154E163EB70E08DE992E02A
:102DB0000E94F615009771F09F938F938AE192E03D
:102DC0009F938F93FF920E9465050F900F900F9035
:102DD0000F900F908AE092E09F938F93FF920E9452
:102DE000650540917F02509180026091810270914F
:102DF000820288E00E94910487E092E09F938F9383
:102E0000FF920E9465058DB79EB706960FB6F8949F
:102E10009EBF0FBE8DBF8AE592E00E946B01682FB6
:102E2000882309F45EC08DE992E00E94210F813071
:102E3000910519F0029709F054C0A0908702B09054
:102E40008802C0908902D0908A0220918B02309132
:102E50008C0240918D0250918E0257FD05C0CA012F
:102E6000B9010E94011C14C0CA01B90161707070DF
:102E7000807090705695479537952795622B732BE8
:102E8000842B952B0E94011C9B01AC010E94231BEB
:102E90003B014C01209183023091840240918502D4
:102EA0005091860260917F02709180028091810230
:102EB00090918202EEE6EF93E0907302F09074023C
:102EC00000917502109176021F930F93FF92EF927B
:102ED000840173010E94DC0D0F900F900F900F90F2
:102EE0000F9084E092E09F938F9311E01F930E94D4
:102EF00065050F900F900F908091AB05882309F422
:102F00008ACF1093AB0588EF91E09F938F931F9327
:102F10000E9465050F900F900F907DCFFC018827D0
:102F20009927E89421912223F1F02032D9F3293016
:102F3000C9F32A30B9F32C30A9F32D3099F3263791
:102F400089F32B3219F02D3221F468942191222338
:102F500051F0203344F02A3334F420530E94D81720
:102F6000820F911DF3CF8115910521F01EF48095FC
:102F7000909501960895FB01DC014150504030F0DE
:102F80008D910190801919F40020B9F7881B990BD5
:102F90000895FB01DC014150504048F001900D9232
:102FA0000020C9F701C01D9241505040E0F708953C
:102FB0007AE0979F902D879F802D910D1124089581
:102FC000CF93DF93CDB7DEB722970FB6F894DEBF6D
:102FD0000FBECDBFE7E0F0E0EC0FFD1F61917191F6
:102FE000FA83E983AF018091AE059091AF050E940D
:102FF000021822960FB6F894DEBF0FBECDBFDF9148
:10300000CF9108952F923F924F925F926F927F924D
:103010008F929F92AF92BF92CF92DF92EF92FF92E8
:103020000F931F93CF93DF93CDB7DEB762970FB6A1
:10303000F894DEBF0FBECDBF8824992454012C0123
:103040007A8B698B3A01FC0117821682838181FD9C
:103050006EC28FEF9FEF91C229893A892F5F3F4F50
:103060003A8B298BC0FE66C2832D80538A30E0F4F0
:1030700030E3331641F48D85882329F4C3FC03C063
:10308000E0E0F1E07BC08AE0FD85F802C001112498
:10309000380E232D20532D8727FF02C03FE73D87A1
:1030A000C3FC5AC22D8458C2C601B3E096958795D9
:1030B000BA95E1F781709070282F882329F08D85CB
:1030C000882311F491E09D87832D992787FD9095A2
:1030D000E7E6E31564F1F5E63F160CF065C033E56D
:1030E000331609F48FC03315B4F0EBE23E1609F441
:1030F0003FC0E31544F0F0E23F16F1F123E232164F
:1031000009F012C241C03DE23316D9F1EEE23E169B
:1031100009F00AC23EC0F3E63F1609F44BC0F315AE
:103120000CF48AC028E5321609F0FEC1B5C030E7BC
:10313000331609F4ABC033155CF0ECE63E1679F1BA
:10314000FFE63F1691F029E6321609F0EDC174C092
:1031500035E7331609F4A2C0E8E73E1609F49CC02F
:10316000F3E73F1609F0E0C12DC028E0288B96C098
:1031700080E190E0C82AD92AE0E2F0E0CE2ADF2AF6
:10318000EBC120E830E00DC080E490E0C82AD92AE5
:10319000E3C1E8E0F0E0CE2ADF2A1D86DDC124E0AD
:1031A00030E0C22AD32AD8C1AFE38A2E2A94F3E6AC
:1031B0003F2E44C1F30180802A9422E030E0620E69
:1031C000731E3CC183010E5F1F4FF301A081B181CB
:1031D0004D01222351F0FD856F2F772767FD7095F4
:1031E000CD010E94EA1A888B07C0FD0101900020E2
:1031F000E9F73197EA1BE88B2889221A3801E3E7BF
:103200003E2E1CC183010E5F1F4FF301808191810F
:103210004C01222341F0FD856F2F772767FD7095C4
:103220000E94DF1A02C00E94D61A888B2889221AAF
:10323000380173E5372E02C1C2FE08C0F301808158
:103240009181A281B38124E030E009C0F301808143
:103250009181AA2797FDA095BA2F22E030E0620E57
:10326000731E4C015D01B7FF0CC082E090E0C82ADC
:10327000D92AB094A09490948094811C911CA11C94
:10328000B11CEFEBFFEFCE22DF2221C020E430E0C3
:10329000C22AD32A68E7362E30E1388BC2FE08C036
:1032A000F30180819181A281B38124E030E007C0E5
:1032B000F30180819181AA27BB2722E030E0620ED2
:1032C000731E4C015D018FEC9FEFC822D92285014E
:1032D0007401FE013196FF87EE87F8898F2E9924BD
:1032E000AA24BB24C801B701A50194010E94061FAE
:1032F0006A301CF0630D615201C0605DEE85FF8590
:103300006193FF87EE87C801B701A50194010E9470
:10331000061F79018A01211531054105510511F773
:10332000882499245401CE0101964E85481B842E91
:10333000C60182739070892B09F02A94C6FE07C0DB
:10334000F889F03111F482E001C081E0281AC3FE4F
:1033500012C08D85282F332727FD3095842F99277C
:10336000821793072CF0E7EFFFEFCE22DF2203C096
:10337000FD85F41BFD87C60153E0969587955A9508
:10338000E1F781709070082F882319F02D85221A9B
:1033900001C0241AC60180789170892B69F4822DAE
:1033A00006C0B20180E290E00E94F51A812F182F2A
:1033B00011501816B4F3212EC1FE04C0B2018DE2E3
:1033C00090E00BC0C4FE04C0B2018BE290E005C0E7
:1033D000C5FE05C0B20180E290E00E94F51AC6FE6B
:1033E0000FC0B20180E390E00E94F51A38893031B5
:1033F00039F4B201832D992787FD90950E94F51A23
:10340000D0FE0DC0822D06C0B20180E390E00E9484
:10341000F51A812F182F11501816B4F3212E0023FE
:1034200069F02D8506C0B20180E390E00E94F51A94
:10343000212F122F11501216B4F31D87C601880FC9
:10344000892F881F990B919521E0C22ED12CC8227B
:10345000D92280FD0DC0822D06C0B20180E290E02D
:103460000E94F51A812F182F11501816B4F3212E2F
:1034700083E6381641F4B201882D992787FD90958F
:103480000E94F51A41C093E7391691F48401FF2494
:103490000AC0F80181918F01B201992787FD9095AB
:1034A0000E94F51AFA9488898195F81691F716C04A
:1034B00023E5321619F00E851F851FC08401FF24F5
:1034C00009C0F8018491B20199270E94F51A0F5F93
:1034D0001F4FFA9488898195F81699F7F889FF0D9E
:1034E000F150F88B480110C0F80182918F01B201B0
:1034F000992787FD90950E94F51ACE01019608172D
:10350000190791F71F870E87CD2889F0822D06C0F5
:10351000B20180E290E00E94F51A812F182F11501D
:103520001816B4F3212E03C0B2010E94F51ACC2460
:10353000DD2412C0F5E23F1641F481E0C82ED12C03
:103540001D8622242AE0288B07C0B201832D9927EB
:1035500087FD90950E94F51AF201838183FF04C0D4
:10356000E989FA89349003C0E989FA8930803320E7
:1035700009F072CDF2018681978162960FB6F894B8
:10358000DEBF0FBECDBFDF91CF911F910F91FF9096
:10359000EF90DF90CF90BF90AF909F908F907F90F3
:1035A0006F905F904F903F902F900895FC01059091
:1035B0000020E9F7809590958E0F9F1F0895FC01DC
:1035C0000590615070400110D8F7809590958E0F4E
:1035D0009F1F0895FC016150704001900110D8F7C1
:1035E000809590958E0F9F1F08950F931F93CF93F3
:1035F000DF938C01EB018B81992781FF1BC082FF38
:103600000DC02E813F818C819D812817390764F47C
:10361000E881F9810193F983E88306C0E885F9859B
:10362000802F0995892B31F48E819F8101969F838C
:103630008E8302C00FEF1FEFC801DF91CF911F9162
:103640000F9108955058192E8CD101D03CC1BA1752
:103650006207730784079507B1F188F40EF410949C
:103660000B2EBA2FA02D062E622F202D072E732F82
:10367000302D082E842F402D092E952F502DFF27F9
:103680005523B9F0591B49F0573E98F046953795A8
:103690002795A795F0405395C9F776F0BA0F621FAA
:1036A000731F841F30F4879577956795B795F04021
:1036B000939517FA0F2E0895BF1BBB27BA0B620B09
:1036C000730B840BF6CFDEF678C1552319F09923DE
:1036D00051F018C09923A1F097FB6BED7FE089ECC6
:1036E0009FE397F90895552359F02AF46BED7FE095
:1036F00089E490E408956627772788279927089515
:103700000C947B1C1F93112797FD116057FD1260CD
:103710000E949E1B0E94681E11FF08C02BED3FE017
:1037200049E450E410FD50680E94231B1F91089546
:1037300050E449EC3FE02BED6ED0A2C012D101D095
:10374000C2C0552359F0992369F09F575F57951BC5
:1037500033F442F4903811F4915805C0CCC091581C
:103760009F3F09F42AC1BB271124621773078407FE
:1037700030F4660F771F881FBB1F915098F311D04C
:103780000F920FD00F920DD0A0E8261737074807E9
:103790001B0609F0A048BA2F602D7F918F9100245D
:1037A0000895A0E80024621773078407B10528F084
:1037B000621B730B840BB1090A2A660F771F881FDF
:1037C000BB1FA69581F7089597FBD7D09F3738F098
:1037D000FEE9F91B982F872F762F6B2F05C0EAC0C3
:1037E0009695879577956795F150D0F73EF490952B
:1037F0008095709561957F4F8F4F9F4F0895E89406
:1038000003C097FB0EF4F3DFB62F672F782F892FB5
:103810009EE9002458C05F77552319F444230AF029
:103820006AC02F933F934F935F9388DF55274427B8
:10383000C6D05F914F913F912F91F1C00ED05EF0B5
:1038400004C00BD026F001C008D019F020F48FEF8F
:10385000089580E0089581E0089597FB092E0526DC
:1038600000F8689481D0E89407FC07C062177307DA
:103870008407950721F008F400940794989408951C
:103880001F939F7750EC49E43FE02BEDDCDE10E81E
:103890009F775FE349EC3FE02BED621773078407E6
:1038A000950720F050EC49E4CEDE112751D1906805
:1038B000E4E5F0E023D091271F9108959A95BB0F7E
:1038C000661F771F881F11249923A1F08823B2F760
:1038D0009F3F59F0BB0F48F421F4002011F460FF22
:1038E00004C06F5F7F4F8F4F9F4F881F97958795BD
:1038F00097F908955FC09FEF80EC0895FF92EF92D3
:10390000DF92CF92BF926B017C01B59016D0B5903B
:10391000BB2069F09F938F937F936F93B601C7018C
:103920000CD02F913F914F915F910E949E1BBF90B1
:10393000CF90DF90EF90FF900895F9D102C09601EB
:10394000A701EF93FF930E940F1DFF91EF91EFD11D
:10395000EF93FF930E94231BFF91EF91BA9479F7A5
:103960000895052E092607FA440F551F5F3F79F089
:10397000AA27A51708F051E04795880F991F9F3F88
:1039800031F0BB27B91708F091E0879508959F9112
:103990009F911124B0CF97FB880F991F9F3F31F063
:1039A000BB27B91708F091E0879508959F919F91E3
:1039B0001124A1CF66277727882799270895EBDF61
:1039C000CF93DF93D52FC42F5527442733272227A2
:1039D0009923D9F09F37C8F0F92F75DF592F482F59
:1039E000372F262FF63968F4EFDE0BDFC030CD0716
:1039F00021F069937993899399939058DF91CF91AE
:103A000022CE9927882777276627C030CD0721F057
:103A10002993399349935993DF91CF9154CFA1DFE3
:103A200001D051CF992339F0552329F09F575F5783
:103A3000950F13F49AF1C1CF91589F3FE1F3629F24
:103A4000A12D0F92BB27639FA00DB11DEE27729F82
:103A5000A00DB11DEE1FAF93AA27649FB00DE11D0D
:103A6000739FB00DE11DAA1F6627829FB00DE11D57
:103A7000A61F5527749FE00DA11D551F839FE00DC4
:103A8000A11D561F849FA00D511D852F7A2F6E2FCB
:103A90001F900F9088231AF4939539F42CCF000CC3
:103AA000111CBB1F661F771F881F012808959F9355
:103AB0009F77993358F050E449EC3FE02BEDABDEB3
:103AC0005FEB49EC3FE02BEDBEDDDADE5F91507835
:103AD0009527089597FD0FCF992309F40895482F4E
:103AE0005ADFF92FFF57F5959F1B9F1BFF93EBDEC6
:103AF000FF92EF92DF92CF92BF92AF929F928F92FE
:103B00006B017C01405847953327222740685FE3CB
:103B1000B601C70149015A010E949E1B9401A501EB
:103B20000E94231B4FEF5FEF0FD19B01AC01821668
:103B30009306A406B50661F78F909F90AF90BF9053
:103B4000CF90DF90EF90FF905F9125DF950FBBCE78
:103B50009B01AC010C940F1D77276627B3D0C82FAB
:103B6000D92F7F936F939D2E8C2E09910032E9F30C
:103B70000930D9F30637C9F30C30B9F30A30A9F389
:103B80000D3099F353D070D0EEF139DE17FB97F971
:103B9000C92ED82EE72EF62E88270062053651F45E
:103BA000099144D04BD0992319F017FD3DC036C080
:103BB00017FD8195EAE7F0E0182F9C2D8D2D7E2DC5
:103BC0006F2D9F779817870776076105D9F01A0D33
:103BD0003AF411957896912F9B1997322CF504C0E1
:103BE000912F9B0D9732D4F49C2D112359F01595EC
:103BF00038F49DD0EF93FF9312DFFF91EF91F5CF53
:103C00003496F3CFEF91FF91E030EF0711F08192FE
:103C10009082ECE0CDB7DEB70C94651F9C2D9F67BA
:103C20008FE77FEF6FEFEECFC5DEECCF11270B32C2
:103C300019F00D3211F41068099108958827992719
:103C400000338CF011F415FF0AC00A3364F41062DB
:103C5000992329F40E94D8170F70800F911D9D2E73
:103C60008C2E0991EDCF08956894A4DEBB24BA94FC
:103C7000AA240E3229F416FD24C0106406F11DC0DA
:103C80000033FCF019F4E89415FF12C00A33CCF4A9
:103C900010629F3084F4B394E89455274427332767
:103CA0002AE00E94C01E0F70600F711D811D911DC2
:103CB00016FDAA9402C016FFA3949D2E8C2E099186
:103CC000D8CF0895AA27BB27FF91EF910C94491FE5
:103CD0001F930F930027192F10789F775FE340E819
:103CE000613071058407950718F000680E949C1EDA
:103CF000912B6F937F938F939F930E94A81DEAEA65
:103D0000F0E0FCDD5F914F913F912F910E940F1DDC
:103D1000002351F02BED3FE049EC5FE300E89027F2
:103D200017FD50680E94231B0F911F910895559114
:103D300045913591259108959B01AC019FE380E861
:103D4000772766270C949E1B26DE992359F0AA2715
:103D5000940FA51F43F032F04FEF50E09417A507E2
:103D600014F4B1CD27CE0EF006C000C09FEF80E85E
:103D700070E060E008959FE780E870E060E00895FB
:103D8000629FD001739FF001829FE00DF11D649F3F
:103D9000E00DF11D929FF00D839FF00D749FF00DCB
:103DA000659FF00D9927729FB00DE11DF91F639F6C
:103DB000B00DE11DF91FBD01CF0111240895AA1B0B
:103DC000BB1B51E107C0AA1FBB1FA617B70710F006
:103DD000A61BB70B881F991F5A95A9F78095909538
:103DE000BC01CD01089597FB092E07260AD077FD67
:103DF00004D0E5DF06D000201AF4709561957F4F5E
:103E00000895F6F7909581959F4F0895A1E21A2E97
:103E1000AA1BBB1BFD010DC0AA1FBB1FEE1FFF1F6E
:103E2000A217B307E407F50720F0A21BB30BE40BBE
:103E3000F50B661F771F881F991F1A9469F7609505
:103E40007095809590959B01AC01BD01CF010895BF
:103E500097FB092E05260ED057FD04D0D7DF0AD0D8
:103E6000001C38F450954095309521953F4F4F4FA9
:103E70005F4F0895F6F790958095709561957F4F07
:103E80008F4F9F4F08952F923F924F925F926F9264
:103E90007F928F929F92AF92BF92CF92DF92EF92DA
:103EA000FF920F931F93CF93DF93CDB7DEB7CA1B5B
:103EB000DB0B0FB6F894DEBF0FBECDBF09942A8886
:103EC000398848885F846E847D848C849B84AA842E
:103ED000B984C884DF80EE80FD800C811B81AA81BB
:103EE000B981CE0FD11D0FB6F894DEBF0FBECDBF86
:103EF000ED010895911107C08F9312D088238F91FF
:103F000009F0089505C099278827089585FDFBCFFE
:103F100080629111F8CF8136ECF38B37DCF708958E
:103F20009111F1CF80538A50E0F70895082E8062F6
:103F3000813624F087360CF40895E5CF802DF0CF3C
:103F4000550041004B004D005A4500570020546871
:103F500069732073686F756C642062652066696C94
:103F60006C696E67207769746820646174612100F0
:103F700025730025733D3D257320253032783D3D66
:103F8000253032780A0025643A25730A00475047E5
:0A3F90004741004750524D43000026
:00000001FF
