:100000000C9441000C945C000C945C000C945C001B
:100010000C945C000C945C000C945C000C945C00F0
:100020000C945C000C945C000C945C000C94FA0042
:100030000C945C000C94A5020C94B1020C945C002E
:100040000C945C000C945C000C945C000C945C00C0
:100050000C945C001702B601990102FF028D018B1E
:1000600002018A022F01A30101636F6D70202564D4
:1000700000636F6D702025640062617474203130FC
:10008000300011241FBECFE5D8E0DEBFCDBF10E0A9
:10009000A0E6B0E0E2E5F7E102C005900D92AA3DCE
:1000A000B107D9F713E0AAEDB0E001C01D92A73661
:1000B000B107E1F70C94D8010C940000109298015C
:1000C0001092DD001092DC001092F20008950F9360
:1000D0001F939C018B019091F2008FE0989FC001CB
:1000E0001124B9018D509F4F0E946A048091F20043
:1000F000E82FFF27EE0FFF1FE252FF4F118300830F
:100100008F5F8093F2001F910F9108959093DB0011
:100110008093DA0008951F93CF93DF9310E08091CE
:10012000F200181748F5A12FBB27FD0184E0EE0F60
:10013000FF1F8A95E1F7EA1BFB0BED50FF4F808113
:10014000C82FDD2780918901C81BD109209779F438
:10015000AA0FBB1FA252BF4FED91FC91F093DD009F
:10016000E093DC000995D093DD00C093DC001F5FB5
:100170008091F2001817B8F2DF91CF911F91089586
:10018000909198018D3049F0E92FFF27E757FE4FF6
:1001900080839F5F909398010895E92FFF27E75789
:1001A000FE4F10820E948B001092980108958BE8F8
:1001B00091E00895CF93DF93CDB7DEB722970FB6C6
:1001C000F894DEBF0FBECDBF0E94D7004AE050E0DA
:1001D000BE016F5F7F4F0E944F03DC01CB01BC016A
:1001E000CD0122960FB6F894DEBF0FBECDBFDF91D2
:1001F000CF9108950E94610982B78F5382BF0E94F8
:10020000FB0A0E94AD090F931F93CF93DF938C01DC
:10021000EB018881882331F08991F8010995888163
:100220008823D1F7DF91CF911F910F9108950F93FC
:100230001F93CF93DF938C01EB01FB018491882303
:1002400049F0FE0121968491F8010995FE018491FF
:100250008823B9F7DF91CF911F910F910895CF9324
:10026000DF93CDB7DEB726970FB6F894DEBF0FBE8B
:10027000CDBF00E010E01F930F9389E690E09F93BD
:100280008F930E943D0560915D0370915E038DE048
:1002900090E00E94FB0460915D0370915E038AE030
:1002A00090E00E94FB040F5F1F4F64E670E0CE01F8
:1002B00001960E94CD0A0F900F900F900F9081E051
:1002C00008361807C4F208E611E01F930F9381E780
:1002D00090E09F938F930E943D0560915D03709124
:1002E0005E038DE090E00E94FB0460915D037091DD
:1002F0005E038AE090E00E94FB040150104064E637
:1003000070E0CE0101960E94CD0A0F900F900F90E1
:100310000F9010161106CCF2ACCFCF93DF93CDB770
:10032000DEB726970FB6F894DEBF0FBECDBF89E7C4
:1003300090E09F938F930E943D0560915D037091C3
:100340005E038DE090E00E94FB0460915D0370917C
:100350005E038AE090E00E94FB0460ED77E0CE014E
:1003600001960E94CD0A0F900F90E1CF15C0CD30BD
:10037000D10579F460915D0370915E03CE010E9416
:10038000FB0460915D0370915E038AE090E00E943F
:10039000FB048C2F0E94C00080915B0390915C0352
:1003A0000E94B804EC018FEFCF3FD80701F7F4CFDC
:1003B000CFE5D8E0DEBFCDBF80E090E00E94E60947
:1003C00080E885BF81EC82BF84E083BF81E089BF84
:1003D00081E290E00E9471026BE972E082E992E0B2
:1003E0000E9471040E945E0082E695E00E948600F1
:1003F00063E172E080E690E00E94670062E472E0F0
:1004000082E690E00E94670082E690E00E94F20996
:100410008BE590E00E94F20984E590E00E94F209E9
:100420000E94AD09FFCF0E94DA00DC01CB0180936E
:10043000180290931902A0931A02B0931B02BF9363
:10044000AF939F938F9384E690E09F938F930E9446
:10045000280560915D0370915E038DE090E00E943D
:10046000FB0460915D0370915E038AE090E00E945E
:10047000FB048DB79EB706960FB6F8949EBF0FBECD
:100480008DBF08950E94DA00DC01CB0180939F01AB
:100490009093A001A093A101B093A201BF93AF9349
:1004A0009F938F938AE990E09F938F930E942805F2
:1004B00060915D0370915E038DE090E00E94FB040B
:1004C00060915D0370915E038AE090E00E94FB04FE
:1004D0008DB79EB706960FB6F8949EBF0FBE8DBF20
:1004E00008951F9389B9892F992780BD82E08BB920
:1004F00088E98AB986E880BD87E293E00E942203FA
:1005000010E210932D0380E093E00E9422031093E9
:1005100006031F910895682F80E093E00E94BF02B8
:10052000559A0895682F80E093E00E94FC02559A46
:1005300080E090E0089587E293E00E94DB02089556
:1005400087E293E00E94110308950E946109579881
:1005500078946CB187E293E00E94BF02579A0E94A0
:10056000AD090E9461095598789480E093E00E945B
:10057000DB0297FD02C08CB9559A0E94AD09DC01DF
:10058000FC012481922F9F5F8681981708F090E0EC
:10059000FD018581981719F48FEF9FEF0895FD01F4
:1005A000E20FF11D6783FD019483CD010E94640A6F
:1005B00080E090E00895CF93DF93DC01FC0184811B
:1005C0009581891719F48FEF9FEF13C0FD01E90F93
:1005D000F11D8781C82FDD279F5FFD018681981758
:1005E00008F090E0FD019583CD0102960E94640A17
:1005F000CE01DF91CF9108951F93CF93DF93EC014C
:10060000162F04C0CE0102960E944D0A612FCE0122
:100610000E94BF028F5F9F4FA9F3DF91CF911F917F
:100620000895CF93DF93EC0103C0CE010E944D0AE1
:10063000CE010E94DB022FEF8F3F9207B1F3DF91D3
:10064000CF9108950F931F938C01FC0114821582A2
:1006500002960E94C00AC8010E94C00A1F910F9111
:100660000895FC0184819581891719F48FEF9FEF1C
:100670000895E90FF11D878199270895FC018FB72F
:10068000F8949481292F33279581291B31098FBF35
:1006900037FF03C08681280F311DC90108954F928D
:1006A0005F926F927F928F929F92AF92BF92CF9202
:1006B000DF92EF92FF920F931F93CF93DF938C0102
:1006C0002B01EA01EE246115710519F0FB019183FC
:1006D0008083209749F0CE010297839728F060E04D
:1006E00070E080E090E0E5C0F801F1908F018F2D7F
:1006F00099270E94560B892BB9F7FDE2FF1619F4D2
:1007000041E0E42E03C0FBE2FF1619F4F801F1907A
:100710008F01209719F0C031D10591F4F0E3FF1655
:1007200079F4F8018081883711F0883549F4F801AF
:10073000F1800E5F1F4FC0E1D0E0F2E0EF2A0AC067
:10074000209741F480E3F81619F4C8E0D0E002C025
:10075000CAE0D0E0C830D105E9F0C930D10524F4B1
:10076000C230D105E9F022C0CA30D10521F0C03134
:10077000D10551F01BC03CECA32E3CECB32E3CEC5D
:10078000C32E3CE0D32E1FC0A12CB12CC12C28E0DD
:10079000D22E19C0A12CB12CC12C90E1D92E13C09E
:1007A000A12CB12CC12C80E4D82E0DC09E01442771
:1007B00037FD4095542F60E070E080E090E80E94A3
:1007C000870B59016A0120E030E040E050E060E032
:1007D0003E01882477FC8094982C8F2D80538A309A
:1007E00010F4F82E0DC08F2D81548A3118F4E9ECE5
:1007F000FE0E06C08F2D81568A3148F5F9EAFF0EAC
:100800008F2D99278C179D0714F567FD1CC0A21624
:10081000B306C406D506A0F0CA01B901A40193012C
:100820000E94680B9B01AC012F0D311D411D511D14
:10083000213080E0380780E0480780E8580710F052
:100840006FEF01C061E0F801F1908F01C6CF411454
:10085000510461F0662319F00150104004C0E1FE1C
:1008600005C002501040F201118300838E2D99279C
:1008700067FF07C080FF11C020E030E040E050E893
:1008800010C080FF08C050954095309521953F4F8E
:100890004F4F5F4F0CC057FF0AC02FEF3FEF4FEF96
:1008A0005FE782E290E09093620380936103CA0164
:1008B000B901DF91CF911F910F91FF90EF90DF90E1
:1008C000CF90BF90AF909F908F907F906F905F90F0
:1008D0004F900895FB01DC0101900D920020E1F79B
:1008E00008950F931F93CF93DF938C01EB01009733
:1008F00011F4672BC1F16EE070E081E090E00E949E
:100900002608FC01892B71F180E88383209771F020
:10091000D387C28781E8838380915B0390915C03D6
:10092000892B21F4F0935C03E0935B03011511051F
:10093000C9F01187008783818260838380915D0382
:1009400090915E03892B71F4F0935E03E0935D0355
:1009500080915F0390916003892B21F4F0936003F1
:10096000E0935F03CF01DF91CF911F910F91089525
:10097000CF93DF93EC014B81842F992780FF2EC00A
:1009800086FF09C04F7B4B838E819F8101969F8399
:100990008E838A812CC082FF11C0E881F981808119
:1009A000282F332727FD30952115310519F4406292
:1009B0004B8314C03196F983E88313C0EA85FB8525
:1009C000CE0109959C0197FF0CC08B8199272F5F61
:1009D0003F4F11F4806101C080628B838FEF9FEFE6
:1009E00007C08E819F8101969F838E83822F9927D6
:1009F000DF91CF9108950F931F93CF93DF938C01D5
:100A0000EB018B81992781FF1CC082FF0DC02E81D5
:100A10003F818C819D812817390764F4E881F98131
:100A20000193F983E88306C0E885F985802F09954D
:100A3000892B39F48E819F8101969F838E83C80113
:100A400002C08FEF9FEFDF91CF911F910F9108951B
:100A5000CF93DF93CDB7DEB7E5E0F0E0EC0FFD1FFD
:100A600081919191AF01BC0180915D0390915E03F2
:100A70000E946905DF91CF910895CF93DF93CDB7A1
:100A8000DEB745E050E04C0F5D1FFA012191319136
:100A9000AF01A0915D03B0915E03FD018381886089
:100AA0008383B90180915D0390915E030E94690583
:100AB000E0915D03F0915E032381277F2383DF9123
:100AC000CF91089560915D0370915E030E94FB04D5
:100AD00008952F923F924F925F926F927F928F92E2
:100AE0009F92AF92BF92CF92DF92EF92FF920F93BD
:100AF0001F93CF93DF93CDB7DEB762970FB6F8940D
:100B0000DEBF0FBECDBFEE24FF2487011C017E8710
:100B10006D872A01CC24DD24FC01D782C682838123
:100B200081FD68C28FEF9FEF78C28D859E8501960B
:100B30009E878D87C0FE4BC28F8580538A30D0F44C
:100B40009F85903339F4662029F4C3FC03C0E0E0AC
:100B5000F1E08DC08AE0689E602C1124FF856F0E45
:100B600020ED620E67FE02C05FE7652EC3FC42C245
:100B7000762C40C2C3FE04C0662011F441E0642E0E
:100B8000EF858E2F992787FD9095883691058CF5F6
:100B9000853691050CF06EC08335910509F493C03C
:100BA00084359105CCF48B32910509F449C08C321F
:100BB00091054CF48032910509F446C083329105C9
:100BC00009F44AC0FEC18D32910509F440C08E324D
:100BD000910509F444C0F5C18336910509F450C06C
:100BE000843691050CF08AC08835910509F4BCC0A3
:100BF000E8C18037910509F4B1C08137910584F4CB
:100C00008C36910591F18D3691052CF4893691053C
:100C100009F474C0D6C18F36910509F49CC0D1C1C6
:100C20008537910509F4A2C08637910524F48337EE
:100C3000910571F1C6C18837910509F495C0C1C10C
:100C400080E190E0C82AD92AE0E2F0E010C080E814
:100C500090E0C82AD92ACEC1E0E4F0E008C088E0DC
:100C600090E0C82AD92A6624C5C1E4E0F0E0CE2A83
:100C7000DF2AC0C13FE3E32E7A94F3E6FF873CC14D
:100C8000F20182E090E0480E591EE0807A9434C16F
:100C9000F20182E090E0480E591EA081B1817D01F1
:100CA000C3FE09C0862D992787FD9095BC01CD0113
:100CB0000E9456091FC0FD0101900020E9F73197FD
:100CC000EA1BE88B18C0F20182E090E0480E591E42
:100CD0000190F081E02D7F01C3FE09C0862D992788
:100CE00087FD9095BC01CF010E94410903C0CF014F
:100CF0000E943809888B9889791AFEC0C2FE0AC002
:100D0000F20184E090E0480E591E20813181428139
:100D100053810CC0F20182E090E0480E591E8081A0
:100D200091819C01442737FD4095542F79018A0118
:100D300057FF0CC0E2E0F0E0CE2ADF2A10950095C4
:100D4000F094E094E11CF11C011D111D8FEB9FEF4D
:100D5000C822D92227C098E0988B08C0E0E4F0E0D0
:100D6000CE2ADF2AF8E7FF8720E1288BC2FE0AC0DF
:100D7000F20184E090E0480E591E208131814281C9
:100D800053810AC0F20182E090E0480E591E808132
:100D900091819C014427552779018A01EFECFFEFEF
:100DA000CE22DF22CE0101969A8B898B9889892EDB
:100DB0009924AA24BB24C801B701A50194010E946B
:100DC000870BDC01CB01E989FA8980838A3024F022
:100DD000FF858F0F815201C0805DE989FA89819377
:100DE000FA8BE98BC801B701A50194010E94870B1A
:100DF00079018A012115310541055105E1F6E9889E
:100E000081E090E08C0F9D1FE81AC60182739070FC
:100E1000892B09F07A94C6FE0DC0872D992787FD8E
:100E20009095E889E03121F42EEF722E780E02C001
:100E3000782E7A94C3FE0FC0262D332727FD3095D8
:100E40008E2D9927821793072CF087EF9FEFC822EA
:100E5000D92201C06E18C3FE02C0761801C07E18E8
:100E6000C60180789170892B51F4872D7A941816D9
:100E700034F4B10180E290E00E94FB04F6CFC1FEA1
:100E800004C0B1018DE290E00BC0C4FE04C0B1010A
:100E90008BE290E005C0C5FE05C0B10180E290E0A4
:100EA0000E94FB04C6FE10C0B10180E390E00E94E6
:100EB000FB049889903141F4B101EF858E2F992779
:100EC00087FD90950E94FB04D0FE0AC0872D7A947E
:100ED000181634F4B10180E390E00E94FB04F6CFD1
:100EE000C3FE0AC0862D6A94181634F4B10180E35B
:100EF00090E00E94FB04F6CF90E8B92EBC2051F49C
:100F0000872D7A94181634F4B10180E290E00E94A3
:100F1000FB04F6CFFF85F33641F48E2DB1019927FE
:100F200087FD90950E94FB0440C02F852337B1F4C4
:100F300088898150888B8F3FC1F1F70180810894A7
:100F4000E11CF11CB101992787FD90950E94FB04DB
:100F500098899150988B9F3F81F727C0EF85E335A3
:100F600079F4F889F150F88BFF3FF9F0F70184919B
:100F7000B10199270E94FB040894E11CF11CF1CFF8
:100F80006E010894C11CD11C89899A898C159D0514
:100F900061F0E989FA898291FA8BE98BB10199278D
:100FA00087FD90950E94FB04EFCFBB2069F0872D51
:100FB0007A9418164CF4B10180E290E00E94FB0490
:100FC000F6CFB1010E94FB04CC24DD2413C09F8521
:100FD000953241F481E0C82ED12C6624762CEAE0CB
:100FE000E88B08C0B101FF858F2F992787FD909569
:100FF0000E94FB04F101838183FF04C0ED85FE851F
:10100000F49103C0ED85FE85F081FF872F852223B3
:1010100009F08BCDF1018681978162960FB6F89425
:10102000DEBF0FBECDBFDF91CF911F910F91FF901B
:10103000EF90DF90CF90BF90AF909F908F907F9078
:101040006F905F904F903F902F9008950F931F9354
:10105000CF93DF93869F8001879F100D969F100D81
:101060001124C8010E944208EC01009729F0A80150
:1010700060E070E00E944C09CE01DF91CF911F919A
:101080000F910895CF93DF93AC01029710F442E0E3
:1010900050E020E030E0A0916503B0916603BD010F
:1010A000F901109709F44CC08D919C911197841708
:1010B000950731F14817590738F42115310519F012
:1010C0008217930708F49C01FD01A281B381109758
:1010D00059F721153105A1F1C901841B950B04971E
:1010E00008F4A901DB01E0E0F0E0109749F18D91EF
:1010F0009C91119782179307F9F44217530779F4DB
:10110000ED018A819B81309719F09383828304C01B
:101110009093660380936503CD0102964AC0241B19
:10112000350BFD01E20FF31F4193519322503040E4
:101130002D933C93CF013DC0FD01A281B381D5CF5A
:101140008091630390916403892B41F48091D600D0
:101150009091D7009093640380936303E091D4004F
:10116000F091D500309741F4EDB7FEB78091D800EB
:101170009091D900E81BF90BA0916303B09164032F
:101180009F012A1B3B0B2417350788F0CA010296E2
:101190002817390760F0CD01840F951F02969093B0
:1011A0006403809363034D935D93CD0102C080E09F
:1011B00090E0DF91CF910895CF93DF93009709F4EA
:1011C00054C0DC011297ED011B821A8280916503E5
:1011D00090916603009721F1FC0140E050E0EA178E
:1011E000FB0718F1ED01FB83EA832D913C911197E8
:1011F000C20FD31FCE0102968E179F0771F48A810A
:101200009B81280F391F2E5F3F4F11963C932E93E1
:1012100082819381FD01938382834115510559F4A5
:10122000B0936603A093650320C0AF010280F381F1
:10123000E02D3097A1F6EA01BB83AA83CA0102968A
:1012400028813981820F931F8A179B0771F48D9132
:101250009C911197280F391F2E5F3F4F39832883A8
:10126000FD01828193819B838A83DF91CF910895D1
:10127000FC0105900020E9F7809590958E0F9F1F47
:101280000895FC010590615070400110D8F78095D9
:1012900090958E0F9F1F0895DC0140FF03C001C091
:1012A0006D936D9342505040D8F70895FC01615002
:1012B000704001900110D8F7809590958E0F9F1F78
:1012C0000895DF93CF93BF93AF939F93D3E0C0E58F
:1012D0009FB7AE81AF5FAE8360F0AA81BB81BA2BAE
:1012E00041F4CDB7DEB7FE81EF812996CDBFDEBFD9
:1012F00009948F937F936F935F934F933F932F93B3
:101300001F930F93FF92EF92DF92CF92BF92AF9213
:101310009F928F927F926F925F924F923F922F9205
:101320001F920F929F93CDB7DEB79B8D39A148A135
:10133000E8A3F9A370F0F3E0E0E5D381C281BEB782
:10134000ADB7BD83AC8324812DBF25812EBFCA2FAD
:10135000DB2F1124E32FF42F0994EF91EF91E0E5B7
:10136000F3E0F89406810A95068354F4D181C08194
:10137000D383C283209639F1BD81AC81ADBFBEBF9E
:101380000F900FBE0F901F902F903F904F905F9047
:101390006F907F908F909F90AF90BF90CF90DF9095
:1013A000EF90FF900F911F912F913F914F915F917F
:1013B0006F917F918F919F91AF91BF91CF91DF916D
:1013C000EF91FF91189578948895FDCFFF91EF915B
:1013D0008050904011F48DB79EB780935403909342
:1013E0005503099401D023C0E82FF92F1DD0A02D5B
:1013F0001BD0B02D19D00C9217D00E9240E040E0D7
:1014000051E24E935A95E9F711970ED0802D0CD0EA
:10141000902D0AD0E82FF92FA483B5830382A0E68C
:10142000A283418340830895C89531960895F89426
:1014300048DF7894E82FF92F22812F7D228326FF21
:1014400003C02F7B228301D08ACFE82FF92F3FEFF3
:1014500022812073E1F4CF93DF934381C0E5D3E091
:101460002FB7F8943395EC2FFD2FC081D1812096B2
:1014700019F05B814517B0F791838083F92FE82F2E
:10148000D183C083DF91CF91832F2FBF0895832F06
:101490002064228308958E5F9F4FE82FF92FF894E0
:1014A000208131812150304019F4208331831895F7
:1014B00008DFE0E5F3E0738162813CD0E82FF92F8B
:1014C0002BD04DCF8E5F9F4F0CD0909156039395AC
:1014D000892B09F00895F894F4DE789440CF8E5F5C
:1014E0009F4FE82FF92F81E090E02FB7F89471819A
:1014F00060818617970728F0808391838FEF2FBF35
:1015000008958FE586179707C8F723D02FBF862F3A
:10151000972F9BCFE22FF32F208131812050304035
:10152000C9F771836083F72FE62F318320830895F5
:10153000F32FE22F208131816217730751F0205081
:101540003040B1F70895608171816050704009F4B6
:1015500008954C2F5D2FC62FD72F79816881718315
:101560006083E62FF72F6627688369837D2F6C2FB2
:10157000C42FD52F98940895E82FF92F329602C0E2
:10158000F92FE82FF894408151814150504011F0DB
:101590004F5F5F4F51834083189501D07CCF6050DF
:1015A000704009F48FCFF8948CDE7894E5DFE8E59D
:1015B000F3E0F89420915A032A9520935A037894E3
:1015C000CE2FDF2FE881F981309659F024813581C3
:1015D000621B730BA8F7620F731F261B370B248344
:1015E000358399838883D92FC82FF983E8836C8347
:1015F0007D833CD0B4CEF89420915A03215020939F
:101600005A03789408F00895CF93DF93AF93BF9374
:10161000D0915903C0915803209621F1FD81EC81AE
:101620003197FD83EC83EF2BE9F4A881B981B09366
:101630005903A0935803F983E8838A819B818250E0
:10164000904031F48E819F817D2F6C2F1DD003C07F
:101650008C2F9D2F44DF109629F0CA2FDB2FFD81A0
:10166000EC81E1CFBF91AF91DF91CF91F8942091C0
:101670005A03239520935A03789431F60895F894E9
:1016800020DE789401D06BCEF92FE82F45DF27CFED
:10169000E82FF92FF89457DF789421F4FCDE82507C
:1016A0009040F6CF69DF862F972F089591110DC0D6
:1016B000803251F08A3041F08C3031F08D3021F0A1
:1016C000893011F08B3099F708959927882708956C
:1016D000629FD001739FF001829FE00DF11D649F16
:1016E000E00DF11D929FF00D839FF00D749FF00DA2
:1016F000659FF00D9927729FB00DE11DF91F639F43
:10170000B00DE11DF91FBD01CF0111240895A1E223
:101710001A2EAA1BBB1BFD010DC0AA1FBB1FEE1F6B
:10172000FF1FA217B307E407F50720F0A21BB30BB6
:10173000E40BF50B661F771F881F991F1A9469F732
:1017400060957095809590959B01AC01BD01CF018E
:021750000895FA
:1017520061006200746573742073756363657373EB
:1017620066756C3A202761272066756E6374696F0F
:101772006E2063616C6C65642077697468206172A5
:1017820067756D656E7420256400746573742073CB
:1017920075636365737366756C3A202762272066EA
:1017A200756E6374696F6E2063616C6C656420771B
:1017B20069746820617267756D656E7420256400B6
:0A17C2000003270300006703200066
:00000001FF
