:100000000C9435000C9450000C9450000C9450004B
:100010000C9450000C9450000C9450000C94500020
:100020000C9450000C9450000C9450000C9452000E
:100030000C9450000C94E1000C94DB000C945000E4
:100040000C9450000C9450000C9450000C945000F0
:100050000C945000D30076009D00020A015A00DA89
:1000600000039C00D701A300000011241FBECFE5B0
:10007000D8E0DEBFCDBF10E0A0E6B0E0E4EEFBE0EC
:1000800002C005900D92A036B107D9F711E0A0E6A5
:10009000B0E001C01D92A232B107E1F70C948100DB
:1000A0000C9400000E944F0380EE82BF0E9437052F
:1000B0000E949B03C1E060E273E084ED90E00E9447
:1000C0000B0584ED90E00E94390488B38C2788BB2F
:1000D00068EC70E084ED90E00E940B0584ED90E008
:1000E0000E94390488B38C2788BBE5CFC2E060ED5D
:1000F00077E080E690E00E94090588B38C2788BBF2
:10010000F6CFCFE5D8E0DEBFCDBF80E090E00E9423
:10011000D40380E885BF80EE82BF84E083BF81E0A6
:1001200089BF8FEF87BB88BB8BE590E00E94E0031F
:1001300084E590E00E94E00382E690E00E94E00304
:1001400089E190E00E94D4000E949B03FFCFAF930F
:10015000A0910E01A068A0930E01AF910895209187
:100160000E0127FF05C02F7706C020930E0103C0A4
:1001700091E080E180D3809112010895F0DF2BC0DF
:100180008DE029C080E227C0E82FF92FC895002014
:1001900041F0802DEF93FF931ED0FF91EF913196A8
:1001A000F5CF8E2F9F2F089589BD9093400028E9A9
:1001B0002AB92ABD0895559872D28CE091E07FD378
:1001C000BCC257986CD2ACB1A093120191E080E10F
:1001D00076D3579AB2C25D9906C08F93559A8CE038
:1001E00091E049D38F918CB90895AF92BF92CF928D
:1001F000DF92D82EAA24BB24CC24C0DF21D096F4D1
:100200008A3314F4805302C08F7D8753AA0CBB1C21
:10021000AA0CBB1CAA0CBB1CAA0CBB1CA80EC3942A
:10022000DA9459F76C2D8A2D9B2DDF90CF90BF90DB
:10023000AF90089584E0D9CF82E0D7CF81E0D5CFC9
:100240008F9380911201E89480335CF08A3344F0FC
:1002500081343CF0873424F081361CF087360CF46E
:1002600068948F9108958F9380911201E894803261
:10027000B9F38D30A9F3F5CF44E0562F682F792FCD
:10028000660F771F881F660F771F881F660F771FFF
:10029000881F660F771F881F541734F08F70805D9A
:1002A0008A330CF0895F97DF4A9551F7089564E02F
:1002B000E3CF62E0E1CF0D0041767258204D6F6EC2
:1002C00069746F72205632000D000D004D6F646925
:1002D0006679203D206D7B732C657D5B775D5B616E
:1002E0006161615D000D0044756D702020203D202E
:1002F000647B732C657D5B775D5B616161615D2013
:100300005B78785D000D0048616C742020203D20F2
:10031000685B6F6F6F6F5D000D0053746570202018
:10032000203D20735B6F6F6F6F5D000D0052657332
:10033000756D65203D20725B6F6F6F6F5D000D0006
:10034000436F6E746578743D20785B6F6F6F6F5D7F
:10035000000D005369676E616C203D20695B6F6F13
:100360006F6F5D000D0043616E63656C203D20631F
:100370005B6F6F6F6F5D000D004B696C6C54736B3E
:100380003D206B5B6F6F6F6F5D000D00496E697490
:1003900061736B3D20705B616161615D000D0051B7
:1003A0007569742020203D2071000D00000080E25E
:1003B00091E078D286EB92E0E7DE8F5F9F4FE82FE7
:1003C000F92FC8950020C1F720E6422E20E0522EDA
:1003D00088249924BB24AA2466247724D1DE8EE3C2
:1003E000FADE01D0FBCFCADE8D36C9F08436D1F0FB
:1003F000883649F18337C9F18B36A1F1823731F163
:10040000893669F1833629F1883731F18037C1F0B7
:10041000813711F08FE3DFCEAF91AF91089550D0C7
:10042000CEF79BC04DD0C82ED92EA6F72091120131
:100430002D3011F03CD076F76C2D7D2D8A2D6DC0BE
:10044000F9DE46F7BFC128D02EF7CDC225D016F76A
:10045000DCC122D0FEF64FC31FD0E6F6BCC01CD0D4
:10046000CEF620C219D0B6F6A5C216D09EF687D217
:10047000882309F4089584DE882D992D18DF84E8F7
:1004800094E082CE202D204E6F74205375737065DA
:100490006E646564210D0000CDDE16F0E4DE36F4F6
:1004A000662311F4882D992D882E992E0895C4DE87
:1004B00016F0D9DE26F4662309F48A2DA82E0895B5
:1004C000E8945CDE2B2D833711F42D7F03C0853635
:1004D000E9F42260B22EAEDE2B2D1EF42E7FB22E5A
:1004E0000CC02E7FB22E30911201373721F42160DB
:1004F000B22EA0DE16F0B7DE4EF4662339F0B1FE60
:1005000003C0682E792E02C0482E592E842D952DB9
:10051000B1FC862DB1FC972D0895B0FE03C06E7F0F
:1005200080FD8395C62ED72E182E2ADE9D2D8C2D6C
:10053000BEDE28DE8BD0B0FC04C0BBDE81E090E0E4
:1005400003C0B5DE82E090E0C80ED91E181A21F073
:10055000EC2DEF7051F3EDCF0895C82ED92E10DE9B
:100560008C2D9D2DA4DE0EDE71D0B0FCA0DEB0FE81
:10057000A0DE8DE230DEB0FE5FDEB0FC5BDE66F456
:1005800076D000DEE1E0F0E0B0FC3196CE0EDF1E6A
:10059000EC2DEF7021F3E8CF66DE36F4662381F7A9
:1005A000209112012D3071F708950D5049442046D5
:1005B0006C6720507269204672616D652053520D40
:1005C00000523020200052313620000D2020202003
:1005D00020504320200095E08AEAD6DD882D992D11
:1005E00066DED0DDE82DF92D828163DECBDDE82DDE
:1005F000F92D83815EDEC6DDC5DDE82DF92DC481D0
:10060000D5818C2F9D2F53DEBDDDBCDD21968991D8
:1006100050DE0ED095E081EC10D00AD095E086EC4B
:100620000CD095E08BECB0DD9991888140DE089587
:10063000A7DD8C2F9D2F3BDEA5CDA6DDE0E11E2E94
:10064000899137DE9FDD1A94D9F70895B1FC08C06F
:10065000EC2DFD2D8081B0FE08959181808108955B
:100660009D2D8C2DB0FE62D2B0FC6FD20895B1FCEE
:1006700008C0EC2DFD2D8083B0FE0895918380830A
:100680000895E92E682F9D2D8C2D76D2B0FE06C0E0
:100690008C2D9D2D8F5F9F4F6E2D6ED20895DF9311
:1006A000CF93BF93AF939F93D1E0C4E19FB7AE8147
:1006B000AF5FAE8360F0AA81BB81BA2B41F4CDB7A6
:1006C000DEB7FE81EF812996CDBFDEBF09948F93FF
:1006D0007F936F935F934F933F932F931F930F934A
:1006E000FF92EF92DF92CF92BF92AF929F928F9242
:1006F0007F926F925F924F923F922F921F920F9232
:100700009F93CDB7DEB79B8D39A148A1E8A3F9A38C
:1007100070F0F1E0E4E1D381C281BEB7ADB7BD8333
:10072000AC8324812DBF25812EBFCA2FDB2F11243E
:10073000E32FF42F0994EF91EF91E4E1F1E0F894C5
:1007400006810A95068354F4D181C081D383C28384
:10075000209639F1BD81AC81ADBFBEBF0F900FBEF9
:100760000F901F902F903F904F905F906F907F90D1
:100770008F909F90AF90BF90CF90DF90EF90FF90C1
:100780000F911F912F913F914F915F916F917F91A9
:100790008F919F91AF91BF91CF91DF91EF91FF9199
:1007A000189578948895FDCFFF91EF9180509040F7
:1007B00011F48DB79EB78093180190931901099495
:1007C00001D023C0E82FF92F1DD0A02D1BD0B02DB4
:1007D00019D00C9217D00E9240E040E051E24E93B7
:1007E0005A95E9F711970ED0802D0CD0902D0AD094
:1007F000E82FF92FA483B5830382A0E6A283418367
:1008000040830895C89531960895F89448DF789408
:10081000E82FF92F22812F7D228326FF03C02F7B13
:10082000228301D08ACFE82FF92F3FEF2281207356
:10083000E1F4CF93DF934381C4E1D1E02FB7F89483
:100840003395EC2FFD2FC081D181209619F05B816B
:100850004517B0F791838083F92FE82FD183C083A8
:10086000DF91CF91832F2FBF0895832F20642283A0
:1008700008958E5F9F4FE82FF92FF89420813181E2
:100880002150304019F420833183189508DFE4E1CA
:10089000F1E0738162813CD0E82FF92F2BD04DCF4E
:1008A0008E5F9F4F0CD090911A019395892B09F080
:1008B0000895F894F4DE789440CF8E5F9F4FE82F30
:1008C000F92F81E090E02FB7F8947181608186174D
:1008D000970728F0808391838FEF2FBF08958FE5CE
:1008E00086179707C8F723D02FBF862F972F9BCF48
:1008F000E22FF32F2081318120503040C9F77183DE
:100900006083F72FE62F318320830895F32FE22FA2
:10091000208131816217730751F020503040B1F7C8
:100920000895608171816050704009F408954C2FE2
:100930005D2FC62FD72F7981688171836083E62F61
:10094000F72F6627688369837D2F6C2FC42FD52FDF
:1009500098940895F894A3DE7894F92FE82FA28153
:10096000A6FF1DC0A068A283E4E1F1E0B181A081EF
:1009700091838083F92FE82FB183A0830EC0F89470
:100980008EDE7894F92FE82FA281A6FF09C0AF79F7
:10099000A28349DFA281A062A28380E001C081E03E
:1009A0008A8FCBCEF8947BDE78949091170180915A
:1009B000160103C0F89473DE7894F92FE82FA0E1B4
:1009C000A283792F682FF1E0E4E1F894A1DFB5CE9E
:1009D000F89465DE7894F0911701E0911601228178
:1009E00025FD09C0AACEF8945ADE7894F92FE82F95
:1009F0002281206222837F2F6E2FF1E0E4E1F894C0
:100A000087DFC22FD32F209619F0EA81E064EA83B2
:100A100094CE01D02ECF6050704009F441CFF894AD
:100A20003EDE7894B7D0ECE1F1E0F89420911E011D
:100A30002A9520931E017894CE2FDF2FE881F9812B
:100A4000309659F024813581621B730BA8F7620F31
:100A5000731F261B370B2483358399838883D92FF3
:100A6000C82FF983E8836C837D833CD066CEF894ED
:100A700020911E01215020931E01789408F00895C2
:100A8000CF93DF93AF93BF93D0911D01C0911C0111
:100A9000209621F1FD81EC813197FD83EC83EF2BD2
:100AA000E9F4A881B981B0931D01A0931C01F983D9
:100AB000E8838A819B818250904031F48E819F81AE
:100AC0007D2F6C2F7DD003C08C2F9D2FF6DE1096CE
:100AD00029F0CA2FDB2FFD81EC81E1CFBF91AF91CF
:100AE000DF91CF91F89420911E01239520931E0150
:100AF000789431F60895F894D2DD7894DEDE6A8D2C
:100B00007B8DECE1F1E0F89403DF2050304059F0A8
:100B1000C62FD72F6C817D8195818481860F971F89
:100B2000848395830ACE2A8F3B8F07CE682F792F37
:100B300091E080E2A0DEE199FECF6EBB7FBBE09A40
:100B40000DB20F92AFDE8F910895682F792F91E04B
:100B500080E291DEE199FECF6EBB7FBBE09A0DB2E1
:100B60000F926F5F7F4F6EBB7FBBE09A0DB20F920B
:100B700099DE9F918F910895462F682F792F91E0EC
:100B800080E279DEE199FECF6EBB7FBB4DBBE29A7E
:100B9000E19A88CEE82FF92F329602C0F92FE82F7C
:100BA000F894408151814150504011F04F5F5F4FA8
:100BB000518340831895F89472DD789401D0BDCDAF
:100BC000F92FE82F97DE79CEE82FF92FF894A9DED8
:100BD000789421F44EDE82509040F6CFDBDF862FF2
:040BE000972F0895AE
:00000001FF
